Archive member included to satisfy reference by file (symbol)

c:/program files (x86)/atmel/studio/7.0/toolchain/avr8/avr8-gnu-toolchain/bin/../lib/gcc/avr/5.4.0/../../../../avr/lib/avr5\libm.a(addsf3.o)
                              analog_to_lux.o (__subsf3)
c:/program files (x86)/atmel/studio/7.0/toolchain/avr8/avr8-gnu-toolchain/bin/../lib/gcc/avr/5.4.0/../../../../avr/lib/avr5\libm.a(addsf3x.o)
                              c:/program files (x86)/atmel/studio/7.0/toolchain/avr8/avr8-gnu-toolchain/bin/../lib/gcc/avr/5.4.0/../../../../avr/lib/avr5\libm.a(addsf3.o) (__addsf3x)
c:/program files (x86)/atmel/studio/7.0/toolchain/avr8/avr8-gnu-toolchain/bin/../lib/gcc/avr/5.4.0/../../../../avr/lib/avr5\libm.a(cmpsf2.o)
                              main.o (__ltsf2)
c:/program files (x86)/atmel/studio/7.0/toolchain/avr8/avr8-gnu-toolchain/bin/../lib/gcc/avr/5.4.0/../../../../avr/lib/avr5\libm.a(divsf3.o)
                              analog_to_lux.o (__divsf3)
c:/program files (x86)/atmel/studio/7.0/toolchain/avr8/avr8-gnu-toolchain/bin/../lib/gcc/avr/5.4.0/../../../../avr/lib/avr5\libm.a(divsf3x.o)
                              c:/program files (x86)/atmel/studio/7.0/toolchain/avr8/avr8-gnu-toolchain/bin/../lib/gcc/avr/5.4.0/../../../../avr/lib/avr5\libm.a(divsf3.o) (__divsf3x)
c:/program files (x86)/atmel/studio/7.0/toolchain/avr8/avr8-gnu-toolchain/bin/../lib/gcc/avr/5.4.0/../../../../avr/lib/avr5\libm.a(floatsisf.o)
                              analog_to_lux.o (__floatsisf)
c:/program files (x86)/atmel/studio/7.0/toolchain/avr8/avr8-gnu-toolchain/bin/../lib/gcc/avr/5.4.0/../../../../avr/lib/avr5\libm.a(fp_cmp.o)
                              c:/program files (x86)/atmel/studio/7.0/toolchain/avr8/avr8-gnu-toolchain/bin/../lib/gcc/avr/5.4.0/../../../../avr/lib/avr5\libm.a(cmpsf2.o) (__fp_cmp)
c:/program files (x86)/atmel/studio/7.0/toolchain/avr8/avr8-gnu-toolchain/bin/../lib/gcc/avr/5.4.0/../../../../avr/lib/avr5\libm.a(fp_inf.o)
                              c:/program files (x86)/atmel/studio/7.0/toolchain/avr8/avr8-gnu-toolchain/bin/../lib/gcc/avr/5.4.0/../../../../avr/lib/avr5\libm.a(addsf3x.o) (__fp_inf)
c:/program files (x86)/atmel/studio/7.0/toolchain/avr8/avr8-gnu-toolchain/bin/../lib/gcc/avr/5.4.0/../../../../avr/lib/avr5\libm.a(fp_nan.o)
                              c:/program files (x86)/atmel/studio/7.0/toolchain/avr8/avr8-gnu-toolchain/bin/../lib/gcc/avr/5.4.0/../../../../avr/lib/avr5\libm.a(addsf3x.o) (__fp_nan)
c:/program files (x86)/atmel/studio/7.0/toolchain/avr8/avr8-gnu-toolchain/bin/../lib/gcc/avr/5.4.0/../../../../avr/lib/avr5\libm.a(fp_pscA.o)
                              c:/program files (x86)/atmel/studio/7.0/toolchain/avr8/avr8-gnu-toolchain/bin/../lib/gcc/avr/5.4.0/../../../../avr/lib/avr5\libm.a(addsf3x.o) (__fp_pscA)
c:/program files (x86)/atmel/studio/7.0/toolchain/avr8/avr8-gnu-toolchain/bin/../lib/gcc/avr/5.4.0/../../../../avr/lib/avr5\libm.a(fp_pscB.o)
                              c:/program files (x86)/atmel/studio/7.0/toolchain/avr8/avr8-gnu-toolchain/bin/../lib/gcc/avr/5.4.0/../../../../avr/lib/avr5\libm.a(addsf3x.o) (__fp_pscB)
c:/program files (x86)/atmel/studio/7.0/toolchain/avr8/avr8-gnu-toolchain/bin/../lib/gcc/avr/5.4.0/../../../../avr/lib/avr5\libm.a(fp_round.o)
                              c:/program files (x86)/atmel/studio/7.0/toolchain/avr8/avr8-gnu-toolchain/bin/../lib/gcc/avr/5.4.0/../../../../avr/lib/avr5\libm.a(addsf3.o) (__fp_round)
c:/program files (x86)/atmel/studio/7.0/toolchain/avr8/avr8-gnu-toolchain/bin/../lib/gcc/avr/5.4.0/../../../../avr/lib/avr5\libm.a(fp_split3.o)
                              c:/program files (x86)/atmel/studio/7.0/toolchain/avr8/avr8-gnu-toolchain/bin/../lib/gcc/avr/5.4.0/../../../../avr/lib/avr5\libm.a(addsf3x.o) (__fp_split3)
c:/program files (x86)/atmel/studio/7.0/toolchain/avr8/avr8-gnu-toolchain/bin/../lib/gcc/avr/5.4.0/../../../../avr/lib/avr5\libm.a(fp_zero.o)
                              c:/program files (x86)/atmel/studio/7.0/toolchain/avr8/avr8-gnu-toolchain/bin/../lib/gcc/avr/5.4.0/../../../../avr/lib/avr5\libm.a(addsf3x.o) (__fp_zero)
c:/program files (x86)/atmel/studio/7.0/toolchain/avr8/avr8-gnu-toolchain/bin/../lib/gcc/avr/5.4.0/../../../../avr/lib/avr5\libm.a(gesf2.o)
                              main.o (__gtsf2)
c:/program files (x86)/atmel/studio/7.0/toolchain/avr8/avr8-gnu-toolchain/bin/../lib/gcc/avr/5.4.0/../../../../avr/lib/avr5\libm.a(mulsf3.o)
                              analog_to_lux.o (__mulsf3)
c:/program files (x86)/atmel/studio/7.0/toolchain/avr8/avr8-gnu-toolchain/bin/../lib/gcc/avr/5.4.0/../../../../avr/lib/avr5\libm.a(mulsf3x.o)
                              c:/program files (x86)/atmel/studio/7.0/toolchain/avr8/avr8-gnu-toolchain/bin/../lib/gcc/avr/5.4.0/../../../../avr/lib/avr5\libm.a(mulsf3.o) (__mulsf3x)
../lib\libcoreArduinoUno161.a(wiring.c.o)
                              keyboard.o (delay)
../lib\libcoreArduinoUno161.a(wiring_analog.c.o)
                              main.o (analogWrite)
../lib\libcoreArduinoUno161.a(wiring_digital.c.o)
                              LiquidCrystal.o (pinMode)
../lib\libcoreArduinoUno161.a(main.cpp.o)
                              C:/Program Files (x86)/Atmel/Studio/7.0/Packs/atmel/ATmega_DFP/1.2.209/gcc/dev/atmega328p/avr5/crtatmega328p.o (main)
../lib\libcoreArduinoUno161.a(Print.cpp.o)
                              LiquidCrystal.o (_ZN5Print5writeEPKhj)
../lib\libcoreArduinoUno161.a(WString.cpp.o)
                              main.o (_ZN6StringD1Ev)
../lib\libcoreArduinoUno161.a(hooks.c.o)
                              ../lib\libcoreArduinoUno161.a(wiring.c.o) (yield)
../lib\libcoreArduinoUno161.a(abi.cpp.o)
                              ../lib\libcoreArduinoUno161.a(Print.cpp.o) (__cxa_pure_virtual)
c:/program files (x86)/atmel/studio/7.0/toolchain/avr8/avr8-gnu-toolchain/bin/../lib/gcc/avr/5.4.0/../../../../avr/lib/avr5\libm.a(fixsfsi.o)
                              ../lib\libcoreArduinoUno161.a(Print.cpp.o) (__fixsfsi)
c:/program files (x86)/atmel/studio/7.0/toolchain/avr8/avr8-gnu-toolchain/bin/../lib/gcc/avr/5.4.0/../../../../avr/lib/avr5\libm.a(fixunssfsi.o)
                              ../lib\libcoreArduinoUno161.a(Print.cpp.o) (__fixunssfsi)
c:/program files (x86)/atmel/studio/7.0/toolchain/avr8/avr8-gnu-toolchain/bin/../lib/gcc/avr/5.4.0/../../../../avr/lib/avr5\libm.a(unordsf2.o)
                              ../lib\libcoreArduinoUno161.a(Print.cpp.o) (__unordsf2)
c:/program files (x86)/atmel/studio/7.0/toolchain/avr8/avr8-gnu-toolchain/bin/../lib/gcc/avr/5.4.0/avr5\libgcc.a(_divmodhi4.o)
                              main.o (__divmodhi4)
c:/program files (x86)/atmel/studio/7.0/toolchain/avr8/avr8-gnu-toolchain/bin/../lib/gcc/avr/5.4.0/avr5\libgcc.a(_udivmodsi4.o)
                              ../lib\libcoreArduinoUno161.a(Print.cpp.o) (__udivmodsi4)
c:/program files (x86)/atmel/studio/7.0/toolchain/avr8/avr8-gnu-toolchain/bin/../lib/gcc/avr/5.4.0/avr5\libgcc.a(_exit.o)
                              C:/Program Files (x86)/Atmel/Studio/7.0/Packs/atmel/ATmega_DFP/1.2.209/gcc/dev/atmega328p/avr5/crtatmega328p.o (exit)
c:/program files (x86)/atmel/studio/7.0/toolchain/avr8/avr8-gnu-toolchain/bin/../lib/gcc/avr/5.4.0/avr5\libgcc.a(_copy_data.o)
                              keyboard.o (__do_copy_data)
c:/program files (x86)/atmel/studio/7.0/toolchain/avr8/avr8-gnu-toolchain/bin/../lib/gcc/avr/5.4.0/avr5\libgcc.a(_clear_bss.o)
                              adc.o (__do_clear_bss)
c:/program files (x86)/atmel/studio/7.0/toolchain/avr8/avr8-gnu-toolchain/bin/../lib/gcc/avr/5.4.0/avr5\libgcc.a(_ctors.o)
                              main.o (__do_global_ctors)
c:/program files (x86)/atmel/studio/7.0/toolchain/avr8/avr8-gnu-toolchain/bin/../lib/gcc/avr/5.4.0/avr5\libgcc.a(_udivmodhi4.o)
                              c:/program files (x86)/atmel/studio/7.0/toolchain/avr8/avr8-gnu-toolchain/bin/../lib/gcc/avr/5.4.0/avr5\libgcc.a(_divmodhi4.o) (__udivmodhi4)
c:/program files (x86)/atmel/studio/7.0/toolchain/avr8/avr8-gnu-toolchain/bin/../lib/gcc/avr/5.4.0/avr5\libgcc.a(_tablejump2.o)
                              c:/program files (x86)/atmel/studio/7.0/toolchain/avr8/avr8-gnu-toolchain/bin/../lib/gcc/avr/5.4.0/avr5\libgcc.a(_ctors.o) (__tablejump2__)
c:/program files (x86)/atmel/studio/7.0/toolchain/avr8/avr8-gnu-toolchain/bin/../lib/gcc/avr/5.4.0/../../../../avr/lib/avr5\libc.a(dtostrf.o)
                              ../lib\libcoreArduinoUno161.a(WString.cpp.o) (dtostrf)
c:/program files (x86)/atmel/studio/7.0/toolchain/avr8/avr8-gnu-toolchain/bin/../lib/gcc/avr/5.4.0/../../../../avr/lib/avr5\libc.a(malloc.o)
                              ../lib\libcoreArduinoUno161.a(WString.cpp.o) (free)
c:/program files (x86)/atmel/studio/7.0/toolchain/avr8/avr8-gnu-toolchain/bin/../lib/gcc/avr/5.4.0/../../../../avr/lib/avr5\libc.a(realloc.o)
                              ../lib\libcoreArduinoUno161.a(WString.cpp.o) (realloc)
c:/program files (x86)/atmel/studio/7.0/toolchain/avr8/avr8-gnu-toolchain/bin/../lib/gcc/avr/5.4.0/../../../../avr/lib/avr5\libc.a(abort.o)
                              ../lib\libcoreArduinoUno161.a(abi.cpp.o) (abort)
c:/program files (x86)/atmel/studio/7.0/toolchain/avr8/avr8-gnu-toolchain/bin/../lib/gcc/avr/5.4.0/../../../../avr/lib/avr5\libc.a(atof.o)
                              ../lib\libcoreArduinoUno161.a(WString.cpp.o) (atof)
c:/program files (x86)/atmel/studio/7.0/toolchain/avr8/avr8-gnu-toolchain/bin/../lib/gcc/avr/5.4.0/../../../../avr/lib/avr5\libc.a(atol.o)
                              ../lib\libcoreArduinoUno161.a(WString.cpp.o) (atol)
c:/program files (x86)/atmel/studio/7.0/toolchain/avr8/avr8-gnu-toolchain/bin/../lib/gcc/avr/5.4.0/../../../../avr/lib/avr5\libc.a(isspace.o)
                              ../lib\libcoreArduinoUno161.a(WString.cpp.o) (isspace)
c:/program files (x86)/atmel/studio/7.0/toolchain/avr8/avr8-gnu-toolchain/bin/../lib/gcc/avr/5.4.0/../../../../avr/lib/avr5\libc.a(tolower.o)
                              ../lib\libcoreArduinoUno161.a(WString.cpp.o) (tolower)
c:/program files (x86)/atmel/studio/7.0/toolchain/avr8/avr8-gnu-toolchain/bin/../lib/gcc/avr/5.4.0/../../../../avr/lib/avr5\libc.a(toupper.o)
                              ../lib\libcoreArduinoUno161.a(WString.cpp.o) (toupper)
c:/program files (x86)/atmel/studio/7.0/toolchain/avr8/avr8-gnu-toolchain/bin/../lib/gcc/avr/5.4.0/../../../../avr/lib/avr5\libc.a(strcpy_P.o)
                              ../lib\libcoreArduinoUno161.a(WString.cpp.o) (strcpy_P)
c:/program files (x86)/atmel/studio/7.0/toolchain/avr8/avr8-gnu-toolchain/bin/../lib/gcc/avr/5.4.0/../../../../avr/lib/avr5\libc.a(strlen_P.o)
                              ../lib\libcoreArduinoUno161.a(WString.cpp.o) (__strlen_P)
c:/program files (x86)/atmel/studio/7.0/toolchain/avr8/avr8-gnu-toolchain/bin/../lib/gcc/avr/5.4.0/../../../../avr/lib/avr5\libc.a(memcpy.o)
                              ../lib\libcoreArduinoUno161.a(WString.cpp.o) (memcpy)
c:/program files (x86)/atmel/studio/7.0/toolchain/avr8/avr8-gnu-toolchain/bin/../lib/gcc/avr/5.4.0/../../../../avr/lib/avr5\libc.a(memmove.o)
                              ../lib\libcoreArduinoUno161.a(WString.cpp.o) (memmove)
c:/program files (x86)/atmel/studio/7.0/toolchain/avr8/avr8-gnu-toolchain/bin/../lib/gcc/avr/5.4.0/../../../../avr/lib/avr5\libc.a(strchr.o)
                              ../lib\libcoreArduinoUno161.a(WString.cpp.o) (strchr)
c:/program files (x86)/atmel/studio/7.0/toolchain/avr8/avr8-gnu-toolchain/bin/../lib/gcc/avr/5.4.0/../../../../avr/lib/avr5\libc.a(strcmp.o)
                              ../lib\libcoreArduinoUno161.a(WString.cpp.o) (strcmp)
c:/program files (x86)/atmel/studio/7.0/toolchain/avr8/avr8-gnu-toolchain/bin/../lib/gcc/avr/5.4.0/../../../../avr/lib/avr5\libc.a(strcpy.o)
                              ../lib\libcoreArduinoUno161.a(WString.cpp.o) (strcpy)
c:/program files (x86)/atmel/studio/7.0/toolchain/avr8/avr8-gnu-toolchain/bin/../lib/gcc/avr/5.4.0/../../../../avr/lib/avr5\libc.a(strncmp.o)
                              ../lib\libcoreArduinoUno161.a(WString.cpp.o) (strncmp)
c:/program files (x86)/atmel/studio/7.0/toolchain/avr8/avr8-gnu-toolchain/bin/../lib/gcc/avr/5.4.0/../../../../avr/lib/avr5\libc.a(strncpy.o)
                              ../lib\libcoreArduinoUno161.a(WString.cpp.o) (strncpy)
c:/program files (x86)/atmel/studio/7.0/toolchain/avr8/avr8-gnu-toolchain/bin/../lib/gcc/avr/5.4.0/../../../../avr/lib/avr5\libc.a(strrchr.o)
                              ../lib\libcoreArduinoUno161.a(WString.cpp.o) (strrchr)
c:/program files (x86)/atmel/studio/7.0/toolchain/avr8/avr8-gnu-toolchain/bin/../lib/gcc/avr/5.4.0/../../../../avr/lib/avr5\libc.a(strstr.o)
                              ../lib\libcoreArduinoUno161.a(WString.cpp.o) (strstr)
c:/program files (x86)/atmel/studio/7.0/toolchain/avr8/avr8-gnu-toolchain/bin/../lib/gcc/avr/5.4.0/../../../../avr/lib/avr5\libc.a(itoa.o)
                              ../lib\libcoreArduinoUno161.a(WString.cpp.o) (__itoa)
c:/program files (x86)/atmel/studio/7.0/toolchain/avr8/avr8-gnu-toolchain/bin/../lib/gcc/avr/5.4.0/../../../../avr/lib/avr5\libc.a(itoa_ncheck.o)
                              c:/program files (x86)/atmel/studio/7.0/toolchain/avr8/avr8-gnu-toolchain/bin/../lib/gcc/avr/5.4.0/../../../../avr/lib/avr5\libc.a(itoa.o) (__itoa_ncheck)
c:/program files (x86)/atmel/studio/7.0/toolchain/avr8/avr8-gnu-toolchain/bin/../lib/gcc/avr/5.4.0/../../../../avr/lib/avr5\libc.a(ltoa.o)
                              ../lib\libcoreArduinoUno161.a(WString.cpp.o) (__ltoa)
c:/program files (x86)/atmel/studio/7.0/toolchain/avr8/avr8-gnu-toolchain/bin/../lib/gcc/avr/5.4.0/../../../../avr/lib/avr5\libc.a(ltoa_ncheck.o)
                              c:/program files (x86)/atmel/studio/7.0/toolchain/avr8/avr8-gnu-toolchain/bin/../lib/gcc/avr/5.4.0/../../../../avr/lib/avr5\libc.a(ltoa.o) (__ltoa_ncheck)
c:/program files (x86)/atmel/studio/7.0/toolchain/avr8/avr8-gnu-toolchain/bin/../lib/gcc/avr/5.4.0/../../../../avr/lib/avr5\libc.a(mulsi10.o)
                              c:/program files (x86)/atmel/studio/7.0/toolchain/avr8/avr8-gnu-toolchain/bin/../lib/gcc/avr/5.4.0/../../../../avr/lib/avr5\libc.a(atol.o) (__mulsi_const_10)
c:/program files (x86)/atmel/studio/7.0/toolchain/avr8/avr8-gnu-toolchain/bin/../lib/gcc/avr/5.4.0/../../../../avr/lib/avr5\libc.a(ultoa.o)
                              ../lib\libcoreArduinoUno161.a(WString.cpp.o) (__ultoa)
c:/program files (x86)/atmel/studio/7.0/toolchain/avr8/avr8-gnu-toolchain/bin/../lib/gcc/avr/5.4.0/../../../../avr/lib/avr5\libc.a(ultoa_ncheck.o)
                              c:/program files (x86)/atmel/studio/7.0/toolchain/avr8/avr8-gnu-toolchain/bin/../lib/gcc/avr/5.4.0/../../../../avr/lib/avr5\libc.a(ultoa.o) (__ultoa_ncheck)
c:/program files (x86)/atmel/studio/7.0/toolchain/avr8/avr8-gnu-toolchain/bin/../lib/gcc/avr/5.4.0/../../../../avr/lib/avr5\libc.a(utoa.o)
                              ../lib\libcoreArduinoUno161.a(WString.cpp.o) (__utoa)
c:/program files (x86)/atmel/studio/7.0/toolchain/avr8/avr8-gnu-toolchain/bin/../lib/gcc/avr/5.4.0/../../../../avr/lib/avr5\libc.a(utoa_ncheck.o)
                              c:/program files (x86)/atmel/studio/7.0/toolchain/avr8/avr8-gnu-toolchain/bin/../lib/gcc/avr/5.4.0/../../../../avr/lib/avr5\libc.a(utoa.o) (__utoa_ncheck)
c:/program files (x86)/atmel/studio/7.0/toolchain/avr8/avr8-gnu-toolchain/bin/../lib/gcc/avr/5.4.0/../../../../avr/lib/avr5\libc.a(dtoa_prf.o)
                              c:/program files (x86)/atmel/studio/7.0/toolchain/avr8/avr8-gnu-toolchain/bin/../lib/gcc/avr/5.4.0/../../../../avr/lib/avr5\libc.a(dtostrf.o) (dtoa_prf)
c:/program files (x86)/atmel/studio/7.0/toolchain/avr8/avr8-gnu-toolchain/bin/../lib/gcc/avr/5.4.0/../../../../avr/lib/avr5\libc.a(strtod.o)
                              c:/program files (x86)/atmel/studio/7.0/toolchain/avr8/avr8-gnu-toolchain/bin/../lib/gcc/avr/5.4.0/../../../../avr/lib/avr5\libc.a(atof.o) (strtod)
c:/program files (x86)/atmel/studio/7.0/toolchain/avr8/avr8-gnu-toolchain/bin/../lib/gcc/avr/5.4.0/../../../../avr/lib/avr5\libc.a(ftoa_engine.o)
                              c:/program files (x86)/atmel/studio/7.0/toolchain/avr8/avr8-gnu-toolchain/bin/../lib/gcc/avr/5.4.0/../../../../avr/lib/avr5\libc.a(dtoa_prf.o) (__ftoa_engine)
c:/program files (x86)/atmel/studio/7.0/toolchain/avr8/avr8-gnu-toolchain/bin/../lib/gcc/avr/5.4.0/../../../../avr/lib/avr5\libc.a(cty_isfalse.o)
                              c:/program files (x86)/atmel/studio/7.0/toolchain/avr8/avr8-gnu-toolchain/bin/../lib/gcc/avr/5.4.0/../../../../avr/lib/avr5\libc.a(isspace.o) (__ctype_isfalse)
c:/program files (x86)/atmel/studio/7.0/toolchain/avr8/avr8-gnu-toolchain/bin/../lib/gcc/avr/5.4.0/../../../../avr/lib/avr5\libc.a(strncasecmp_P.o)
                              c:/program files (x86)/atmel/studio/7.0/toolchain/avr8/avr8-gnu-toolchain/bin/../lib/gcc/avr/5.4.0/../../../../avr/lib/avr5\libc.a(strtod.o) (strncasecmp_P)
c:/program files (x86)/atmel/studio/7.0/toolchain/avr8/avr8-gnu-toolchain/bin/../lib/gcc/avr/5.4.0/../../../../avr/lib/avr5\libc.a(strrev.o)
                              c:/program files (x86)/atmel/studio/7.0/toolchain/avr8/avr8-gnu-toolchain/bin/../lib/gcc/avr/5.4.0/../../../../avr/lib/avr5\libc.a(ultoa_ncheck.o) (strrev)
c:/program files (x86)/atmel/studio/7.0/toolchain/avr8/avr8-gnu-toolchain/bin/../lib/gcc/avr/5.4.0/../../../../avr/lib/avr5\libc.a(errno.o)
                              c:/program files (x86)/atmel/studio/7.0/toolchain/avr8/avr8-gnu-toolchain/bin/../lib/gcc/avr/5.4.0/../../../../avr/lib/avr5\libc.a(strtod.o) (errno)
c:/program files (x86)/atmel/studio/7.0/toolchain/avr8/avr8-gnu-toolchain/bin/../lib/gcc/avr/5.4.0/avr5\libgcc.a(_muluhisi3.o)
                              c:/program files (x86)/atmel/studio/7.0/toolchain/avr8/avr8-gnu-toolchain/bin/../lib/gcc/avr/5.4.0/../../../../avr/lib/avr5\libc.a(strtod.o) (__muluhisi3)
c:/program files (x86)/atmel/studio/7.0/toolchain/avr8/avr8-gnu-toolchain/bin/../lib/gcc/avr/5.4.0/avr5\libgcc.a(_prologue.o)
                              c:/program files (x86)/atmel/studio/7.0/toolchain/avr8/avr8-gnu-toolchain/bin/../lib/gcc/avr/5.4.0/../../../../avr/lib/avr5\libc.a(realloc.o) (__prologue_saves__)
c:/program files (x86)/atmel/studio/7.0/toolchain/avr8/avr8-gnu-toolchain/bin/../lib/gcc/avr/5.4.0/avr5\libgcc.a(_epilogue.o)
                              c:/program files (x86)/atmel/studio/7.0/toolchain/avr8/avr8-gnu-toolchain/bin/../lib/gcc/avr/5.4.0/../../../../avr/lib/avr5\libc.a(realloc.o) (__epilogue_restores__)
c:/program files (x86)/atmel/studio/7.0/toolchain/avr8/avr8-gnu-toolchain/bin/../lib/gcc/avr/5.4.0/avr5\libgcc.a(_umulhisi3.o)
                              c:/program files (x86)/atmel/studio/7.0/toolchain/avr8/avr8-gnu-toolchain/bin/../lib/gcc/avr/5.4.0/avr5\libgcc.a(_muluhisi3.o) (__umulhisi3)

Allocating common symbols
Common symbol       size              file

errno               0x2               c:/program files (x86)/atmel/studio/7.0/toolchain/avr8/avr8-gnu-toolchain/bin/../lib/gcc/avr/5.4.0/../../../../avr/lib/avr5\libc.a(errno.o)
__brkval            0x2               c:/program files (x86)/atmel/studio/7.0/toolchain/avr8/avr8-gnu-toolchain/bin/../lib/gcc/avr/5.4.0/../../../../avr/lib/avr5\libc.a(malloc.o)
__flp               0x2               c:/program files (x86)/atmel/studio/7.0/toolchain/avr8/avr8-gnu-toolchain/bin/../lib/gcc/avr/5.4.0/../../../../avr/lib/avr5\libc.a(malloc.o)

Discarded input sections

 .data          0x00000000        0x0 C:/Program Files (x86)/Atmel/Studio/7.0/Packs/atmel/ATmega_DFP/1.2.209/gcc/dev/atmega328p/avr5/crtatmega328p.o
 .bss           0x00000000        0x0 C:/Program Files (x86)/Atmel/Studio/7.0/Packs/atmel/ATmega_DFP/1.2.209/gcc/dev/atmega328p/avr5/crtatmega328p.o
 .text          0x00000000        0x0 adc.o
 .data          0x00000000        0x0 adc.o
 .bss           0x00000000        0x0 adc.o
 .text._Z11set_channeli
                0x00000000       0x1c adc.o
 .text          0x00000000        0x0 analog_to_lux.o
 .data          0x00000000        0x0 analog_to_lux.o
 .bss           0x00000000        0x0 analog_to_lux.o
 .text          0x00000000        0x0 keyboard.o
 .data          0x00000000        0x0 keyboard.o
 .bss           0x00000000        0x0 keyboard.o
 .group         0x00000000        0x8 LiquidCrystal.o
 .group         0x00000000        0x8 LiquidCrystal.o
 .group         0x00000000        0x8 LiquidCrystal.o
 .group         0x00000000        0x8 LiquidCrystal.o
 .group         0x00000000        0x8 LiquidCrystal.o
Memory Configuration

Name             Origin             Length             Attributes
text             0x00000000         0x00020000         xr
data             0x00800060         0x0000ffa0         rw !x
eeprom           0x00810000         0x00010000         rw !x
fuse             0x00820000         0x00000003         rw !x
lock             0x00830000         0x00000400         rw !x
signature        0x00840000         0x00000400         rw !x
user_signatures  0x00850000         0x00000400         rw !x
*default*        0x00000000         0xffffffff

Linker script and memory map

Address of section .data set to 0x800100
LOAD C:/Program Files (x86)/Atmel/Studio/7.0/Packs/atmel/ATmega_DFP/1.2.209/gcc/dev/atmega328p/avr5/crtatmega328p.o
LOAD adc.o
LOAD analog_to_lux.o
LOAD keyboard.o
LOAD LiquidCrystal.o
LOAD main.o
START GROUP
LOAD c:/program files (x86)/atmel/studio/7.0/toolchain/avr8/avr8-gnu-toolchain/bin/../lib/gcc/avr/5.4.0/../../../../avr/lib/avr5\libm.a
LOAD ../lib\libcoreArduinoUno161.a
END GROUP
LOAD c:/program files (x86)/atmel/studio/7.0/toolchain/avr8/avr8-gnu-toolchain/bin/../lib/gcc/avr/5.4.0/avr5\libgcc.a
LOAD c:/program files (x86)/atmel/studio/7.0/toolchain/avr8/avr8-gnu-toolchain/bin/../lib/gcc/avr/5.4.0/../../../../avr/lib/avr5\libm.a
START GROUP
LOAD c:/program files (x86)/atmel/studio/7.0/toolchain/avr8/avr8-gnu-toolchain/bin/../lib/gcc/avr/5.4.0/avr5\libgcc.a
LOAD c:/program files (x86)/atmel/studio/7.0/toolchain/avr8/avr8-gnu-toolchain/bin/../lib/gcc/avr/5.4.0/../../../../avr/lib/avr5\libm.a
LOAD c:/program files (x86)/atmel/studio/7.0/toolchain/avr8/avr8-gnu-toolchain/bin/../lib/gcc/avr/5.4.0/../../../../avr/lib/avr5\libc.a
LOAD C:/Program Files (x86)/Atmel/Studio/7.0/Packs/atmel/ATmega_DFP/1.2.209/gcc/dev/atmega328p/avr5\libatmega328p.a
END GROUP
                0x00020000                __TEXT_REGION_LENGTH__ = DEFINED (__TEXT_REGION_LENGTH__)?__TEXT_REGION_LENGTH__:0x20000
                0x0000ffa0                __DATA_REGION_LENGTH__ = DEFINED (__DATA_REGION_LENGTH__)?__DATA_REGION_LENGTH__:0xffa0
                0x00010000                __EEPROM_REGION_LENGTH__ = DEFINED (__EEPROM_REGION_LENGTH__)?__EEPROM_REGION_LENGTH__:0x10000
                [0x00000003]                __FUSE_REGION_LENGTH__ = DEFINED (__FUSE_REGION_LENGTH__)?__FUSE_REGION_LENGTH__:0x400
                0x00000400                __LOCK_REGION_LENGTH__ = DEFINED (__LOCK_REGION_LENGTH__)?__LOCK_REGION_LENGTH__:0x400
                0x00000400                __SIGNATURE_REGION_LENGTH__ = DEFINED (__SIGNATURE_REGION_LENGTH__)?__SIGNATURE_REGION_LENGTH__:0x400
                0x00000400                __USER_SIGNATURE_REGION_LENGTH__ = DEFINED (__USER_SIGNATURE_REGION_LENGTH__)?__USER_SIGNATURE_REGION_LENGTH__:0x400

.hash
 *(.hash)

.dynsym
 *(.dynsym)

.dynstr
 *(.dynstr)

.gnu.version
 *(.gnu.version)

.gnu.version_d
 *(.gnu.version_d)

.gnu.version_r
 *(.gnu.version_r)

.rel.init
 *(.rel.init)

.rela.init
 *(.rela.init)

.rel.text
 *(.rel.text)
 *(.rel.text.*)
 *(.rel.gnu.linkonce.t*)

.rela.text
 *(.rela.text)
 *(.rela.text.*)
 *(.rela.gnu.linkonce.t*)

.rel.fini
 *(.rel.fini)

.rela.fini
 *(.rela.fini)

.rel.rodata
 *(.rel.rodata)
 *(.rel.rodata.*)
 *(.rel.gnu.linkonce.r*)

.rela.rodata
 *(.rela.rodata)
 *(.rela.rodata.*)
 *(.rela.gnu.linkonce.r*)

.rel.data
 *(.rel.data)
 *(.rel.data.*)
 *(.rel.gnu.linkonce.d*)

.rela.data
 *(.rela.data)
 *(.rela.data.*)
 *(.rela.gnu.linkonce.d*)

.rel.ctors
 *(.rel.ctors)

.rela.ctors
 *(.rela.ctors)

.rel.dtors
 *(.rel.dtors)

.rela.dtors
 *(.rela.dtors)

.rel.got
 *(.rel.got)

.rela.got
 *(.rela.got)

.rel.bss
 *(.rel.bss)

.rela.bss
 *(.rela.bss)

.rel.plt
 *(.rel.plt)

.rela.plt
 *(.rela.plt)

.text           0x00000000     0x2744
 *(.vectors)
 .vectors       0x00000000       0x68 C:/Program Files (x86)/Atmel/Studio/7.0/Packs/atmel/ATmega_DFP/1.2.209/gcc/dev/atmega328p/avr5/crtatmega328p.o
                0x00000000                __vector_default
                0x00000000                __vectors
 *(.vectors)
 *(.progmem.gcc*)
                0x00000068                . = ALIGN (0x2)
                0x00000068                __trampolines_start = .
 *(.trampolines)
 .trampolines   0x00000068        0x0 linker stubs
 *(.trampolines*)
                0x00000068                __trampolines_end = .
 *libprintf_flt.a:*(.progmem.data)
 *libc.a:*(.progmem.data)
 *(.progmem*)
 .progmem.data.digital_pin_to_timer_PGM
                0x00000068       0x14 ../lib\libcoreArduinoUno161.a(wiring_digital.c.o)
                0x00000068                digital_pin_to_timer_PGM
 .progmem.data.digital_pin_to_bit_mask_PGM
                0x0000007c       0x14 ../lib\libcoreArduinoUno161.a(wiring_digital.c.o)
                0x0000007c                digital_pin_to_bit_mask_PGM
 .progmem.data.digital_pin_to_port_PGM
                0x00000090       0x14 ../lib\libcoreArduinoUno161.a(wiring_digital.c.o)
                0x00000090                digital_pin_to_port_PGM
 .progmem.data.port_to_output_PGM
                0x000000a4        0xa ../lib\libcoreArduinoUno161.a(wiring_digital.c.o)
                0x000000a4                port_to_output_PGM
 .progmem.data.port_to_mode_PGM
                0x000000ae        0xa ../lib\libcoreArduinoUno161.a(wiring_digital.c.o)
                0x000000ae                port_to_mode_PGM
                0x000000b8                . = ALIGN (0x2)
 *(.jumptables)
 *(.jumptables*)
 *(.lowtext)
 *(.lowtext*)
                0x000000b8                __ctors_start = .
 *(.ctors)
 .ctors         0x000000b8        0x2 main.o
                0x000000ba                __ctors_end = .
                0x000000ba                __dtors_start = .
 *(.dtors)
                0x000000ba                __dtors_end = .
 SORT(*)(.ctors)
 SORT(*)(.dtors)
 *(.init0)
 .init0         0x000000ba        0x0 C:/Program Files (x86)/Atmel/Studio/7.0/Packs/atmel/ATmega_DFP/1.2.209/gcc/dev/atmega328p/avr5/crtatmega328p.o
                0x000000ba                __init
 *(.init0)
 *(.init1)
 *(.init1)
 *(.init2)
 .init2         0x000000ba        0xc C:/Program Files (x86)/Atmel/Studio/7.0/Packs/atmel/ATmega_DFP/1.2.209/gcc/dev/atmega328p/avr5/crtatmega328p.o
 *(.init2)
 *(.init3)
 *(.init3)
 *(.init4)
 .init4         0x000000c6       0x16 c:/program files (x86)/atmel/studio/7.0/toolchain/avr8/avr8-gnu-toolchain/bin/../lib/gcc/avr/5.4.0/avr5\libgcc.a(_copy_data.o)
                0x000000c6                __do_copy_data
 .init4         0x000000dc       0x10 c:/program files (x86)/atmel/studio/7.0/toolchain/avr8/avr8-gnu-toolchain/bin/../lib/gcc/avr/5.4.0/avr5\libgcc.a(_clear_bss.o)
                0x000000dc                __do_clear_bss
 *(.init4)
 *(.init5)
 *(.init5)
 *(.init6)
 .init6         0x000000ec       0x16 c:/program files (x86)/atmel/studio/7.0/toolchain/avr8/avr8-gnu-toolchain/bin/../lib/gcc/avr/5.4.0/avr5\libgcc.a(_ctors.o)
                0x000000ec                __do_global_ctors
 *(.init6)
 *(.init7)
 *(.init7)
 *(.init8)
 *(.init8)
 *(.init9)
 .init9         0x00000102        0x8 C:/Program Files (x86)/Atmel/Studio/7.0/Packs/atmel/ATmega_DFP/1.2.209/gcc/dev/atmega328p/avr5/crtatmega328p.o
 *(.init9)
 *(.text)
 .text          0x0000010a        0x4 C:/Program Files (x86)/Atmel/Studio/7.0/Packs/atmel/ATmega_DFP/1.2.209/gcc/dev/atmega328p/avr5/crtatmega328p.o
                0x0000010a                __vector_22
                0x0000010a                __vector_1
                0x0000010a                __vector_24
                0x0000010a                __vector_12
                0x0000010a                __bad_interrupt
                0x0000010a                __vector_6
                0x0000010a                __vector_3
                0x0000010a                __vector_23
                0x0000010a                __vector_25
                0x0000010a                __vector_11
                0x0000010a                __vector_13
                0x0000010a                __vector_17
                0x0000010a                __vector_19
                0x0000010a                __vector_5
                0x0000010a                __vector_9
                0x0000010a                __vector_2
                0x0000010a                __vector_15
                0x0000010a                __vector_8
                0x0000010a                __vector_14
                0x0000010a                __vector_10
                0x0000010a                __vector_18
                0x0000010a                __vector_20
                0x0000010e                . = ALIGN (0x2)
 *(.text.*)
 .text._Z14adc_add_configP7adc_cfg
                0x0000010e       0x30 adc.o
                0x0000010e                _Z14adc_add_configP7adc_cfg
 .text._Z8adc_initP7adc_cfg
                0x0000013e       0x7c adc.o
                0x0000013e                _Z8adc_initP7adc_cfg
 .text._Z11nextChanneli
                0x000001ba       0x22 adc.o
                0x000001ba                _Z11nextChanneli
 .text._Z11prevChanneli
                0x000001dc       0x38 adc.o
                0x000001dc                _Z11prevChanneli
 .text.__vector_21
                0x00000214       0x8a adc.o
                0x00000214                __vector_21
 .text._Z8adc_loopv
                0x0000029e       0x64 adc.o
                0x0000029e                _Z8adc_loopv
 .text._Z13analog_to_luxi
                0x00000302      0x28e analog_to_lux.o
                0x00000302                _Z13analog_to_luxi
 .text._Z17keyboard_callbacki
                0x00000590        0xa keyboard.o
                0x00000590                _Z17keyboard_callbacki
 .text.__vector_4
                0x0000059a      0x114 keyboard.o
                0x0000059a                __vector_4
 .text._Z7get_keyv
                0x000006ae       0x42 keyboard.o
                0x000006ae                _Z7get_keyv
 .text._Z13keyboard_initv
                0x000006f0       0x40 keyboard.o
                0x000006f0                _Z13keyboard_initv
 .text._Z13keyboard_loopv
                0x00000730      0x1d6 keyboard.o
                0x00000730                _Z13keyboard_loopv
 .text._Z17key_down_callbackPFvvEi
                0x00000906       0x10 keyboard.o
                0x00000906                _Z17key_down_callbackPFvvEi
 .text._Z15key_up_callbackPFvvEi
                0x00000916       0x10 keyboard.o
                0x00000916                _Z15key_up_callbackPFvvEi
 .text._ZN5Print17availableForWriteEv
                0x00000926        0x6 LiquidCrystal.o
                0x00000926                _ZN5Print17availableForWriteEv
 .text._ZN5Print5flushEv
                0x0000092c        0x2 LiquidCrystal.o
                0x0000092c                _ZN5Print5flushEv
 .text._ZN13LiquidCrystal11pulseEnableEv
                0x0000092e       0x3a LiquidCrystal.o
                0x0000092e                _ZN13LiquidCrystal11pulseEnableEv
 .text._ZN13LiquidCrystal10write4bitsEh
                0x00000968       0x5a LiquidCrystal.o
                0x00000968                _ZN13LiquidCrystal10write4bitsEh
 .text._ZN13LiquidCrystal10write8bitsEh
                0x000009c2       0x5a LiquidCrystal.o
                0x000009c2                _ZN13LiquidCrystal10write8bitsEh
 .text._ZN13LiquidCrystal4sendEhh
                0x00000a1c       0x52 LiquidCrystal.o
                0x00000a1c                _ZN13LiquidCrystal4sendEhh
 .text._ZN13LiquidCrystal7commandEh
                0x00000a6e        0x6 LiquidCrystal.o
                0x00000a6e                _ZN13LiquidCrystal7commandEh
 .text._ZN13LiquidCrystal5clearEv
                0x00000a74        0xe LiquidCrystal.o
                0x00000a74                _ZN13LiquidCrystal5clearEv
 .text._ZN13LiquidCrystal9setCursorEhh
                0x00000a82       0x26 LiquidCrystal.o
                0x00000a82                _ZN13LiquidCrystal9setCursorEhh
 .text._ZN13LiquidCrystal7displayEv
                0x00000aa8       0x10 LiquidCrystal.o
                0x00000aa8                _ZN13LiquidCrystal7displayEv
 .text._ZN13LiquidCrystal5beginEhhh
                0x00000ab8      0x14a LiquidCrystal.o
                0x00000ab8                _ZN13LiquidCrystal5beginEhhh
 .text._ZN13LiquidCrystalC2Ehhhhhh
                0x00000c02       0x40 LiquidCrystal.o
                0x00000c02                _ZN13LiquidCrystalC1Ehhhhhh
                0x00000c02                _ZN13LiquidCrystalC2Ehhhhhh
 .text._ZN13LiquidCrystal5writeEh
                0x00000c42        0xc LiquidCrystal.o
                0x00000c42                _ZN13LiquidCrystal5writeEh
 .text._Z8callbacki
                0x00000c4e        0xa main.o
                0x00000c4e                _Z8callbacki
 .text._Z13dummyFunctionv
                0x00000c58        0x2 main.o
                0x00000c58                _Z13dummyFunctionv
 .text._Z14onKeyDown_Leftv
                0x00000c5a       0x2a main.o
                0x00000c5a                _Z14onKeyDown_Leftv
 .text._Z15onKeyDown_Rightv
                0x00000c84       0x2c main.o
                0x00000c84                _Z15onKeyDown_Rightv
 .text._Z12onKeyDown_Upv
                0x00000cb0       0x4c main.o
                0x00000cb0                _Z12onKeyDown_Upv
 .text._Z14onKeyDown_Downv
                0x00000cfc       0x4a main.o
                0x00000cfc                _Z14onKeyDown_Downv
 .text._Z10get_samplev
                0x00000d46       0x2e main.o
                0x00000d46                _Z10get_samplev
 .text._Z10add_samplev
                0x00000d74       0xce main.o
                0x00000d74                _Z10add_samplev
 .text._Z5cleari
                0x00000e42       0x18 main.o
                0x00000e42                _Z5cleari
 .text._Z14update_avg_luxv
                0x00000e5a       0x90 main.o
                0x00000e5a                _Z14update_avg_luxv
 .text._Z7display6StringS_
                0x00000eea       0x50 main.o
                0x00000eea                _Z7display6StringS_
 .text._Z12onKeyDown_A2v
                0x00000f3a       0xd8 main.o
                0x00000f3a                _Z12onKeyDown_A2v
 .text._Z11displayModev
                0x00001012      0x1ea main.o
                0x00001012                _Z11displayModev
 .text.setup    0x000011fc      0x1ea main.o
                0x000011fc                setup
 .text.loop     0x000013e6       0x26 main.o
                0x000013e6                loop
 .text.__vector_7
                0x0000140c       0xce main.o
                0x0000140c                __vector_7
 .text.startup._GLOBAL__sub_I_first_round_flag
                0x000014da       0x26 main.o
 .text.avr-libc.fplib
                0x00001500        0xe c:/program files (x86)/atmel/studio/7.0/toolchain/avr8/avr8-gnu-toolchain/bin/../lib/gcc/avr/5.4.0/../../../../avr/lib/avr5\libm.a(addsf3.o)
                0x00001500                __subsf3
                0x00001502                __addsf3
 .text.avr-libc.fplib
                0x0000150e       0xcc c:/program files (x86)/atmel/studio/7.0/toolchain/avr8/avr8-gnu-toolchain/bin/../lib/gcc/avr/5.4.0/../../../../avr/lib/avr5\libm.a(addsf3x.o)
                0x00001530                __addsf3x
 .text.avr-libc.fplib
                0x000015da        0xa c:/program files (x86)/atmel/studio/7.0/toolchain/avr8/avr8-gnu-toolchain/bin/../lib/gcc/avr/5.4.0/../../../../avr/lib/avr5\libm.a(cmpsf2.o)
                0x000015da                __nesf2
                0x000015da                __eqsf2
                0x000015da                __cmpsf2
                0x000015da                __ltsf2
                0x000015da                __lesf2
 .text.avr-libc.fplib
                0x000015e4        0x8 c:/program files (x86)/atmel/studio/7.0/toolchain/avr8/avr8-gnu-toolchain/bin/../lib/gcc/avr/5.4.0/../../../../avr/lib/avr5\libm.a(divsf3.o)
                0x000015e4                __divsf3
 .text.avr-libc.fplib
                0x000015ec       0xdc c:/program files (x86)/atmel/studio/7.0/toolchain/avr8/avr8-gnu-toolchain/bin/../lib/gcc/avr/5.4.0/../../../../avr/lib/avr5\libm.a(divsf3x.o)
                0x0000160c                __divsf3x
                0x00001612                __divsf3_pse
 .text.avr-libc.fplib
                0x000016c8       0x7a c:/program files (x86)/atmel/studio/7.0/toolchain/avr8/avr8-gnu-toolchain/bin/../lib/gcc/avr/5.4.0/../../../../avr/lib/avr5\libm.a(floatsisf.o)
                0x000016c8                __floatunsisf
                0x000016cc                __floatsisf
 .text.avr-libc.fplib
                0x00001742       0x48 c:/program files (x86)/atmel/studio/7.0/toolchain/avr8/avr8-gnu-toolchain/bin/../lib/gcc/avr/5.4.0/../../../../avr/lib/avr5\libm.a(fp_cmp.o)
                0x00001742                __fp_cmp
 .text.avr-libc.fplib
                0x0000178a        0xc c:/program files (x86)/atmel/studio/7.0/toolchain/avr8/avr8-gnu-toolchain/bin/../lib/gcc/avr/5.4.0/../../../../avr/lib/avr5\libm.a(fp_inf.o)
                0x0000178a                __fp_inf
 .text.avr-libc.fplib
                0x00001796        0x6 c:/program files (x86)/atmel/studio/7.0/toolchain/avr8/avr8-gnu-toolchain/bin/../lib/gcc/avr/5.4.0/../../../../avr/lib/avr5\libm.a(fp_nan.o)
                0x00001796                __fp_nan
 .text.avr-libc.fplib
                0x0000179c        0xe c:/program files (x86)/atmel/studio/7.0/toolchain/avr8/avr8-gnu-toolchain/bin/../lib/gcc/avr/5.4.0/../../../../avr/lib/avr5\libm.a(fp_pscA.o)
                0x0000179c                __fp_pscA
 .text.avr-libc.fplib
                0x000017aa        0xe c:/program files (x86)/atmel/studio/7.0/toolchain/avr8/avr8-gnu-toolchain/bin/../lib/gcc/avr/5.4.0/../../../../avr/lib/avr5\libm.a(fp_pscB.o)
                0x000017aa                __fp_pscB
 .text.avr-libc.fplib
                0x000017b8       0x22 c:/program files (x86)/atmel/studio/7.0/toolchain/avr8/avr8-gnu-toolchain/bin/../lib/gcc/avr/5.4.0/../../../../avr/lib/avr5\libm.a(fp_round.o)
                0x000017b8                __fp_round
 .text.avr-libc.fplib
                0x000017da       0x44 c:/program files (x86)/atmel/studio/7.0/toolchain/avr8/avr8-gnu-toolchain/bin/../lib/gcc/avr/5.4.0/../../../../avr/lib/avr5\libm.a(fp_split3.o)
                0x000017da                __fp_split3
                0x000017ea                __fp_splitA
 .text.avr-libc.fplib
                0x0000181e        0xe c:/program files (x86)/atmel/studio/7.0/toolchain/avr8/avr8-gnu-toolchain/bin/../lib/gcc/avr/5.4.0/../../../../avr/lib/avr5\libm.a(fp_zero.o)
                0x0000181e                __fp_zero
                0x00001820                __fp_szero
 .text.avr-libc.fplib
                0x0000182c        0xa c:/program files (x86)/atmel/studio/7.0/toolchain/avr8/avr8-gnu-toolchain/bin/../lib/gcc/avr/5.4.0/../../../../avr/lib/avr5\libm.a(gesf2.o)
                0x0000182c                __gesf2
                0x0000182c                __gtsf2
 .text.avr-libc.fplib
                0x00001836        0x8 c:/program files (x86)/atmel/studio/7.0/toolchain/avr8/avr8-gnu-toolchain/bin/../lib/gcc/avr/5.4.0/../../../../avr/lib/avr5\libm.a(mulsf3.o)
                0x00001836                __mulsf3
 .text.avr-libc.fplib
                0x0000183e       0xd2 c:/program files (x86)/atmel/studio/7.0/toolchain/avr8/avr8-gnu-toolchain/bin/../lib/gcc/avr/5.4.0/../../../../avr/lib/avr5\libm.a(mulsf3x.o)
                0x0000185c                __mulsf3x
                0x00001862                __mulsf3_pse
 .text.__vector_16
                0x00001910       0x94 ../lib\libcoreArduinoUno161.a(wiring.c.o)
                0x00001910                __vector_16
 .text.micros   0x000019a4       0x46 ../lib\libcoreArduinoUno161.a(wiring.c.o)
                0x000019a4                micros
 .text.delay    0x000019ea       0x50 ../lib\libcoreArduinoUno161.a(wiring.c.o)
                0x000019ea                delay
 .text.delayMicroseconds
                0x00001a3a       0x14 ../lib\libcoreArduinoUno161.a(wiring.c.o)
                0x00001a3a                delayMicroseconds
 .text.init     0x00001a4e       0x76 ../lib\libcoreArduinoUno161.a(wiring.c.o)
                0x00001a4e                init
 .text.analogWrite
                0x00001ac4       0xbe ../lib\libcoreArduinoUno161.a(wiring_analog.c.o)
                0x00001ac4                analogWrite
 .text.turnOffPWM
                0x00001b82       0x52 ../lib\libcoreArduinoUno161.a(wiring_digital.c.o)
 .text.pinMode  0x00001bd4       0x72 ../lib\libcoreArduinoUno161.a(wiring_digital.c.o)
                0x00001bd4                pinMode
 .text.digitalWrite
                0x00001c46       0x6c ../lib\libcoreArduinoUno161.a(wiring_digital.c.o)
                0x00001c46                digitalWrite
 .text.initVariant
                0x00001cb2        0x2 ../lib\libcoreArduinoUno161.a(main.cpp.o)
                0x00001cb2                initVariant
 .text.startup.main
                0x00001cb4       0x1e ../lib\libcoreArduinoUno161.a(main.cpp.o)
                0x00001cb4                main
 .text._ZN5Print5writeEPKhj
                0x00001cd2       0x50 ../lib\libcoreArduinoUno161.a(Print.cpp.o)
                0x00001cd2                _ZN5Print5writeEPKhj
 .text._ZN5Print5writeEPKc
                0x00001d22       0x2c ../lib\libcoreArduinoUno161.a(Print.cpp.o)
                0x00001d22                _ZN5Print5writeEPKc
 .text._ZN5Print5printERK6String
                0x00001d4e       0x1c ../lib\libcoreArduinoUno161.a(Print.cpp.o)
                0x00001d4e                _ZN5Print5printERK6String
 .text._ZN5Print5printEPKc
                0x00001d6a        0x4 ../lib\libcoreArduinoUno161.a(Print.cpp.o)
                0x00001d6a                _ZN5Print5printEPKc
 .text._ZN5Print5printEc
                0x00001d6e        0xe ../lib\libcoreArduinoUno161.a(Print.cpp.o)
                0x00001d6e                _ZN5Print5printEc
 .text._ZN5Print11printNumberEmh
                0x00001d7c       0xb2 ../lib\libcoreArduinoUno161.a(Print.cpp.o)
                0x00001d7c                _ZN5Print11printNumberEmh
 .text._ZN5Print5printEli
                0x00001e2e       0x94 ../lib\libcoreArduinoUno161.a(Print.cpp.o)
                0x00001e2e                _ZN5Print5printEli
 .text._ZN5Print5printEmi
                0x00001ec2       0x1a ../lib\libcoreArduinoUno161.a(Print.cpp.o)
                0x00001ec2                _ZN5Print5printEmi
 .text._ZN5Print5printEhi
                0x00001edc        0xe ../lib\libcoreArduinoUno161.a(Print.cpp.o)
                0x00001edc                _ZN5Print5printEhi
 .text._ZN5Print10printFloatEdh
                0x00001eea      0x1d6 ../lib\libcoreArduinoUno161.a(Print.cpp.o)
                0x00001eea                _ZN5Print10printFloatEdh
 .text._ZN5Print5printEdi
                0x000020c0        0x4 ../lib\libcoreArduinoUno161.a(Print.cpp.o)
                0x000020c0                _ZN5Print5printEdi
 .text._ZN6StringD2Ev
                0x000020c4        0xa ../lib\libcoreArduinoUno161.a(WString.cpp.o)
                0x000020c4                _ZN6StringD2Ev
                0x000020c4                _ZN6StringD1Ev
 .text._ZN6String10invalidateEv
                0x000020ce       0x24 ../lib\libcoreArduinoUno161.a(WString.cpp.o)
                0x000020ce                _ZN6String10invalidateEv
 .text._ZN6String12changeBufferEj
                0x000020f2       0x34 ../lib\libcoreArduinoUno161.a(WString.cpp.o)
                0x000020f2                _ZN6String12changeBufferEj
 .text._ZN6String7reserveEj
                0x00002126       0x38 ../lib\libcoreArduinoUno161.a(WString.cpp.o)
                0x00002126                _ZN6String7reserveEj
 .text._ZN6String4copyEPKcj
                0x0000215e       0x42 ../lib\libcoreArduinoUno161.a(WString.cpp.o)
                0x0000215e                _ZN6String4copyEPKcj
 .text._ZN6StringC2EPKc
                0x000021a0       0x2c ../lib\libcoreArduinoUno161.a(WString.cpp.o)
                0x000021a0                _ZN6StringC2EPKc
                0x000021a0                _ZN6StringC1EPKc
 .text.__empty  0x000021cc        0x2 ../lib\libcoreArduinoUno161.a(hooks.c.o)
                0x000021cc                yield
 .text.avr-libc.fplib
                0x000021ce        0xe c:/program files (x86)/atmel/studio/7.0/toolchain/avr8/avr8-gnu-toolchain/bin/../lib/gcc/avr/5.4.0/../../../../avr/lib/avr5\libm.a(fixsfsi.o)
                0x000021ce                __fixsfsi
 .text.avr-libc.fplib
                0x000021dc       0x5e c:/program files (x86)/atmel/studio/7.0/toolchain/avr8/avr8-gnu-toolchain/bin/../lib/gcc/avr/5.4.0/../../../../avr/lib/avr5\libm.a(fixunssfsi.o)
                0x000021dc                __fixunssfsi
 .text.avr-libc.fplib
                0x0000223a        0xa c:/program files (x86)/atmel/studio/7.0/toolchain/avr8/avr8-gnu-toolchain/bin/../lib/gcc/avr/5.4.0/../../../../avr/lib/avr5\libm.a(unordsf2.o)
                0x0000223a                __unordsf2
 .text.libgcc.div
                0x00002244       0x28 c:/program files (x86)/atmel/studio/7.0/toolchain/avr8/avr8-gnu-toolchain/bin/../lib/gcc/avr/5.4.0/avr5\libgcc.a(_divmodhi4.o)
                0x00002244                _div
                0x00002244                __divmodhi4
 .text.libgcc.div
                0x0000226c       0x44 c:/program files (x86)/atmel/studio/7.0/toolchain/avr8/avr8-gnu-toolchain/bin/../lib/gcc/avr/5.4.0/avr5\libgcc.a(_udivmodsi4.o)
                0x0000226c                __udivmodsi4
 .text.libgcc.div
                0x000022b0       0x28 c:/program files (x86)/atmel/studio/7.0/toolchain/avr8/avr8-gnu-toolchain/bin/../lib/gcc/avr/5.4.0/avr5\libgcc.a(_udivmodhi4.o)
                0x000022b0                __udivmodhi4
 .text.libgcc   0x000022d8        0xc c:/program files (x86)/atmel/studio/7.0/toolchain/avr8/avr8-gnu-toolchain/bin/../lib/gcc/avr/5.4.0/avr5\libgcc.a(_tablejump2.o)
                0x000022d8                __tablejump2__
 .text.avr-libc
                0x000022e4      0x242 c:/program files (x86)/atmel/studio/7.0/toolchain/avr8/avr8-gnu-toolchain/bin/../lib/gcc/avr/5.4.0/../../../../avr/lib/avr5\libc.a(malloc.o)
                0x000022e4                malloc
                0x00002414                free
 .text.avr-libc
                0x00002526      0x18c c:/program files (x86)/atmel/studio/7.0/toolchain/avr8/avr8-gnu-toolchain/bin/../lib/gcc/avr/5.4.0/../../../../avr/lib/avr5\libc.a(realloc.o)
                0x00002526                realloc
 .text.avr-libc
                0x000026b2       0x12 c:/program files (x86)/atmel/studio/7.0/toolchain/avr8/avr8-gnu-toolchain/bin/../lib/gcc/avr/5.4.0/../../../../avr/lib/avr5\libc.a(memcpy.o)
                0x000026b2                memcpy
 .text.avr-libc
                0x000026c4        0xe c:/program files (x86)/atmel/studio/7.0/toolchain/avr8/avr8-gnu-toolchain/bin/../lib/gcc/avr/5.4.0/../../../../avr/lib/avr5\libc.a(strcpy.o)
                0x000026c4                strcpy
 .text.libgcc.prologue
                0x000026d2       0x38 c:/program files (x86)/atmel/studio/7.0/toolchain/avr8/avr8-gnu-toolchain/bin/../lib/gcc/avr/5.4.0/avr5\libgcc.a(_prologue.o)
                0x000026d2                __prologue_saves__
 .text.libgcc.prologue
                0x0000270a       0x36 c:/program files (x86)/atmel/studio/7.0/toolchain/avr8/avr8-gnu-toolchain/bin/../lib/gcc/avr/5.4.0/avr5\libgcc.a(_epilogue.o)
                0x0000270a                __epilogue_restores__
                0x00002740                . = ALIGN (0x2)
 *(.fini9)
 .fini9         0x00002740        0x0 c:/program files (x86)/atmel/studio/7.0/toolchain/avr8/avr8-gnu-toolchain/bin/../lib/gcc/avr/5.4.0/avr5\libgcc.a(_exit.o)
                0x00002740                _exit
                0x00002740                exit
 *(.fini9)
 *(.fini8)
 *(.fini8)
 *(.fini7)
 *(.fini7)
 *(.fini6)
 *(.fini6)
 *(.fini5)
 *(.fini5)
 *(.fini4)
 *(.fini4)
 *(.fini3)
 *(.fini3)
 *(.fini2)
 *(.fini2)
 *(.fini1)
 *(.fini1)
 *(.fini0)
 .fini0         0x00002740        0x4 c:/program files (x86)/atmel/studio/7.0/toolchain/avr8/avr8-gnu-toolchain/bin/../lib/gcc/avr/5.4.0/avr5\libgcc.a(_exit.o)
 *(.fini0)
                0x00002744                _etext = .

.data           0x00800100       0xe2 load address 0x00002744
                0x00800100                PROVIDE (__data_start, .)
 *(.data)
 .data          0x00800100        0x6 c:/program files (x86)/atmel/studio/7.0/toolchain/avr8/avr8-gnu-toolchain/bin/../lib/gcc/avr/5.4.0/../../../../avr/lib/avr5\libc.a(malloc.o)
                0x00800100                __malloc_heap_end
                0x00800102                __malloc_heap_start
                0x00800104                __malloc_margin
 *(.data*)
 .data.cfg      0x00800106        0x4 keyboard.o
                0x00800106                cfg
 .data.portbhistory
                0x0080010a        0x1 keyboard.o
                0x0080010a                portbhistory
 .data.NUM_KEYS
                0x0080010b        0x2 keyboard.o
                0x0080010b                NUM_KEYS
 .data.key_val_to_tecla
                0x0080010d        0xa keyboard.o
                0x0080010d                key_val_to_tecla
 .data.adc_key_val
                0x00800117        0xa keyboard.o
                0x00800117                adc_key_val
 .data.adc_cfg  0x00800121        0x4 main.o
                0x00800121                adc_cfg
 .data.back_light_actual
                0x00800125        0x2 main.o
                0x00800125                back_light_actual
 .data.back_light_porcent
                0x00800127        0x5 main.o
                0x00800127                back_light_porcent
 .data.back_light
                0x0080012c        0x5 main.o
                0x0080012c                back_light
 .data.index    0x00800131        0x2 main.o
                0x00800131                index
 .data.avg_lux  0x00800133        0x4 main.o
                0x00800133                avg_lux
 .data.min_lux  0x00800137        0x4 main.o
                0x00800137                min_lux
 .data.max_lux  0x0080013b        0x4 main.o
                0x0080013b                max_lux
 *(.gnu.linkonce.d*)
 *(.rodata)
 *(.rodata*)
 .rodata._ZTV13LiquidCrystal
                0x0080013f        0xc LiquidCrystal.o
                0x0080013f                _ZTV13LiquidCrystal
 .rodata.str1.1
                0x0080014b       0x89 main.o
                                 0x8a (size before relaxing)
 .rodata.str1.1
                0x008001d4        0xe ../lib\libcoreArduinoUno161.a(Print.cpp.o)
 *(.gnu.linkonce.r*)
                0x008001e2                . = ALIGN (0x2)
                0x008001e2                _edata = .
                0x008001e2                PROVIDE (__data_end, .)

.bss            0x008001e2      0x3b1
                0x008001e2                PROVIDE (__bss_start, .)
 *(.bss)
 *(.bss*)
 .bss.currentChannel
                0x008001e2        0x2 adc.o
                0x008001e2                currentChannel
 .bss.canales   0x008001e4        0x6 adc.o
                0x008001e4                canales
 .bss.config    0x008001ea        0xc adc.o
                0x008001ea                config
 .bss.adcDone   0x008001f6        0x1 adc.o
                0x008001f6                adcDone
 .bss.adcReading
                0x008001f7        0xc adc.o
                0x008001f7                adcReading
 .bss.lastInput
                0x00800203        0x2 keyboard.o
                0x00800203                lastInput
 .bss.key_down_array
                0x00800205        0x9 keyboard.o
                0x00800205                key_down_array
 .bss.key_up_array
                0x0080020e        0x9 keyboard.o
                0x0080020e                key_up_array
 .bss.onKeyDown
                0x00800217       0x12 keyboard.o
                0x00800217                onKeyDown
 .bss.onKeyUp   0x00800229       0x12 keyboard.o
                0x00800229                onKeyUp
 .bss.new_lcd_key
                0x0080023b        0x2 keyboard.o
                0x0080023b                new_lcd_key
 .bss.prev_lcd_key
                0x0080023d        0x2 keyboard.o
                0x0080023d                prev_lcd_key
 .bss.reset_count
                0x0080023f        0x2 main.o
                0x0080023f                reset_count
 .bss.disp_flag
                0x00800241        0x1 main.o
                0x00800241                disp_flag
 .bss.add_flag  0x00800242        0x1 main.o
                0x00800242                add_flag
 .bss.disp      0x00800243        0x2 main.o
                0x00800243                disp
 .bss.interrupt_count
                0x00800245        0x2 main.o
                0x00800245                interrupt_count
 .bss.estadoActual
                0x00800247        0x2 main.o
                0x00800247                estadoActual
 .bss.analogread
                0x00800249        0x2 main.o
                0x00800249                analogread
 .bss.count     0x0080024b        0x2 main.o
                0x0080024b                count
 .bss.samples   0x0080024d      0x320 main.o
                0x0080024d                samples
 .bss.lcd       0x0080056d       0x18 main.o
                0x0080056d                lcd
 .bss.first_round_flag
                0x00800585        0x1 main.o
                0x00800585                first_round_flag
 .bss.timer0_fract
                0x00800586        0x1 ../lib\libcoreArduinoUno161.a(wiring.c.o)
 .bss.timer0_millis
                0x00800587        0x4 ../lib\libcoreArduinoUno161.a(wiring.c.o)
                0x00800587                timer0_millis
 .bss.timer0_overflow_count
                0x0080058b        0x4 ../lib\libcoreArduinoUno161.a(wiring.c.o)
                0x0080058b                timer0_overflow_count
 *(COMMON)
 COMMON         0x0080058f        0x4 c:/program files (x86)/atmel/studio/7.0/toolchain/avr8/avr8-gnu-toolchain/bin/../lib/gcc/avr/5.4.0/../../../../avr/lib/avr5\libc.a(malloc.o)
                0x0080058f                __brkval
                0x00800591                __flp
                0x00800593                PROVIDE (__bss_end, .)
                0x00002744                __data_load_start = LOADADDR (.data)
                0x00002826                __data_load_end = (__data_load_start + SIZEOF (.data))

.noinit         0x00800593        0x0
                [!provide]                PROVIDE (__noinit_start, .)
 *(.noinit*)
                [!provide]                PROVIDE (__noinit_end, .)
                0x00800593                _end = .
                0x00800593                PROVIDE (__heap_start, .)

.eeprom         0x00810000        0x0
 *(.eeprom*)
                0x00810000                __eeprom_end = .

.fuse
 *(.fuse)
 *(.lfuse)
 *(.hfuse)
 *(.efuse)

.lock
 *(.lock*)

.signature
 *(.signature*)

.user_signatures
 *(.user_signatures*)

.stab
 *(.stab)

.stabstr
 *(.stabstr)

.stab.excl
 *(.stab.excl)

.stab.exclstr
 *(.stab.exclstr)

.stab.index
 *(.stab.index)

.stab.indexstr
 *(.stab.indexstr)

.comment        0x00000000       0x41
 *(.comment)
 .comment       0x00000000       0x30 adc.o
                                 0x31 (size before relaxing)
 .comment       0x00000030       0x31 analog_to_lux.o
 .comment       0x00000030       0x31 keyboard.o
 .comment       0x00000030       0x31 LiquidCrystal.o
 .comment       0x00000030       0x31 main.o
 .comment       0x00000030       0x11 ../lib\libcoreArduinoUno161.a(wiring.c.o)
                                 0x12 (size before relaxing)
 .comment       0x00000041       0x12 ../lib\libcoreArduinoUno161.a(wiring_analog.c.o)
 .comment       0x00000041       0x12 ../lib\libcoreArduinoUno161.a(wiring_digital.c.o)
 .comment       0x00000041       0x12 ../lib\libcoreArduinoUno161.a(main.cpp.o)
 .comment       0x00000041       0x12 ../lib\libcoreArduinoUno161.a(Print.cpp.o)
 .comment       0x00000041       0x12 ../lib\libcoreArduinoUno161.a(WString.cpp.o)
 .comment       0x00000041       0x12 ../lib\libcoreArduinoUno161.a(hooks.c.o)
 .comment       0x00000041       0x31 c:/program files (x86)/atmel/studio/7.0/toolchain/avr8/avr8-gnu-toolchain/bin/../lib/gcc/avr/5.4.0/../../../../avr/lib/avr5\libc.a(malloc.o)
 .comment       0x00000041       0x31 c:/program files (x86)/atmel/studio/7.0/toolchain/avr8/avr8-gnu-toolchain/bin/../lib/gcc/avr/5.4.0/../../../../avr/lib/avr5\libc.a(realloc.o)

.note.gnu.avr.deviceinfo
                0x00000000       0x40
 .note.gnu.avr.deviceinfo
                0x00000000       0x40 C:/Program Files (x86)/Atmel/Studio/7.0/Packs/atmel/ATmega_DFP/1.2.209/gcc/dev/atmega328p/avr5/crtatmega328p.o

.note.gnu.build-id
 *(.note.gnu.build-id)

.debug
 *(.debug)

.line
 *(.line)

.debug_srcinfo
 *(.debug_srcinfo)

.debug_sfnames
 *(.debug_sfnames)

.debug_aranges  0x00000000      0x700
 *(.debug_aranges)
 .debug_aranges
                0x00000000       0x50 adc.o
 .debug_aranges
                0x00000050       0x20 analog_to_lux.o
 .debug_aranges
                0x00000070       0x50 keyboard.o
 .debug_aranges
                0x000000c0      0x110 LiquidCrystal.o
 .debug_aranges
                0x000001d0       0xa0 main.o
 .debug_aranges
                0x00000270       0x48 ../lib\libcoreArduinoUno161.a(wiring.c.o)
 .debug_aranges
                0x000002b8       0x30 ../lib\libcoreArduinoUno161.a(wiring_analog.c.o)
 .debug_aranges
                0x000002e8       0x38 ../lib\libcoreArduinoUno161.a(wiring_digital.c.o)
 .debug_aranges
                0x00000320       0x30 ../lib\libcoreArduinoUno161.a(main.cpp.o)
 .debug_aranges
                0x00000350       0xf0 ../lib\libcoreArduinoUno161.a(Print.cpp.o)
 .debug_aranges
                0x00000440      0x2a0 ../lib\libcoreArduinoUno161.a(WString.cpp.o)
 .debug_aranges
                0x000006e0       0x20 ../lib\libcoreArduinoUno161.a(hooks.c.o)

.debug_pubnames
 *(.debug_pubnames)

.debug_info     0x00000000     0xbe99
 *(.debug_info .gnu.linkonce.wi.*)
 .debug_info    0x00000000      0x5f4 C:/Program Files (x86)/Atmel/Studio/7.0/Packs/atmel/ATmega_DFP/1.2.209/gcc/dev/atmega328p/avr5/crtatmega328p.o
 .debug_info    0x000005f4      0x4a2 adc.o
 .debug_info    0x00000a96       0x78 analog_to_lux.o
 .debug_info    0x00000b0e      0x50d keyboard.o
 .debug_info    0x0000101b     0x1bab LiquidCrystal.o
 .debug_info    0x00002bc6     0x1fec main.o
 .debug_info    0x00004bb2      0x2c2 ../lib\libcoreArduinoUno161.a(wiring.c.o)
 .debug_info    0x00004e74      0x281 ../lib\libcoreArduinoUno161.a(wiring_analog.c.o)
 .debug_info    0x000050f5      0x5f1 ../lib\libcoreArduinoUno161.a(wiring_digital.c.o)
 .debug_info    0x000056e6      0x1f0 ../lib\libcoreArduinoUno161.a(main.cpp.o)
 .debug_info    0x000058d6     0x2691 ../lib\libcoreArduinoUno161.a(Print.cpp.o)
 .debug_info    0x00007f67     0x3ef8 ../lib\libcoreArduinoUno161.a(WString.cpp.o)
 .debug_info    0x0000be5f       0x3a ../lib\libcoreArduinoUno161.a(hooks.c.o)

.debug_abbrev   0x00000000     0x1fce
 *(.debug_abbrev)
 .debug_abbrev  0x00000000      0x5a2 C:/Program Files (x86)/Atmel/Studio/7.0/Packs/atmel/ATmega_DFP/1.2.209/gcc/dev/atmega328p/avr5/crtatmega328p.o
 .debug_abbrev  0x000005a2      0x241 adc.o
 .debug_abbrev  0x000007e3       0x67 analog_to_lux.o
 .debug_abbrev  0x0000084a      0x202 keyboard.o
 .debug_abbrev  0x00000a4c      0x35e LiquidCrystal.o
 .debug_abbrev  0x00000daa      0x454 main.o
 .debug_abbrev  0x000011fe      0x143 ../lib\libcoreArduinoUno161.a(wiring.c.o)
 .debug_abbrev  0x00001341      0x184 ../lib\libcoreArduinoUno161.a(wiring_analog.c.o)
 .debug_abbrev  0x000014c5      0x162 ../lib\libcoreArduinoUno161.a(wiring_digital.c.o)
 .debug_abbrev  0x00001627       0xd7 ../lib\libcoreArduinoUno161.a(main.cpp.o)
 .debug_abbrev  0x000016fe      0x425 ../lib\libcoreArduinoUno161.a(Print.cpp.o)
 .debug_abbrev  0x00001b23      0x483 ../lib\libcoreArduinoUno161.a(WString.cpp.o)
 .debug_abbrev  0x00001fa6       0x28 ../lib\libcoreArduinoUno161.a(hooks.c.o)

.debug_line     0x00000000     0x2f03
 *(.debug_line .debug_line.* .debug_line_end)
 .debug_line    0x00000000      0x133 C:/Program Files (x86)/Atmel/Studio/7.0/Packs/atmel/ATmega_DFP/1.2.209/gcc/dev/atmega328p/avr5/crtatmega328p.o
 .debug_line    0x00000133      0x2df adc.o
 .debug_line    0x00000412       0xc6 analog_to_lux.o
 .debug_line    0x000004d8      0x4a3 keyboard.o
 .debug_line    0x0000097b      0x946 LiquidCrystal.o
 .debug_line    0x000012c1      0x6bc main.o
 .debug_line    0x0000197d      0x1d3 ../lib\libcoreArduinoUno161.a(wiring.c.o)
 .debug_line    0x00001b50      0x19c ../lib\libcoreArduinoUno161.a(wiring_analog.c.o)
 .debug_line    0x00001cec      0x199 ../lib\libcoreArduinoUno161.a(wiring_digital.c.o)
 .debug_line    0x00001e85      0x16b ../lib\libcoreArduinoUno161.a(main.cpp.o)
 .debug_line    0x00001ff0      0x44b ../lib\libcoreArduinoUno161.a(Print.cpp.o)
 .debug_line    0x0000243b      0xa4e ../lib\libcoreArduinoUno161.a(WString.cpp.o)
 .debug_line    0x00002e89       0x7a ../lib\libcoreArduinoUno161.a(hooks.c.o)

.debug_frame    0x00000000     0x1714
 *(.debug_frame)
 .debug_frame   0x00000000       0xf8 adc.o
 .debug_frame   0x000000f8       0x30 analog_to_lux.o
 .debug_frame   0x00000128       0xd8 keyboard.o
 .debug_frame   0x00000200      0x354 LiquidCrystal.o
 .debug_frame   0x00000554      0x1fc main.o
 .debug_frame   0x00000750       0xbc ../lib\libcoreArduinoUno161.a(wiring.c.o)
 .debug_frame   0x0000080c       0x54 ../lib\libcoreArduinoUno161.a(wiring_analog.c.o)
 .debug_frame   0x00000860       0x88 ../lib\libcoreArduinoUno161.a(wiring_digital.c.o)
 .debug_frame   0x000008e8       0x44 ../lib\libcoreArduinoUno161.a(main.cpp.o)
 .debug_frame   0x0000092c      0x3b8 ../lib\libcoreArduinoUno161.a(Print.cpp.o)
 .debug_frame   0x00000ce4      0xa0c ../lib\libcoreArduinoUno161.a(WString.cpp.o)
 .debug_frame   0x000016f0       0x24 ../lib\libcoreArduinoUno161.a(hooks.c.o)

.debug_str      0x00000000     0x259a
 *(.debug_str)
 .debug_str     0x00000000      0x208 C:/Program Files (x86)/Atmel/Studio/7.0/Packs/atmel/ATmega_DFP/1.2.209/gcc/dev/atmega328p/avr5/crtatmega328p.o
 .debug_str     0x00000208      0x2d9 adc.o
                                0x338 (size before relaxing)
 .debug_str     0x000004e1       0x44 analog_to_lux.o
                                0x17b (size before relaxing)
 .debug_str     0x00000525      0x1a5 keyboard.o
                                0x405 (size before relaxing)
 .debug_str     0x000006ca      0x6ad LiquidCrystal.o
                                0x8d0 (size before relaxing)
 .debug_str     0x00000d77      0xca8 main.o
                               0x10a2 (size before relaxing)
 .debug_str     0x00001a1f       0xfb ../lib\libcoreArduinoUno161.a(wiring.c.o)
                                0x19d (size before relaxing)
 .debug_str     0x00001b1a       0xaf ../lib\libcoreArduinoUno161.a(wiring_analog.c.o)
                                0x1aa (size before relaxing)
 .debug_str     0x00001bc9       0xe0 ../lib\libcoreArduinoUno161.a(wiring_digital.c.o)
                                0x20b (size before relaxing)
 .debug_str     0x00001ca9      0x13e ../lib\libcoreArduinoUno161.a(main.cpp.o)
                                0x1f1 (size before relaxing)
 .debug_str     0x00001de7      0x381 ../lib\libcoreArduinoUno161.a(Print.cpp.o)
                                0xe22 (size before relaxing)
 .debug_str     0x00002168      0x3df ../lib\libcoreArduinoUno161.a(WString.cpp.o)
                                0xdf8 (size before relaxing)
 .debug_str     0x00002547       0x53 ../lib\libcoreArduinoUno161.a(hooks.c.o)
                                 0x9b (size before relaxing)

.debug_loc      0x00000000     0x8a2a
 *(.debug_loc)
 .debug_loc     0x00000000      0x37c adc.o
 .debug_loc     0x0000037c      0x189 analog_to_lux.o
 .debug_loc     0x00000505      0x1b5 keyboard.o
 .debug_loc     0x000006ba     0x1a6e LiquidCrystal.o
 .debug_loc     0x00002128      0x3e2 main.o
 .debug_loc     0x0000250a      0x22b ../lib\libcoreArduinoUno161.a(wiring.c.o)
 .debug_loc     0x00002735      0x127 ../lib\libcoreArduinoUno161.a(wiring_analog.c.o)
 .debug_loc     0x0000285c      0x617 ../lib\libcoreArduinoUno161.a(wiring_digital.c.o)
 .debug_loc     0x00002e73       0x26 ../lib\libcoreArduinoUno161.a(main.cpp.o)
 .debug_loc     0x00002e99     0x1eed ../lib\libcoreArduinoUno161.a(Print.cpp.o)
 .debug_loc     0x00004d86     0x3ca4 ../lib\libcoreArduinoUno161.a(WString.cpp.o)

.debug_macinfo
 *(.debug_macinfo)

.debug_weaknames
 *(.debug_weaknames)

.debug_funcnames
 *(.debug_funcnames)

.debug_typenames
 *(.debug_typenames)

.debug_varnames
 *(.debug_varnames)

.debug_pubtypes
 *(.debug_pubtypes)

.debug_ranges   0x00000000      0x7b0
 *(.debug_ranges)
 .debug_ranges  0x00000000       0x58 adc.o
 .debug_ranges  0x00000058       0x10 analog_to_lux.o
 .debug_ranges  0x00000068       0x40 keyboard.o
 .debug_ranges  0x000000a8      0x178 LiquidCrystal.o
 .debug_ranges  0x00000220       0x90 main.o
 .debug_ranges  0x000002b0       0x38 ../lib\libcoreArduinoUno161.a(wiring.c.o)
 .debug_ranges  0x000002e8       0x20 ../lib\libcoreArduinoUno161.a(wiring_analog.c.o)
 .debug_ranges  0x00000308       0x40 ../lib\libcoreArduinoUno161.a(wiring_digital.c.o)
 .debug_ranges  0x00000348       0x20 ../lib\libcoreArduinoUno161.a(main.cpp.o)
 .debug_ranges  0x00000368      0x140 ../lib\libcoreArduinoUno161.a(Print.cpp.o)
 .debug_ranges  0x000004a8      0x2f8 ../lib\libcoreArduinoUno161.a(WString.cpp.o)
 .debug_ranges  0x000007a0       0x10 ../lib\libcoreArduinoUno161.a(hooks.c.o)

.debug_macro
 *(.debug_macro)
OUTPUT(Actividad1.elf elf32-avr)
LOAD linker stubs
