S00D0000656A325F332E7372656384
S11300000C9434000C9446000C9446000C94460066
S11300100C9446000C9446000C9446000C94460044
S11300200C9446000C9446000C9446000C94460034
S11300300C9446000C9446000C9446000C94460024
S11300400C9446000C9446000C9446000C94460014
S11300500C9446000C9446000C9446000C94460004
S11300600C9446000C94460011241FBECFEFD8E038
S1130070DEBFCDBF21E0A0E0B1E001C01D92A430FD
S1130080B207E1F70E9448000C947E000C94000033
S11300905298259A40E2209100013091010189B1E2
S11300A0847090E090930301809302018217930778
S11300B0B1F32FEF80E792E0215080409040E1F7C8
S11300C000C0000089B1847090E090930301809394
S11300D00201209100013091010182179307D9F2A6
S11300E0892B19F485B1842785B9809102019091F7
S11300F003019093010180930001CDCFF894FFCFC9
S9030000FC
