S0130000456A6572636963696F5F312E73726563F4
S11300000C946C000C9494000C9494000C94940044
S11300100C9494000C9494000C9494000C9494000C
S11300200C9494000C9494000C9494000C949400FC
S11300300C9494000C9494000C9494000C949400EC
S11300400C946E050C9494000C9494000C949400FD
S11300500C9494000C9494000C9494000C949400CC
S11300600C9494000C94940005A84CCDB2D44EB9D1
S11300703836A9020C50B9918688083CA6AAAA2A47
S1130080BE000000803F00000008000201000003E1
S11300900407000000000000000001020408102012
S11300A04080010204081020010204081020040406
S11300B0040404040404020202020202030303030C
S11300C0030300000000250028002B0000000000AE
S11300D0240027002A003D0311241FBECFEFD8E0DF
S11300E0DEBFCDBF11E0A0E0B1E0EAE6FFE002C070
S11300F005900D92A43AB107D9F721E0A4EAB1E042
S113010001C01D92AB3CB207E1F710E0CCE6D0E0B1
S113011004C02197FE010E94AD07CB36D107C9F771
S11301200E945D070C94B3070C94000080E090E0FB
S113013008950895CF93DF93EC0160E08E810E94CF
S1130140260781E090E00E94030661E08E810E9410
S1130150260781E090E00E94030660E08E810E9401
S1130160260784E690E00E940306DF91CF9108956C
S1130170CF92DF92EF92FF920F931F93CF93DF936F
S11301806C018C01095F1F4FC0E0D0E0E62EF12C1A
S1130190B7010C2E02C0759567950A94E2F7617059
S11301A0F80181918F010E9426072196C430D10560
S11301B079F7C6010E949A00DF91CF911F910F91A8
S11301C0FF90EF90DF90CF900895CF92DF92EF925F
S11301D0FF920F931F93CF93DF936C018C01095F00
S11301E01F4FC0E0D0E0E62EF12CB7010C2E02C068
S11301F0759567950A94E2F76170F80181918F0112
S11302000E9426072196C830D10579F7C6010E94BD
S11302109A00DF91CF911F910F91FF90EF90DF90A3
S1130220CF9008951F93CF93DF93EC01162F642F83
S11302308C810E9426078D818F3F19F060E00E9417
S113024026078F8584FF05C0612FCE010E94E5003B
S113025011C0612F70E075956795759567957595D3
S1130260679575956795CE010E94B800612FCE0100
S11302700E94B800DF91CF911F91089540E061E0A2
S11302800E94120180ED97E00E9403060895FC018C
S1130290443008F043E08389481710F04FEF480FCB
S11302A0DF01A40FB11D54969C91690F606840E072
S11302B0CF010E9412010895FC016089262F246059
S11302C0208B6C6040E00E9412010895AF92BF92AF
S11302D0CF92DF92EF92FF920F931F93CF93DF930E
S11302E0EC01423018F08F8588608F874B8B1C8A15
S11302F080E48D8B6E8B70E0605C7F4F6F8B22236C
S113030029F0413019F48F8584608F8761E08C81F6
S11303100E94ED068D818F3F19F061E00E94ED0689
S113032061E08E810E94ED067E0187E0E80EF11CFB
S113033000E010E06894AA24A3F8B12C6894CC24BB
S1130340C2F8D12C8F8584FD03C08C2D9D2D02C055
S11303508A2D9B2D081719074CF461E0F701819150
S11303607F010E94ED060F5F1F4FECCF80E593ECF9
S11303700E94030660E08C810E94260760E08E8163
S11303800E9426078D818F3F19F060E00E942607A6
S11303906F8564FD1DC063E0CE010E94B80084E94E
S11303A091E10E94030663E0CE010E94B80084E953
S11303B091E10E94030663E0CE010E94B80086E941
S11303C090E00E94030662E0CE010E94B80019C0CA
S11303D0606240E0CE010E94120184E991E10E9432
S11303E003066F85606240E0CE010E94120186E937
S11303F090E00E9403066F85606240E0CE010E9497
S113040012016F85606240E0CE010E94120184E017
S1130410888BCE010E945C01CE010E943E0182E0E5
S1130420898B40E066E0CE010E941201DF91CF91FA
S11304301F910F91FF90EF90DF90CF90BF90AF90FE
S11304400895CF92EF920F93FC01138212828EE6ED
S113045091E09183808364838FEF85834683278330
S11304600087E186C286138614861586168617864B
S113047020E041E060E1CF010E9466010F91EF901E
S1130480CF90089541E00E94120181E090E0089528
S113049061E08AE00E94ED0620E042E060E18AEA41
S11304A091E00E94660164E670E08AE00E946506BD
S11304B040E060E08AEA91E00E94470166E771E06B
S11304C08AEA91E00E94AA0741E060E08AEA91E0AA
S11304D00E94470163E871E08AEA91E00E94AA075A
S11304E060ED77E080E090E00E94DB0541E060E0B1
S11304F08AEA91E00E94470162E971E08AEA91E0A8
S11305000E94AA070895BC01409108015091090175
S113051014161506C4F480910A0190910B01681712
S11305207907A0F0ECE0F1E080E090E005C02191D3
S113053031916217730760F0019684179507B9F734
S11305408FEF9FEF08958FEF9FEF089580E090E085
S1130550089580E00E9448069093A9018093A80121
S11305600E948302909307018093060127E835EBEC
S113057044E25AE36091A4017091A5018091A6011F
S11305809091A7010E9455036093A4017093A50163
S11305908093A6019093A70120910001309101015D
S11305A040910201509103010E944804882344F0C1
S11305B01092A4011092A5011092A6011092A70115
S11305C06091A4017091A5018091A6019091A70169
S11305D00E94BA0420E030E040E85FE30E94550343
S11305E020E030E04FEF52E40E944D040E94C1032A
S11305F08AE00E94650620910601309107018091EE
S113060004019091050128173907B1F162E370E004
S113061080E090E00E94DB0580E00E944806909311
S1130620A9018093A8010E948302909307018093FB
S11306300601209104013091050182179307E1F02E
S113064090930501809304019923B4F041E060E0A4
S11306508AEA91E00E944701809106019091070186
S113066021E1289FB001299F700D11246C5E7E4FFB
S11306708AEA91E00E94AA070895CF92EF920F931D
S11306800F2EF7E0CF2EF02D0F2EF6E0EF2EF02DEB
S113069005E024E049E068E08AEA91E00E94210252
S11306A00F91EF90CF9008955058BB27AA270E942E
S11306B06C030C940E040E94000438F00E9407049A
S11306C020F039F49F3F19F426F40C94FD030EF442
S11306D0E095E7FB0C94F703E92F0E941F0458F3FD
S11306E0BA17620773078407950720F079F4A6F513
S11306F00C9441040EF4E0950B2EBA2FA02D0B019F
S1130700B90190010C01CA01A0011124FF27591B52
S113071099F0593F50F4503E68F11A16F040A22F58
S1130720232F342F4427585FF3CF469537952795C9
S1130730A795F0405395C9F77EF41F16BA0B620BC8
S1130740730B840BBAF09150A1F0FF0FBB1F661F0F
S1130750771F881FC2F70EC0BA0F621F731F841F52
S113076048F4879577956795B795F7959E3F08F078
S1130770B0CF9395880F08F09927EE0F979587953A
S113078008950E94C8036894B1110C94420408951A
S11307900E94270488F09F5798F0B92F9927B751E2
S11307A0B0F0E1F0660F771F881F991F1AF0BA9511
S11307B0C9F714C0B13091F00E944104B1E008952A
S11307C00C944104672F782F8827B85F39F0B93F1C
S11307D0CCF3869577956795B395D9F73EF49095C4
S11307E08095709561957F4F8F4F9F4F089597F92E
S11307F09F6780E870E060E008959FEF80EC0895C3
S113080000240A94161617061806090608950024EB
S11308100A9412161306140605060895092E039465
S1130820000C11F4882352F0BB0F40F4BF2B11F4D9
S113083060FF04C06F5F7F4F8F4F9F4F089557FD38
S11308409058440F551F59F05F3F71F04795880F3A
S113085097FB991F61F09F3F79F0879508951216D1
S113086013061406551FF2CF4695F1DF08C016167D
S113087017061806991FF1CF86957105610508942E
S11308800895E894BB2766277727CB0197F9089545
S11308900E94C20408F48FEF08950E9460040C942F
S11308A00E040E94000438F00E94070420F09523EF
S11308B011F00C94F7030C94FD0311240C944204DE
S11308C00E941F0470F3959FC1F3950F50E0551FCC
S11308D0629FF001729FBB27F00DB11D639FAA2791
S11308E0F00DB11DAA1F649F6627B00DA11D661FE0
S11308F0829F2227B00DA11D621F739FB00DA11D01
S1130900621F839FA00D611D221F749F3327A00DBA
S1130910611D231F849F600D211D822F762F6A2F56
S113092011249F5750409AF0F1F088234AF0EE0FBB
S1130930FF1FBB1F661F771F881F91505040A9F7E8
S11309409E3F510580F00C94F7030C9442045F3FE2
S1130950E4F3983ED4F3869577956795B795F79524
S1130960E7959F5FC1F7FE2B880F911D969587959C
S113097097F908959F930E94E8040F9007FCEE5F97
S11309800C941105990F0008550FAA0BE0E8FEEF2F
S113099016161706E807F907C0F012161306E4073F
S11309A0F50798F0621B730B840B950B39F40A2638
S11309B061F0232B242B252B21F408950A2609F416
S11309C0A140A6958FEF811D811D08950C94FD0310
S11309D00E942704D8F3E894E0E0BB279F57F0F087
S11309E02AED3FE049EC06C0EE0FBB0F661F771FF0
S11309F0881F28F0B23A62077307840728F0B25AB6
S1130A00620B730B840BE3959A9572F7803830F47C
S1130A109A95BB0F661F771F881FD2F790480C94D6
S1130A202705EF93E0FF07C0A2EA2AED3FE049EC77
S1130A305FEB0E946C030E940E040F90039401FC70
S1130A409058E8E6F0E00C9433059F3F31F0915064
S1130A5020F4879577956795B795880F911D96959E
S1130A60879597F908959F938F937F936F93FF933F
S1130A70EF939B01AC010E944D04EF91FF910E9402
S1130A8047052F913F914F915F910C944D04DF9353
S1130A90CF931F930F93FF92EF92DF927B018C0110
S1130AA0689406C0DA2EEF010E946004FE01E89407
S1130AB0A5912591359145915591A6F3EF010E9499
S1130AC06C03FE019701A801DA9469F7DF90EF90B7
S1130AD0FF900F911F91CF91DF9108951F920F9274
S1130AE00FB60F9211242F933F938F939F93AF933D
S1130AF0BF938091C3019091C401A091C501B091AD
S1130B00C6013091C20123E0230F2D3720F4019652
S1130B10A11DB11D05C026E8230F0296A11DB11D1C
S1130B202093C2018093C3019093C401A093C50193
S1130B30B093C6018091C7019091C801A091C901E9
S1130B40B091CA010196A11DB11D8093C701909374
S1130B50C801A093C901B093CA01BF91AF919F91FD
S1130B608F913F912F910F900FBE0F901F9018956A
S1130B703FB7F8948091C7019091C801A091C90131
S1130B80B091CA0126B5A89B05C02F3F19F0019664
S1130B90A11DB11D3FBF6627782F892F9A2F620FA1
S1130BA0711D811D911D42E0660F771F881F991FDB
S1130BB04A95D1F70895CF92DF92EF92FF92CF93A7
S1130BC0DF936B017C010E94B805EB01C114D104D1
S1130BD0E104F10489F00E94AC070E94B8056C1B83
S1130BE07D0B683E734090F381E0C81AD108E10898
S1130BF0F108C851DC4FEACFDF91CF91FF90EF901D
S1130C00DF90CF900895019739F0880F991F880FCE
S1130C10991F02970197F1F70895789484B582603B
S1130C2084BD84B5816084BD85B5826085BD85B58C
S1130C30816085BDEEE6F0E0808181608083E1E83B
S1130C40F0E0108280818260808380818160808373
S1130C50E0E8F0E0808181608083E1EBF0E0808176
S1130C6084608083E0EBF0E0808181608083EAE748
S1130C70F0E08081846080838081826080838081D1
S1130C80816080838081806880831092C100089590
S1130C908E3008F08E5087702091690190E4299F6E
S1130CA090011124822B80937C0080917A008064CF
S1130CB080937A0080917A0086FDFCCF8091780041
S1130CC02091790090E0922B08951F93CF93DF93A6
S1130CD0182FEB0161E00E94ED06209711F460E00B
S1130CE004C0CF3FD10539F461E0812FDF91CF916A
S1130CF01F910C942607E12FF0E0EA57FF4FE4918F
S1130D00E330F9F048F4E130B9F0E230A1F584B50C
S1130D10806284BDC8BD34C0E730E9F0E83019F121
S1130D20E43049F580918000806280938000D09304
S1130D308B00C0938A0024C084B5806884BDC7BD7D
S1130D401FC080918000806880938000D0938900C8
S1130D50C093880015C08091B00080688093B00073
S1130D60C093B3000DC08091B00080628093B00046
S1130D70C093B40005C0C038D1050CF0B5CFAFCFD7
S1130D80DF91CF911F910895833081F028F4813051
S1130D9099F08230A1F008958730A9F08830B9F035
S1130DA08430D1F4809180008F7D03C080918000D5
S1130DB08F7780938000089584B58F7702C084B5BF
S1130DC08F7D84BD08958091B0008F7703C080919A
S1130DD0B0008F7D8093B0000895CF93DF9390E0AF
S1130DE0FC01E656FF4F2491FC01E255FF4F84912C
S1130DF0882349F190E0880F991FFC01E453FF4FC9
S1130E00A591B4918E539F4FFC01C591D4919FB786
S1130E10611108C0F8948C91209582238C93888169
S1130E2082230AC0623051F4F8948C91322F3095A9
S1130E3083238C938881822B888304C0F8948C91BB
S1130E40822B8C939FBFDF91CF9108950F931F93B3
S1130E50CF93DF931F92CDB7DEB7282F30E0F9018F
S1130E60EA57FF4F8491F901E656FF4F1491F901B7
S1130E70E255FF4F04910023C9F0882321F06983D0
S1130E800E94C4066981E02FF0E0EE0FFF1FEE53CD
S1130E90FF4FA591B4919FB7F8948C91611103C051
S1130EA01095812301C0812B8C939FBF0F90DF91FC
S1130EB0CF911F910F91089508950E940D060E94ED
S1130EC05C070E944802C0E0D0E00E94A90220977B
S1130ED0E1F30E940000F9CFCF92DF92EF92FF92EC
S1130EE00F931F93CF93DF936C017A01EB01E60E0E
S1130EF0F71E00E010E0CE15DF0561F06991D60120
S1130F00ED91FC910190F081E02DC6010995080F47
S1130F10191FF1CFC801DF91CF911F910F91FF905D
S1130F20EF90DF90CF9008956115710581F0DB019A
S1130F300D900020E9F7AD0141505109461B570BB4
S1130F40DC01ED91FC910280F381E02D099480E0B5
S1130F5090E008950C9494070895EE0FFF1F0590F8
S10D0F60F491E02D0994F894FFCFFA
S1130F6ADB0FC940FFFFFFFF05001E009600680162
S1130F7A1702F802205269676874204B65793A208F
S1130F8A204F4B2000205570204B65793A202020B1
S1130F9A20204F4B200020446F776E204B65793A0E
S1130FAA2020204F4B2000204C656674204B657925
S1130FBA3A2020204F4B20002053656C656374202F
S1130FCA4B65793A204F4B20000100000000420291
S1130FDA6C07960099004B6579205061642054652A
S1130FEA737400536973742E456D622E2032303146
S1130FFA3700507265737320616E79206B65792EA0
S107100A2E2E000082
S9030000FC
