
Ejercicio_3.elf:     file format elf32-avr

Sections:
Idx Name          Size      VMA       LMA       File off  Algn
  0 .data         00000096  00800100  000019ce  00001a62  2**0
                  CONTENTS, ALLOC, LOAD, DATA
  1 .text         000019ce  00000000  00000000  00000094  2**1
                  CONTENTS, ALLOC, LOAD, READONLY, CODE
  2 .bss          00000045  00800196  00800196  00001af8  2**0
                  ALLOC
  3 .comment      00000041  00000000  00000000  00001af8  2**0
                  CONTENTS, READONLY
  4 .note.gnu.avr.deviceinfo 00000040  00000000  00000000  00001b3c  2**2
                  CONTENTS, READONLY
  5 .debug_aranges 000005e0  00000000  00000000  00001b7c  2**0
                  CONTENTS, READONLY, DEBUGGING
  6 .debug_info   0000acb0  00000000  00000000  0000215c  2**0
                  CONTENTS, READONLY, DEBUGGING
  7 .debug_abbrev 00001a21  00000000  00000000  0000ce0c  2**0
                  CONTENTS, READONLY, DEBUGGING
  8 .debug_line   0000230c  00000000  00000000  0000e82d  2**0
                  CONTENTS, READONLY, DEBUGGING
  9 .debug_frame  000013d4  00000000  00000000  00010b3c  2**2
                  CONTENTS, READONLY, DEBUGGING
 10 .debug_str    00002164  00000000  00000000  00011f10  2**0
                  CONTENTS, READONLY, DEBUGGING
 11 .debug_loc    00008581  00000000  00000000  00014074  2**0
                  CONTENTS, READONLY, DEBUGGING
 12 .debug_ranges 00000630  00000000  00000000  0001c5f5  2**0
                  CONTENTS, READONLY, DEBUGGING

Disassembly of section .text:

00000000 <__vectors>:
       0:	0c 94 5e 00 	jmp	0xbc	; 0xbc <__dtors_end>
       4:	0c 94 86 00 	jmp	0x10c	; 0x10c <__bad_interrupt>
       8:	0c 94 86 00 	jmp	0x10c	; 0x10c <__bad_interrupt>
       c:	0c 94 86 00 	jmp	0x10c	; 0x10c <__bad_interrupt>
      10:	0c 94 86 00 	jmp	0x10c	; 0x10c <__bad_interrupt>
      14:	0c 94 86 00 	jmp	0x10c	; 0x10c <__bad_interrupt>
      18:	0c 94 86 00 	jmp	0x10c	; 0x10c <__bad_interrupt>
      1c:	0c 94 86 00 	jmp	0x10c	; 0x10c <__bad_interrupt>
      20:	0c 94 86 00 	jmp	0x10c	; 0x10c <__bad_interrupt>
      24:	0c 94 86 00 	jmp	0x10c	; 0x10c <__bad_interrupt>
      28:	0c 94 86 00 	jmp	0x10c	; 0x10c <__bad_interrupt>
      2c:	0c 94 86 00 	jmp	0x10c	; 0x10c <__bad_interrupt>
      30:	0c 94 86 00 	jmp	0x10c	; 0x10c <__bad_interrupt>
      34:	0c 94 86 00 	jmp	0x10c	; 0x10c <__bad_interrupt>
      38:	0c 94 86 00 	jmp	0x10c	; 0x10c <__bad_interrupt>
      3c:	0c 94 86 00 	jmp	0x10c	; 0x10c <__bad_interrupt>
      40:	0c 94 20 06 	jmp	0xc40	; 0xc40 <__vector_16>
      44:	0c 94 86 00 	jmp	0x10c	; 0x10c <__bad_interrupt>
      48:	0c 94 86 00 	jmp	0x10c	; 0x10c <__bad_interrupt>
      4c:	0c 94 86 00 	jmp	0x10c	; 0x10c <__bad_interrupt>
      50:	0c 94 86 00 	jmp	0x10c	; 0x10c <__bad_interrupt>
      54:	0c 94 86 00 	jmp	0x10c	; 0x10c <__bad_interrupt>
      58:	0c 94 86 00 	jmp	0x10c	; 0x10c <__bad_interrupt>
      5c:	0c 94 86 00 	jmp	0x10c	; 0x10c <__bad_interrupt>
      60:	0c 94 86 00 	jmp	0x10c	; 0x10c <__bad_interrupt>
      64:	0c 94 86 00 	jmp	0x10c	; 0x10c <__bad_interrupt>

00000068 <__trampolines_end>:
      68:	00 00       	nop
      6a:	00 08       	sbc	r0, r0
      6c:	00 02       	muls	r16, r16
      6e:	01 00       	.word	0x0001	; ????
      70:	00 03       	mulsu	r16, r16
      72:	04 07       	cpc	r16, r20
	...

0000007c <digital_pin_to_bit_mask_PGM>:
      7c:	01 02 04 08 10 20 40 80 01 02 04 08 10 20 01 02     ..... @...... ..
      8c:	04 08 10 20                                         ... 

00000090 <digital_pin_to_port_PGM>:
      90:	04 04 04 04 04 04 04 04 02 02 02 02 02 02 03 03     ................
      a0:	03 03 03 03                                         ....

000000a4 <port_to_output_PGM>:
      a4:	00 00 00 00 25 00 28 00 2b 00                       ....%.(.+.

000000ae <port_to_mode_PGM>:
      ae:	00 00 00 00 24 00 27 00 2a 00                       ....$.'.*.

000000b8 <__ctors_start>:
      b8:	02 04       	cpc	r0, r2

000000ba <__ctors_end>:
      ba:	37 04       	cpc	r3, r7

000000bc <__dtors_end>:
      bc:	11 24       	eor	r1, r1
      be:	1f be       	out	0x3f, r1	; 63
      c0:	cf ef       	ldi	r28, 0xFF	; 255
      c2:	d8 e0       	ldi	r29, 0x08	; 8
      c4:	de bf       	out	0x3e, r29	; 62
      c6:	cd bf       	out	0x3d, r28	; 61

000000c8 <__do_copy_data>:
      c8:	11 e0       	ldi	r17, 0x01	; 1
      ca:	a0 e0       	ldi	r26, 0x00	; 0
      cc:	b1 e0       	ldi	r27, 0x01	; 1
      ce:	ee ec       	ldi	r30, 0xCE	; 206
      d0:	f9 e1       	ldi	r31, 0x19	; 25
      d2:	02 c0       	rjmp	.+4      	; 0xd8 <__do_copy_data+0x10>
      d4:	05 90       	lpm	r0, Z+
      d6:	0d 92       	st	X+, r0
      d8:	a6 39       	cpi	r26, 0x96	; 150
      da:	b1 07       	cpc	r27, r17
      dc:	d9 f7       	brne	.-10     	; 0xd4 <__do_copy_data+0xc>

000000de <__do_clear_bss>:
      de:	21 e0       	ldi	r18, 0x01	; 1
      e0:	a6 e9       	ldi	r26, 0x96	; 150
      e2:	b1 e0       	ldi	r27, 0x01	; 1
      e4:	01 c0       	rjmp	.+2      	; 0xe8 <.do_clear_bss_start>

000000e6 <.do_clear_bss_loop>:
      e6:	1d 92       	st	X+, r1

000000e8 <.do_clear_bss_start>:
      e8:	ab 3d       	cpi	r26, 0xDB	; 219
      ea:	b2 07       	cpc	r27, r18
      ec:	e1 f7       	brne	.-8      	; 0xe6 <.do_clear_bss_loop>

000000ee <__do_global_ctors>:
      ee:	10 e0       	ldi	r17, 0x00	; 0
      f0:	cd e5       	ldi	r28, 0x5D	; 93
      f2:	d0 e0       	ldi	r29, 0x00	; 0
      f4:	04 c0       	rjmp	.+8      	; 0xfe <__do_global_ctors+0x10>
      f6:	21 97       	sbiw	r28, 0x01	; 1
      f8:	fe 01       	movw	r30, r28
      fa:	0e 94 a6 0a 	call	0x154c	; 0x154c <__tablejump2__>
      fe:	cc 35       	cpi	r28, 0x5C	; 92
     100:	d1 07       	cpc	r29, r17
     102:	c9 f7       	brne	.-14     	; 0xf6 <__do_global_ctors+0x8>
     104:	0e 94 b0 07 	call	0xf60	; 0xf60 <main>
     108:	0c 94 da 0c 	jmp	0x19b4	; 0x19b4 <__do_global_dtors>

0000010c <__bad_interrupt>:
     10c:	0c 94 00 00 	jmp	0	; 0x0 <__vectors>

00000110 <_ZN5Print17availableForWriteEv>:
  location &= 0x7; // we only have 8 locations 0-7
  command(LCD_SETCGRAMADDR | (location << 3));
  for (int i=0; i<8; i++) {
    write(charmap[i]);
  }
}
     110:	80 e0       	ldi	r24, 0x00	; 0
     112:	90 e0       	ldi	r25, 0x00	; 0
     114:	08 95       	ret

00000116 <_ZN5Print5flushEv>:
     116:	08 95       	ret

00000118 <_ZN13LiquidCrystal11pulseEnableEv>:
     118:	cf 93       	push	r28
     11a:	df 93       	push	r29
     11c:	ec 01       	movw	r28, r24
     11e:	60 e0       	ldi	r22, 0x00	; 0
     120:	8e 81       	ldd	r24, Y+6	; 0x06
     122:	0e 94 79 07 	call	0xef2	; 0xef2 <digitalWrite>
     126:	81 e0       	ldi	r24, 0x01	; 1
     128:	90 e0       	ldi	r25, 0x00	; 0
     12a:	0e 94 b5 06 	call	0xd6a	; 0xd6a <delayMicroseconds>
     12e:	61 e0       	ldi	r22, 0x01	; 1
     130:	8e 81       	ldd	r24, Y+6	; 0x06
     132:	0e 94 79 07 	call	0xef2	; 0xef2 <digitalWrite>
     136:	81 e0       	ldi	r24, 0x01	; 1
     138:	90 e0       	ldi	r25, 0x00	; 0
     13a:	0e 94 b5 06 	call	0xd6a	; 0xd6a <delayMicroseconds>
     13e:	60 e0       	ldi	r22, 0x00	; 0
     140:	8e 81       	ldd	r24, Y+6	; 0x06
     142:	0e 94 79 07 	call	0xef2	; 0xef2 <digitalWrite>
     146:	84 e6       	ldi	r24, 0x64	; 100
     148:	90 e0       	ldi	r25, 0x00	; 0
     14a:	0e 94 b5 06 	call	0xd6a	; 0xd6a <delayMicroseconds>
     14e:	df 91       	pop	r29
     150:	cf 91       	pop	r28
     152:	08 95       	ret

00000154 <_ZN13LiquidCrystal10write4bitsEh>:
     154:	cf 92       	push	r12
     156:	df 92       	push	r13
     158:	ef 92       	push	r14
     15a:	ff 92       	push	r15
     15c:	0f 93       	push	r16
     15e:	1f 93       	push	r17
     160:	cf 93       	push	r28
     162:	df 93       	push	r29
     164:	6c 01       	movw	r12, r24
     166:	8c 01       	movw	r16, r24
     168:	09 5f       	subi	r16, 0xF9	; 249
     16a:	1f 4f       	sbci	r17, 0xFF	; 255
     16c:	c0 e0       	ldi	r28, 0x00	; 0
     16e:	d0 e0       	ldi	r29, 0x00	; 0
     170:	e6 2e       	mov	r14, r22
     172:	f1 2c       	mov	r15, r1
     174:	b7 01       	movw	r22, r14
     176:	0c 2e       	mov	r0, r28
     178:	02 c0       	rjmp	.+4      	; 0x17e <_ZN13LiquidCrystal10write4bitsEh+0x2a>
     17a:	75 95       	asr	r23
     17c:	67 95       	ror	r22
     17e:	0a 94       	dec	r0
     180:	e2 f7       	brpl	.-8      	; 0x17a <_ZN13LiquidCrystal10write4bitsEh+0x26>
     182:	61 70       	andi	r22, 0x01	; 1
     184:	f8 01       	movw	r30, r16
     186:	81 91       	ld	r24, Z+
     188:	8f 01       	movw	r16, r30
     18a:	0e 94 79 07 	call	0xef2	; 0xef2 <digitalWrite>
     18e:	21 96       	adiw	r28, 0x01	; 1
     190:	c4 30       	cpi	r28, 0x04	; 4
     192:	d1 05       	cpc	r29, r1
     194:	79 f7       	brne	.-34     	; 0x174 <_ZN13LiquidCrystal10write4bitsEh+0x20>
     196:	c6 01       	movw	r24, r12
     198:	0e 94 8c 00 	call	0x118	; 0x118 <_ZN13LiquidCrystal11pulseEnableEv>
     19c:	df 91       	pop	r29
     19e:	cf 91       	pop	r28
     1a0:	1f 91       	pop	r17
     1a2:	0f 91       	pop	r16
     1a4:	ff 90       	pop	r15
     1a6:	ef 90       	pop	r14
     1a8:	df 90       	pop	r13
     1aa:	cf 90       	pop	r12
     1ac:	08 95       	ret

000001ae <_ZN13LiquidCrystal10write8bitsEh>:
     1ae:	cf 92       	push	r12
     1b0:	df 92       	push	r13
     1b2:	ef 92       	push	r14
     1b4:	ff 92       	push	r15
     1b6:	0f 93       	push	r16
     1b8:	1f 93       	push	r17
     1ba:	cf 93       	push	r28
     1bc:	df 93       	push	r29
     1be:	6c 01       	movw	r12, r24
     1c0:	8c 01       	movw	r16, r24
     1c2:	09 5f       	subi	r16, 0xF9	; 249
     1c4:	1f 4f       	sbci	r17, 0xFF	; 255
     1c6:	c0 e0       	ldi	r28, 0x00	; 0
     1c8:	d0 e0       	ldi	r29, 0x00	; 0
     1ca:	e6 2e       	mov	r14, r22
     1cc:	f1 2c       	mov	r15, r1
     1ce:	b7 01       	movw	r22, r14
     1d0:	0c 2e       	mov	r0, r28
     1d2:	02 c0       	rjmp	.+4      	; 0x1d8 <_ZN13LiquidCrystal10write8bitsEh+0x2a>
     1d4:	75 95       	asr	r23
     1d6:	67 95       	ror	r22
     1d8:	0a 94       	dec	r0
     1da:	e2 f7       	brpl	.-8      	; 0x1d4 <_ZN13LiquidCrystal10write8bitsEh+0x26>
     1dc:	61 70       	andi	r22, 0x01	; 1
     1de:	f8 01       	movw	r30, r16
     1e0:	81 91       	ld	r24, Z+
     1e2:	8f 01       	movw	r16, r30
     1e4:	0e 94 79 07 	call	0xef2	; 0xef2 <digitalWrite>
     1e8:	21 96       	adiw	r28, 0x01	; 1
     1ea:	c8 30       	cpi	r28, 0x08	; 8
     1ec:	d1 05       	cpc	r29, r1
     1ee:	79 f7       	brne	.-34     	; 0x1ce <_ZN13LiquidCrystal10write8bitsEh+0x20>
     1f0:	c6 01       	movw	r24, r12
     1f2:	0e 94 8c 00 	call	0x118	; 0x118 <_ZN13LiquidCrystal11pulseEnableEv>
     1f6:	df 91       	pop	r29
     1f8:	cf 91       	pop	r28
     1fa:	1f 91       	pop	r17
     1fc:	0f 91       	pop	r16
     1fe:	ff 90       	pop	r15
     200:	ef 90       	pop	r14
     202:	df 90       	pop	r13
     204:	cf 90       	pop	r12
     206:	08 95       	ret

00000208 <_ZN13LiquidCrystal4sendEhh>:
     208:	1f 93       	push	r17
     20a:	cf 93       	push	r28
     20c:	df 93       	push	r29
     20e:	ec 01       	movw	r28, r24
     210:	16 2f       	mov	r17, r22
     212:	64 2f       	mov	r22, r20
     214:	8c 81       	ldd	r24, Y+4	; 0x04
     216:	0e 94 79 07 	call	0xef2	; 0xef2 <digitalWrite>
     21a:	8d 81       	ldd	r24, Y+5	; 0x05
     21c:	8f 3f       	cpi	r24, 0xFF	; 255
     21e:	19 f0       	breq	.+6      	; 0x226 <_ZN13LiquidCrystal4sendEhh+0x1e>
     220:	60 e0       	ldi	r22, 0x00	; 0
     222:	0e 94 79 07 	call	0xef2	; 0xef2 <digitalWrite>
     226:	8f 85       	ldd	r24, Y+15	; 0x0f
     228:	84 ff       	sbrs	r24, 4
     22a:	05 c0       	rjmp	.+10     	; 0x236 <_ZN13LiquidCrystal4sendEhh+0x2e>
     22c:	61 2f       	mov	r22, r17
     22e:	ce 01       	movw	r24, r28
     230:	0e 94 d7 00 	call	0x1ae	; 0x1ae <_ZN13LiquidCrystal10write8bitsEh>
     234:	11 c0       	rjmp	.+34     	; 0x258 <_ZN13LiquidCrystal4sendEhh+0x50>
     236:	61 2f       	mov	r22, r17
     238:	70 e0       	ldi	r23, 0x00	; 0
     23a:	75 95       	asr	r23
     23c:	67 95       	ror	r22
     23e:	75 95       	asr	r23
     240:	67 95       	ror	r22
     242:	75 95       	asr	r23
     244:	67 95       	ror	r22
     246:	75 95       	asr	r23
     248:	67 95       	ror	r22
     24a:	ce 01       	movw	r24, r28
     24c:	0e 94 aa 00 	call	0x154	; 0x154 <_ZN13LiquidCrystal10write4bitsEh>
     250:	61 2f       	mov	r22, r17
     252:	ce 01       	movw	r24, r28
     254:	0e 94 aa 00 	call	0x154	; 0x154 <_ZN13LiquidCrystal10write4bitsEh>
     258:	df 91       	pop	r29
     25a:	cf 91       	pop	r28
     25c:	1f 91       	pop	r17
     25e:	08 95       	ret

00000260 <_ZN13LiquidCrystal5clearEv>:
     260:	40 e0       	ldi	r20, 0x00	; 0
     262:	61 e0       	ldi	r22, 0x01	; 1
     264:	0e 94 04 01 	call	0x208	; 0x208 <_ZN13LiquidCrystal4sendEhh>
     268:	80 ed       	ldi	r24, 0xD0	; 208
     26a:	97 e0       	ldi	r25, 0x07	; 7
     26c:	0e 94 b5 06 	call	0xd6a	; 0xd6a <delayMicroseconds>
     270:	08 95       	ret

00000272 <_ZN13LiquidCrystal9setCursorEhh>:
     272:	fc 01       	movw	r30, r24
     274:	44 30       	cpi	r20, 0x04	; 4
     276:	08 f0       	brcs	.+2      	; 0x27a <_ZN13LiquidCrystal9setCursorEhh+0x8>
     278:	43 e0       	ldi	r20, 0x03	; 3
     27a:	83 89       	ldd	r24, Z+19	; 0x13
     27c:	48 17       	cp	r20, r24
     27e:	10 f0       	brcs	.+4      	; 0x284 <_ZN13LiquidCrystal9setCursorEhh+0x12>
     280:	4f ef       	ldi	r20, 0xFF	; 255
     282:	48 0f       	add	r20, r24
     284:	df 01       	movw	r26, r30
     286:	a4 0f       	add	r26, r20
     288:	b1 1d       	adc	r27, r1
     28a:	54 96       	adiw	r26, 0x14	; 20
     28c:	9c 91       	ld	r25, X
     28e:	69 0f       	add	r22, r25
     290:	60 68       	ori	r22, 0x80	; 128
     292:	40 e0       	ldi	r20, 0x00	; 0
     294:	cf 01       	movw	r24, r30
     296:	0e 94 04 01 	call	0x208	; 0x208 <_ZN13LiquidCrystal4sendEhh>
     29a:	08 95       	ret

0000029c <_ZN13LiquidCrystal7displayEv>:
     29c:	fc 01       	movw	r30, r24
     29e:	60 89       	ldd	r22, Z+16	; 0x10
     2a0:	26 2f       	mov	r18, r22
     2a2:	24 60       	ori	r18, 0x04	; 4
     2a4:	20 8b       	std	Z+16, r18	; 0x10
     2a6:	6c 60       	ori	r22, 0x0C	; 12
     2a8:	40 e0       	ldi	r20, 0x00	; 0
     2aa:	0e 94 04 01 	call	0x208	; 0x208 <_ZN13LiquidCrystal4sendEhh>
     2ae:	08 95       	ret

000002b0 <_ZN13LiquidCrystal5beginEhhh>:
     2b0:	af 92       	push	r10
     2b2:	bf 92       	push	r11
     2b4:	cf 92       	push	r12
     2b6:	df 92       	push	r13
     2b8:	ef 92       	push	r14
     2ba:	ff 92       	push	r15
     2bc:	0f 93       	push	r16
     2be:	1f 93       	push	r17
     2c0:	cf 93       	push	r28
     2c2:	df 93       	push	r29
     2c4:	ec 01       	movw	r28, r24
     2c6:	42 30       	cpi	r20, 0x02	; 2
     2c8:	18 f0       	brcs	.+6      	; 0x2d0 <_ZN13LiquidCrystal5beginEhhh+0x20>
     2ca:	8f 85       	ldd	r24, Y+15	; 0x0f
     2cc:	88 60       	ori	r24, 0x08	; 8
     2ce:	8f 87       	std	Y+15, r24	; 0x0f
     2d0:	4b 8b       	std	Y+19, r20	; 0x13
     2d2:	1c 8a       	std	Y+20, r1	; 0x14
     2d4:	80 e4       	ldi	r24, 0x40	; 64
     2d6:	8d 8b       	std	Y+21, r24	; 0x15
     2d8:	6e 8b       	std	Y+22, r22	; 0x16
     2da:	70 e0       	ldi	r23, 0x00	; 0
     2dc:	60 5c       	subi	r22, 0xC0	; 192
     2de:	7f 4f       	sbci	r23, 0xFF	; 255
     2e0:	6f 8b       	std	Y+23, r22	; 0x17
     2e2:	22 23       	and	r18, r18
     2e4:	29 f0       	breq	.+10     	; 0x2f0 <_ZN13LiquidCrystal5beginEhhh+0x40>
     2e6:	41 30       	cpi	r20, 0x01	; 1
     2e8:	19 f4       	brne	.+6      	; 0x2f0 <_ZN13LiquidCrystal5beginEhhh+0x40>
     2ea:	8f 85       	ldd	r24, Y+15	; 0x0f
     2ec:	84 60       	ori	r24, 0x04	; 4
     2ee:	8f 87       	std	Y+15, r24	; 0x0f
     2f0:	61 e0       	ldi	r22, 0x01	; 1
     2f2:	8c 81       	ldd	r24, Y+4	; 0x04
     2f4:	0e 94 40 07 	call	0xe80	; 0xe80 <pinMode>
     2f8:	8d 81       	ldd	r24, Y+5	; 0x05
     2fa:	8f 3f       	cpi	r24, 0xFF	; 255
     2fc:	19 f0       	breq	.+6      	; 0x304 <_ZN13LiquidCrystal5beginEhhh+0x54>
     2fe:	61 e0       	ldi	r22, 0x01	; 1
     300:	0e 94 40 07 	call	0xe80	; 0xe80 <pinMode>
     304:	61 e0       	ldi	r22, 0x01	; 1
     306:	8e 81       	ldd	r24, Y+6	; 0x06
     308:	0e 94 40 07 	call	0xe80	; 0xe80 <pinMode>
     30c:	7e 01       	movw	r14, r28
     30e:	87 e0       	ldi	r24, 0x07	; 7
     310:	e8 0e       	add	r14, r24
     312:	f1 1c       	adc	r15, r1
     314:	00 e0       	ldi	r16, 0x00	; 0
     316:	10 e0       	ldi	r17, 0x00	; 0
     318:	68 94       	set
     31a:	aa 24       	eor	r10, r10
     31c:	a3 f8       	bld	r10, 3
     31e:	b1 2c       	mov	r11, r1
     320:	68 94       	set
     322:	cc 24       	eor	r12, r12
     324:	c2 f8       	bld	r12, 2
     326:	d1 2c       	mov	r13, r1
     328:	8f 85       	ldd	r24, Y+15	; 0x0f
     32a:	84 fd       	sbrc	r24, 4
     32c:	03 c0       	rjmp	.+6      	; 0x334 <_ZN13LiquidCrystal5beginEhhh+0x84>
     32e:	8c 2d       	mov	r24, r12
     330:	9d 2d       	mov	r25, r13
     332:	02 c0       	rjmp	.+4      	; 0x338 <_ZN13LiquidCrystal5beginEhhh+0x88>
     334:	8a 2d       	mov	r24, r10
     336:	9b 2d       	mov	r25, r11
     338:	08 17       	cp	r16, r24
     33a:	19 07       	cpc	r17, r25
     33c:	4c f4       	brge	.+18     	; 0x350 <_ZN13LiquidCrystal5beginEhhh+0xa0>
     33e:	61 e0       	ldi	r22, 0x01	; 1
     340:	f7 01       	movw	r30, r14
     342:	81 91       	ld	r24, Z+
     344:	7f 01       	movw	r14, r30
     346:	0e 94 40 07 	call	0xe80	; 0xe80 <pinMode>
     34a:	0f 5f       	subi	r16, 0xFF	; 255
     34c:	1f 4f       	sbci	r17, 0xFF	; 255
     34e:	ec cf       	rjmp	.-40     	; 0x328 <_ZN13LiquidCrystal5beginEhhh+0x78>
     350:	80 e5       	ldi	r24, 0x50	; 80
     352:	93 ec       	ldi	r25, 0xC3	; 195
     354:	0e 94 b5 06 	call	0xd6a	; 0xd6a <delayMicroseconds>
     358:	60 e0       	ldi	r22, 0x00	; 0
     35a:	8c 81       	ldd	r24, Y+4	; 0x04
     35c:	0e 94 79 07 	call	0xef2	; 0xef2 <digitalWrite>
     360:	60 e0       	ldi	r22, 0x00	; 0
     362:	8e 81       	ldd	r24, Y+6	; 0x06
     364:	0e 94 79 07 	call	0xef2	; 0xef2 <digitalWrite>
     368:	8d 81       	ldd	r24, Y+5	; 0x05
     36a:	8f 3f       	cpi	r24, 0xFF	; 255
     36c:	19 f0       	breq	.+6      	; 0x374 <_ZN13LiquidCrystal5beginEhhh+0xc4>
     36e:	60 e0       	ldi	r22, 0x00	; 0
     370:	0e 94 79 07 	call	0xef2	; 0xef2 <digitalWrite>
     374:	6f 85       	ldd	r22, Y+15	; 0x0f
     376:	64 fd       	sbrc	r22, 4
     378:	1d c0       	rjmp	.+58     	; 0x3b4 <_ZN13LiquidCrystal5beginEhhh+0x104>
     37a:	63 e0       	ldi	r22, 0x03	; 3
     37c:	ce 01       	movw	r24, r28
     37e:	0e 94 aa 00 	call	0x154	; 0x154 <_ZN13LiquidCrystal10write4bitsEh>
     382:	84 e9       	ldi	r24, 0x94	; 148
     384:	91 e1       	ldi	r25, 0x11	; 17
     386:	0e 94 b5 06 	call	0xd6a	; 0xd6a <delayMicroseconds>
     38a:	63 e0       	ldi	r22, 0x03	; 3
     38c:	ce 01       	movw	r24, r28
     38e:	0e 94 aa 00 	call	0x154	; 0x154 <_ZN13LiquidCrystal10write4bitsEh>
     392:	84 e9       	ldi	r24, 0x94	; 148
     394:	91 e1       	ldi	r25, 0x11	; 17
     396:	0e 94 b5 06 	call	0xd6a	; 0xd6a <delayMicroseconds>
     39a:	63 e0       	ldi	r22, 0x03	; 3
     39c:	ce 01       	movw	r24, r28
     39e:	0e 94 aa 00 	call	0x154	; 0x154 <_ZN13LiquidCrystal10write4bitsEh>
     3a2:	86 e9       	ldi	r24, 0x96	; 150
     3a4:	90 e0       	ldi	r25, 0x00	; 0
     3a6:	0e 94 b5 06 	call	0xd6a	; 0xd6a <delayMicroseconds>
     3aa:	62 e0       	ldi	r22, 0x02	; 2
     3ac:	ce 01       	movw	r24, r28
     3ae:	0e 94 aa 00 	call	0x154	; 0x154 <_ZN13LiquidCrystal10write4bitsEh>
     3b2:	19 c0       	rjmp	.+50     	; 0x3e6 <_ZN13LiquidCrystal5beginEhhh+0x136>
     3b4:	60 62       	ori	r22, 0x20	; 32
     3b6:	40 e0       	ldi	r20, 0x00	; 0
     3b8:	ce 01       	movw	r24, r28
     3ba:	0e 94 04 01 	call	0x208	; 0x208 <_ZN13LiquidCrystal4sendEhh>
     3be:	84 e9       	ldi	r24, 0x94	; 148
     3c0:	91 e1       	ldi	r25, 0x11	; 17
     3c2:	0e 94 b5 06 	call	0xd6a	; 0xd6a <delayMicroseconds>
     3c6:	6f 85       	ldd	r22, Y+15	; 0x0f
     3c8:	60 62       	ori	r22, 0x20	; 32
     3ca:	40 e0       	ldi	r20, 0x00	; 0
     3cc:	ce 01       	movw	r24, r28
     3ce:	0e 94 04 01 	call	0x208	; 0x208 <_ZN13LiquidCrystal4sendEhh>
     3d2:	86 e9       	ldi	r24, 0x96	; 150
     3d4:	90 e0       	ldi	r25, 0x00	; 0
     3d6:	0e 94 b5 06 	call	0xd6a	; 0xd6a <delayMicroseconds>
     3da:	6f 85       	ldd	r22, Y+15	; 0x0f
     3dc:	60 62       	ori	r22, 0x20	; 32
     3de:	40 e0       	ldi	r20, 0x00	; 0
     3e0:	ce 01       	movw	r24, r28
     3e2:	0e 94 04 01 	call	0x208	; 0x208 <_ZN13LiquidCrystal4sendEhh>
     3e6:	6f 85       	ldd	r22, Y+15	; 0x0f
     3e8:	60 62       	ori	r22, 0x20	; 32
     3ea:	40 e0       	ldi	r20, 0x00	; 0
     3ec:	ce 01       	movw	r24, r28
     3ee:	0e 94 04 01 	call	0x208	; 0x208 <_ZN13LiquidCrystal4sendEhh>
     3f2:	84 e0       	ldi	r24, 0x04	; 4
     3f4:	88 8b       	std	Y+16, r24	; 0x10
     3f6:	ce 01       	movw	r24, r28
     3f8:	0e 94 4e 01 	call	0x29c	; 0x29c <_ZN13LiquidCrystal7displayEv>
     3fc:	ce 01       	movw	r24, r28
     3fe:	0e 94 30 01 	call	0x260	; 0x260 <_ZN13LiquidCrystal5clearEv>
     402:	82 e0       	ldi	r24, 0x02	; 2
     404:	89 8b       	std	Y+17, r24	; 0x11
     406:	40 e0       	ldi	r20, 0x00	; 0
     408:	66 e0       	ldi	r22, 0x06	; 6
     40a:	ce 01       	movw	r24, r28
     40c:	0e 94 04 01 	call	0x208	; 0x208 <_ZN13LiquidCrystal4sendEhh>
     410:	df 91       	pop	r29
     412:	cf 91       	pop	r28
     414:	1f 91       	pop	r17
     416:	0f 91       	pop	r16
     418:	ff 90       	pop	r15
     41a:	ef 90       	pop	r14
     41c:	df 90       	pop	r13
     41e:	cf 90       	pop	r12
     420:	bf 90       	pop	r11
     422:	af 90       	pop	r10
     424:	08 95       	ret

00000426 <_ZN13LiquidCrystalC1Ehhhhhh>:
     426:	cf 92       	push	r12
     428:	ef 92       	push	r14
     42a:	0f 93       	push	r16
     42c:	fc 01       	movw	r30, r24
     42e:	13 82       	std	Z+3, r1	; 0x03
     430:	12 82       	std	Z+2, r1	; 0x02
     432:	8b e0       	ldi	r24, 0x0B	; 11
     434:	91 e0       	ldi	r25, 0x01	; 1
     436:	91 83       	std	Z+1, r25	; 0x01
     438:	80 83       	st	Z, r24
     43a:	64 83       	std	Z+4, r22	; 0x04
     43c:	8f ef       	ldi	r24, 0xFF	; 255
     43e:	85 83       	std	Z+5, r24	; 0x05
     440:	46 83       	std	Z+6, r20	; 0x06
     442:	27 83       	std	Z+7, r18	; 0x07
     444:	00 87       	std	Z+8, r16	; 0x08
     446:	e1 86       	std	Z+9, r14	; 0x09
     448:	c2 86       	std	Z+10, r12	; 0x0a
     44a:	13 86       	std	Z+11, r1	; 0x0b
     44c:	14 86       	std	Z+12, r1	; 0x0c
     44e:	15 86       	std	Z+13, r1	; 0x0d
     450:	16 86       	std	Z+14, r1	; 0x0e
     452:	17 86       	std	Z+15, r1	; 0x0f
     454:	20 e0       	ldi	r18, 0x00	; 0
     456:	41 e0       	ldi	r20, 0x01	; 1
     458:	60 e1       	ldi	r22, 0x10	; 16
     45a:	cf 01       	movw	r24, r30
     45c:	0e 94 58 01 	call	0x2b0	; 0x2b0 <_ZN13LiquidCrystal5beginEhhh>
     460:	0f 91       	pop	r16
     462:	ef 90       	pop	r14
     464:	cf 90       	pop	r12
     466:	08 95       	ret

00000468 <_ZN13LiquidCrystal5writeEh>:
inline void LiquidCrystal::command(uint8_t value) {
  send(value, LOW);
}

inline size_t LiquidCrystal::write(uint8_t value) {
  send(value, HIGH);
     468:	41 e0       	ldi	r20, 0x01	; 1
     46a:	0e 94 04 01 	call	0x208	; 0x208 <_ZN13LiquidCrystal4sendEhh>
  return 1; // assume sucess
}
     46e:	81 e0       	ldi	r24, 0x01	; 1
     470:	90 e0       	ldi	r25, 0x00	; 0
     472:	08 95       	ret

00000474 <setup>:
int adc_key_in;
int key=-1;
int oldkey=-1;

void setup() {	
	lcd.begin(numCols,numRows);
     474:	20 e0       	ldi	r18, 0x00	; 0
     476:	42 e0       	ldi	r20, 0x02	; 2
     478:	60 e1       	ldi	r22, 0x10	; 16
     47a:	86 eb       	ldi	r24, 0xB6	; 182
     47c:	91 e0       	ldi	r25, 0x01	; 1
     47e:	0e 94 58 01 	call	0x2b0	; 0x2b0 <_ZN13LiquidCrystal5beginEhhh>
     482:	08 95       	ret

00000484 <_Z13analog_to_luxi>:
}


double analog_to_lux(int analog){
     484:	0f 93       	push	r16
     486:	1f 93       	push	r17
     488:	cf 93       	push	r28
     48a:	df 93       	push	r29
     48c:	ec 01       	movw	r28, r24
	double coef = 0;

	if(analog <=200){
     48e:	89 3c       	cpi	r24, 0xC9	; 201
     490:	91 05       	cpc	r25, r1
     492:	cc f4       	brge	.+50     	; 0x4c6 <_Z13analog_to_luxi+0x42>
		if(analog == 200)
     494:	88 3c       	cpi	r24, 0xC8	; 200
     496:	91 05       	cpc	r25, r1
     498:	09 f4       	brne	.+2      	; 0x49c <_Z13analog_to_luxi+0x18>
     49a:	62 c0       	rjmp	.+196    	; 0x560 <_Z13analog_to_luxi+0xdc>
		coef = 1.0f;//(200 - analog);//0.005f; //1.0f/200.0f
		else
		coef = (200.0f - analog) / 200.0f;
     49c:	bc 01       	movw	r22, r24
     49e:	99 0f       	add	r25, r25
     4a0:	88 0b       	sbc	r24, r24
     4a2:	99 0b       	sbc	r25, r25
     4a4:	0e 94 27 05 	call	0xa4e	; 0xa4e <__floatsisf>
     4a8:	9b 01       	movw	r18, r22
     4aa:	ac 01       	movw	r20, r24
     4ac:	60 e0       	ldi	r22, 0x00	; 0
     4ae:	70 e0       	ldi	r23, 0x00	; 0
     4b0:	88 e4       	ldi	r24, 0x48	; 72
     4b2:	93 e4       	ldi	r25, 0x43	; 67
     4b4:	0e 94 46 04 	call	0x88c	; 0x88c <__subsf3>
     4b8:	20 e0       	ldi	r18, 0x00	; 0
     4ba:	30 e0       	ldi	r19, 0x00	; 0
     4bc:	48 e4       	ldi	r20, 0x48	; 72
     4be:	53 e4       	ldi	r21, 0x43	; 67
     4c0:	0e 94 b3 04 	call	0x966	; 0x966 <__divsf3>
     4c4:	03 c0       	rjmp	.+6      	; 0x4cc <_Z13analog_to_luxi+0x48>
	lcd.begin(numCols,numRows);
}


double analog_to_lux(int analog){
	double coef = 0;
     4c6:	60 e0       	ldi	r22, 0x00	; 0
     4c8:	70 e0       	ldi	r23, 0x00	; 0
     4ca:	cb 01       	movw	r24, r22
		if(analog == 200)
		coef = 1.0f;//(200 - analog);//0.005f; //1.0f/200.0f
		else
		coef = (200.0f - analog) / 200.0f;
	}
	if(analog>200 && analog <=300){
     4cc:	8e 01       	movw	r16, r28
     4ce:	9e 01       	movw	r18, r28
     4d0:	29 5c       	subi	r18, 0xC9	; 201
     4d2:	31 09       	sbc	r19, r1
     4d4:	24 36       	cpi	r18, 0x64	; 100
     4d6:	31 05       	cpc	r19, r1
     4d8:	e8 f4       	brcc	.+58     	; 0x514 <_Z13analog_to_luxi+0x90>
		coef = 1.0f + 2.0f * (analog - 200.0f) / 300.0f;//1.02f;//(3.0f-1.0f)/(300.0f-200.0f);
     4da:	be 01       	movw	r22, r28
     4dc:	0d 2e       	mov	r0, r29
     4de:	00 0c       	add	r0, r0
     4e0:	88 0b       	sbc	r24, r24
     4e2:	99 0b       	sbc	r25, r25
     4e4:	0e 94 27 05 	call	0xa4e	; 0xa4e <__floatsisf>
     4e8:	20 e0       	ldi	r18, 0x00	; 0
     4ea:	30 e0       	ldi	r19, 0x00	; 0
     4ec:	48 e4       	ldi	r20, 0x48	; 72
     4ee:	53 e4       	ldi	r21, 0x43	; 67
     4f0:	0e 94 46 04 	call	0x88c	; 0x88c <__subsf3>
     4f4:	9b 01       	movw	r18, r22
     4f6:	ac 01       	movw	r20, r24
     4f8:	0e 94 47 04 	call	0x88e	; 0x88e <__addsf3>
     4fc:	20 e0       	ldi	r18, 0x00	; 0
     4fe:	30 e0       	ldi	r19, 0x00	; 0
     500:	46 e9       	ldi	r20, 0x96	; 150
     502:	53 e4       	ldi	r21, 0x43	; 67
     504:	0e 94 b3 04 	call	0x966	; 0x966 <__divsf3>
     508:	20 e0       	ldi	r18, 0x00	; 0
     50a:	30 e0       	ldi	r19, 0x00	; 0
     50c:	40 e8       	ldi	r20, 0x80	; 128
     50e:	5f e3       	ldi	r21, 0x3F	; 63
     510:	0e 94 47 04 	call	0x88e	; 0x88e <__addsf3>
	}
	if(analog>300 && analog <=393){
     514:	9e 01       	movw	r18, r28
     516:	2d 52       	subi	r18, 0x2D	; 45
     518:	31 40       	sbci	r19, 0x01	; 1
     51a:	2d 35       	cpi	r18, 0x5D	; 93
     51c:	31 05       	cpc	r19, r1
     51e:	30 f5       	brcc	.+76     	; 0x56c <_Z13analog_to_luxi+0xe8>
		coef = 3.0f + 3.0f * (analog - 300.0f) / 393.0f;//1.032f * 3;//(6.0f-3.0f)/(393.0f-300.0f);
     520:	be 01       	movw	r22, r28
     522:	0d 2e       	mov	r0, r29
     524:	00 0c       	add	r0, r0
     526:	88 0b       	sbc	r24, r24
     528:	99 0b       	sbc	r25, r25
     52a:	0e 94 27 05 	call	0xa4e	; 0xa4e <__floatsisf>
     52e:	20 e0       	ldi	r18, 0x00	; 0
     530:	30 e0       	ldi	r19, 0x00	; 0
     532:	46 e9       	ldi	r20, 0x96	; 150
     534:	53 e4       	ldi	r21, 0x43	; 67
     536:	0e 94 46 04 	call	0x88c	; 0x88c <__subsf3>
     53a:	20 e0       	ldi	r18, 0x00	; 0
     53c:	30 e0       	ldi	r19, 0x00	; 0
     53e:	40 e4       	ldi	r20, 0x40	; 64
     540:	50 e4       	ldi	r21, 0x40	; 64
     542:	0e 94 b3 05 	call	0xb66	; 0xb66 <__mulsf3>
     546:	20 e0       	ldi	r18, 0x00	; 0
     548:	30 e8       	ldi	r19, 0x80	; 128
     54a:	44 ec       	ldi	r20, 0xC4	; 196
     54c:	53 e4       	ldi	r21, 0x43	; 67
     54e:	0e 94 b3 04 	call	0x966	; 0x966 <__divsf3>
     552:	20 e0       	ldi	r18, 0x00	; 0
     554:	30 e0       	ldi	r19, 0x00	; 0
     556:	40 e4       	ldi	r20, 0x40	; 64
     558:	50 e4       	ldi	r21, 0x40	; 64
     55a:	0e 94 47 04 	call	0x88e	; 0x88e <__addsf3>
     55e:	06 c0       	rjmp	.+12     	; 0x56c <_Z13analog_to_luxi+0xe8>
		if(analog == 200)
		coef = 1.0f;//(200 - analog);//0.005f; //1.0f/200.0f
		else
		coef = (200.0f - analog) / 200.0f;
	}
	if(analog>200 && analog <=300){
     560:	08 ec       	ldi	r16, 0xC8	; 200
     562:	10 e0       	ldi	r17, 0x00	; 0
double analog_to_lux(int analog){
	double coef = 0;

	if(analog <=200){
		if(analog == 200)
		coef = 1.0f;//(200 - analog);//0.005f; //1.0f/200.0f
     564:	60 e0       	ldi	r22, 0x00	; 0
     566:	70 e0       	ldi	r23, 0x00	; 0
     568:	80 e8       	ldi	r24, 0x80	; 128
     56a:	9f e3       	ldi	r25, 0x3F	; 63
		coef = 1.0f + 2.0f * (analog - 200.0f) / 300.0f;//1.02f;//(3.0f-1.0f)/(300.0f-200.0f);
	}
	if(analog>300 && analog <=393){
		coef = 3.0f + 3.0f * (analog - 300.0f) / 393.0f;//1.032f * 3;//(6.0f-3.0f)/(393.0f-300.0f);
	}
	if(analog>393 && analog <511){
     56c:	98 01       	movw	r18, r16
     56e:	2a 58       	subi	r18, 0x8A	; 138
     570:	31 40       	sbci	r19, 0x01	; 1
     572:	25 37       	cpi	r18, 0x75	; 117
     574:	31 05       	cpc	r19, r1
     576:	f8 f4       	brcc	.+62     	; 0x5b6 <_Z13analog_to_luxi+0x132>
		coef = 6.0f + 4.0f * (analog - 393.0f) / 511.0f;//1.0339f * 6;//(10.0f - 6.0f)/(511.0f-393.0f);
     578:	be 01       	movw	r22, r28
     57a:	0d 2e       	mov	r0, r29
     57c:	00 0c       	add	r0, r0
     57e:	88 0b       	sbc	r24, r24
     580:	99 0b       	sbc	r25, r25
     582:	0e 94 27 05 	call	0xa4e	; 0xa4e <__floatsisf>
     586:	20 e0       	ldi	r18, 0x00	; 0
     588:	30 e8       	ldi	r19, 0x80	; 128
     58a:	44 ec       	ldi	r20, 0xC4	; 196
     58c:	53 e4       	ldi	r21, 0x43	; 67
     58e:	0e 94 46 04 	call	0x88c	; 0x88c <__subsf3>
     592:	20 e0       	ldi	r18, 0x00	; 0
     594:	30 e0       	ldi	r19, 0x00	; 0
     596:	40 e8       	ldi	r20, 0x80	; 128
     598:	50 e4       	ldi	r21, 0x40	; 64
     59a:	0e 94 b3 05 	call	0xb66	; 0xb66 <__mulsf3>
     59e:	20 e0       	ldi	r18, 0x00	; 0
     5a0:	30 e8       	ldi	r19, 0x80	; 128
     5a2:	4f ef       	ldi	r20, 0xFF	; 255
     5a4:	53 e4       	ldi	r21, 0x43	; 67
     5a6:	0e 94 b3 04 	call	0x966	; 0x966 <__divsf3>
     5aa:	20 e0       	ldi	r18, 0x00	; 0
     5ac:	30 e0       	ldi	r19, 0x00	; 0
     5ae:	40 ec       	ldi	r20, 0xC0	; 192
     5b0:	50 e4       	ldi	r21, 0x40	; 64
     5b2:	0e 94 47 04 	call	0x88e	; 0x88e <__addsf3>
	}
	if(analog>511 && analog <=601){
     5b6:	98 01       	movw	r18, r16
     5b8:	32 50       	subi	r19, 0x02	; 2
     5ba:	2a 35       	cpi	r18, 0x5A	; 90
     5bc:	31 05       	cpc	r19, r1
     5be:	f8 f4       	brcc	.+62     	; 0x5fe <_Z13analog_to_luxi+0x17a>
		coef = 10.0f + 5.0f * (analog - 511.0f) / 601.0f;//1.055f * 10;//(15.0f - 10.0f)/(601.0f-511.0f);
     5c0:	be 01       	movw	r22, r28
     5c2:	0d 2e       	mov	r0, r29
     5c4:	00 0c       	add	r0, r0
     5c6:	88 0b       	sbc	r24, r24
     5c8:	99 0b       	sbc	r25, r25
     5ca:	0e 94 27 05 	call	0xa4e	; 0xa4e <__floatsisf>
     5ce:	20 e0       	ldi	r18, 0x00	; 0
     5d0:	30 e8       	ldi	r19, 0x80	; 128
     5d2:	4f ef       	ldi	r20, 0xFF	; 255
     5d4:	53 e4       	ldi	r21, 0x43	; 67
     5d6:	0e 94 46 04 	call	0x88c	; 0x88c <__subsf3>
     5da:	20 e0       	ldi	r18, 0x00	; 0
     5dc:	30 e0       	ldi	r19, 0x00	; 0
     5de:	40 ea       	ldi	r20, 0xA0	; 160
     5e0:	50 e4       	ldi	r21, 0x40	; 64
     5e2:	0e 94 b3 05 	call	0xb66	; 0xb66 <__mulsf3>
     5e6:	20 e0       	ldi	r18, 0x00	; 0
     5e8:	30 e4       	ldi	r19, 0x40	; 64
     5ea:	46 e1       	ldi	r20, 0x16	; 22
     5ec:	54 e4       	ldi	r21, 0x44	; 68
     5ee:	0e 94 b3 04 	call	0x966	; 0x966 <__divsf3>
     5f2:	20 e0       	ldi	r18, 0x00	; 0
     5f4:	30 e0       	ldi	r19, 0x00	; 0
     5f6:	40 e2       	ldi	r20, 0x20	; 32
     5f8:	51 e4       	ldi	r21, 0x41	; 65
     5fa:	0e 94 47 04 	call	0x88e	; 0x88e <__addsf3>
	}
	if(analog>601 && analog <=682){
     5fe:	98 01       	movw	r18, r16
     600:	2a 55       	subi	r18, 0x5A	; 90
     602:	32 40       	sbci	r19, 0x02	; 2
     604:	21 35       	cpi	r18, 0x51	; 81
     606:	31 05       	cpc	r19, r1
     608:	f8 f4       	brcc	.+62     	; 0x648 <_Z13analog_to_luxi+0x1c4>
		coef = 15.0f + 20.0f * (analog - 601.0f) / 682.0f;//1.2469f * 15;//(35.0f - 15.0f)/(682.0f-601.0f);
     60a:	be 01       	movw	r22, r28
     60c:	0d 2e       	mov	r0, r29
     60e:	00 0c       	add	r0, r0
     610:	88 0b       	sbc	r24, r24
     612:	99 0b       	sbc	r25, r25
     614:	0e 94 27 05 	call	0xa4e	; 0xa4e <__floatsisf>
     618:	20 e0       	ldi	r18, 0x00	; 0
     61a:	30 e4       	ldi	r19, 0x40	; 64
     61c:	46 e1       	ldi	r20, 0x16	; 22
     61e:	54 e4       	ldi	r21, 0x44	; 68
     620:	0e 94 46 04 	call	0x88c	; 0x88c <__subsf3>
     624:	20 e0       	ldi	r18, 0x00	; 0
     626:	30 e0       	ldi	r19, 0x00	; 0
     628:	40 ea       	ldi	r20, 0xA0	; 160
     62a:	51 e4       	ldi	r21, 0x41	; 65
     62c:	0e 94 b3 05 	call	0xb66	; 0xb66 <__mulsf3>
     630:	20 e0       	ldi	r18, 0x00	; 0
     632:	30 e8       	ldi	r19, 0x80	; 128
     634:	4a e2       	ldi	r20, 0x2A	; 42
     636:	54 e4       	ldi	r21, 0x44	; 68
     638:	0e 94 b3 04 	call	0x966	; 0x966 <__divsf3>
     63c:	20 e0       	ldi	r18, 0x00	; 0
     63e:	30 e0       	ldi	r19, 0x00	; 0
     640:	40 e7       	ldi	r20, 0x70	; 112
     642:	51 e4       	ldi	r21, 0x41	; 65
     644:	0e 94 47 04 	call	0x88e	; 0x88e <__addsf3>
	}
	if(analog>682 && analog <=786){
     648:	98 01       	movw	r18, r16
     64a:	2b 5a       	subi	r18, 0xAB	; 171
     64c:	32 40       	sbci	r19, 0x02	; 2
     64e:	28 36       	cpi	r18, 0x68	; 104
     650:	31 05       	cpc	r19, r1
     652:	d8 f4       	brcc	.+54     	; 0x68a <_Z13analog_to_luxi+0x206>
		coef = 35.0f + 45.0f * (analog - 682) / 786.0f;//1.4327f * 35;//(80.0f - 35.0f)/(786.0f-682.0f);
     654:	be 01       	movw	r22, r28
     656:	6a 5a       	subi	r22, 0xAA	; 170
     658:	72 40       	sbci	r23, 0x02	; 2
     65a:	07 2e       	mov	r0, r23
     65c:	00 0c       	add	r0, r0
     65e:	88 0b       	sbc	r24, r24
     660:	99 0b       	sbc	r25, r25
     662:	0e 94 27 05 	call	0xa4e	; 0xa4e <__floatsisf>
     666:	20 e0       	ldi	r18, 0x00	; 0
     668:	30 e0       	ldi	r19, 0x00	; 0
     66a:	44 e3       	ldi	r20, 0x34	; 52
     66c:	52 e4       	ldi	r21, 0x42	; 66
     66e:	0e 94 b3 05 	call	0xb66	; 0xb66 <__mulsf3>
     672:	20 e0       	ldi	r18, 0x00	; 0
     674:	30 e8       	ldi	r19, 0x80	; 128
     676:	44 e4       	ldi	r20, 0x44	; 68
     678:	54 e4       	ldi	r21, 0x44	; 68
     67a:	0e 94 b3 04 	call	0x966	; 0x966 <__divsf3>
     67e:	20 e0       	ldi	r18, 0x00	; 0
     680:	30 e0       	ldi	r19, 0x00	; 0
     682:	4c e0       	ldi	r20, 0x0C	; 12
     684:	52 e4       	ldi	r21, 0x42	; 66
     686:	0e 94 47 04 	call	0x88e	; 0x88e <__addsf3>
	}
	
	if(analog>786 && analog <=930){
     68a:	03 51       	subi	r16, 0x13	; 19
     68c:	13 40       	sbci	r17, 0x03	; 3
     68e:	00 39       	cpi	r16, 0x90	; 144
     690:	11 05       	cpc	r17, r1
     692:	f8 f4       	brcc	.+62     	; 0x6d2 <_Z13analog_to_luxi+0x24e>
		coef = 85.0f + 15.0f * (analog - 786.0f) / 930.0f;//1.138f * 80;//(100.0f - 85.0f)/(930.0f-786.0f);
     694:	be 01       	movw	r22, r28
     696:	0d 2e       	mov	r0, r29
     698:	00 0c       	add	r0, r0
     69a:	88 0b       	sbc	r24, r24
     69c:	99 0b       	sbc	r25, r25
     69e:	0e 94 27 05 	call	0xa4e	; 0xa4e <__floatsisf>
     6a2:	20 e0       	ldi	r18, 0x00	; 0
     6a4:	30 e8       	ldi	r19, 0x80	; 128
     6a6:	44 e4       	ldi	r20, 0x44	; 68
     6a8:	54 e4       	ldi	r21, 0x44	; 68
     6aa:	0e 94 46 04 	call	0x88c	; 0x88c <__subsf3>
     6ae:	20 e0       	ldi	r18, 0x00	; 0
     6b0:	30 e0       	ldi	r19, 0x00	; 0
     6b2:	40 e7       	ldi	r20, 0x70	; 112
     6b4:	51 e4       	ldi	r21, 0x41	; 65
     6b6:	0e 94 b3 05 	call	0xb66	; 0xb66 <__mulsf3>
     6ba:	20 e0       	ldi	r18, 0x00	; 0
     6bc:	30 e8       	ldi	r19, 0x80	; 128
     6be:	48 e6       	ldi	r20, 0x68	; 104
     6c0:	54 e4       	ldi	r21, 0x44	; 68
     6c2:	0e 94 b3 04 	call	0x966	; 0x966 <__divsf3>
     6c6:	20 e0       	ldi	r18, 0x00	; 0
     6c8:	30 e0       	ldi	r19, 0x00	; 0
     6ca:	4a ea       	ldi	r20, 0xAA	; 170
     6cc:	52 e4       	ldi	r21, 0x42	; 66
     6ce:	0e 94 47 04 	call	0x88e	; 0x88e <__addsf3>
	}
	if(analog>930){
     6d2:	c3 3a       	cpi	r28, 0xA3	; 163
     6d4:	d3 40       	sbci	r29, 0x03	; 3
     6d6:	24 f0       	brlt	.+8      	; 0x6e0 <_Z13analog_to_luxi+0x25c>
		coef = 100.0f;
     6d8:	60 e0       	ldi	r22, 0x00	; 0
     6da:	70 e0       	ldi	r23, 0x00	; 0
     6dc:	88 ec       	ldi	r24, 0xC8	; 200
     6de:	92 e4       	ldi	r25, 0x42	; 66
	}
	return coef;
}
     6e0:	df 91       	pop	r29
     6e2:	cf 91       	pop	r28
     6e4:	1f 91       	pop	r17
     6e6:	0f 91       	pop	r16
     6e8:	08 95       	ret

000006ea <_Z5clearv>:

void clear() {
	lcd.setCursor(0, 0);
     6ea:	40 e0       	ldi	r20, 0x00	; 0
     6ec:	60 e0       	ldi	r22, 0x00	; 0
     6ee:	86 eb       	ldi	r24, 0xB6	; 182
     6f0:	91 e0       	ldi	r25, 0x01	; 1
     6f2:	0e 94 39 01 	call	0x272	; 0x272 <_ZN13LiquidCrystal9setCursorEhh>
	lcd.print("                 ");
     6f6:	63 e1       	ldi	r22, 0x13	; 19
     6f8:	71 e0       	ldi	r23, 0x01	; 1
     6fa:	86 eb       	ldi	r24, 0xB6	; 182
     6fc:	91 e0       	ldi	r25, 0x01	; 1
     6fe:	0e 94 fd 07 	call	0xffa	; 0xffa <_ZN5Print5printEPKc>
	lcd.setCursor(0, 1);
     702:	41 e0       	ldi	r20, 0x01	; 1
     704:	60 e0       	ldi	r22, 0x00	; 0
     706:	86 eb       	ldi	r24, 0xB6	; 182
     708:	91 e0       	ldi	r25, 0x01	; 1
     70a:	0e 94 39 01 	call	0x272	; 0x272 <_ZN13LiquidCrystal9setCursorEhh>
	lcd.print("                 ");
     70e:	63 e1       	ldi	r22, 0x13	; 19
     710:	71 e0       	ldi	r23, 0x01	; 1
     712:	86 eb       	ldi	r24, 0xB6	; 182
     714:	91 e0       	ldi	r25, 0x01	; 1
     716:	0e 94 fd 07 	call	0xffa	; 0xffa <_ZN5Print5printEPKc>
     71a:	08 95       	ret

0000071c <loop>:
}

void loop()
{
     71c:	cf 92       	push	r12
     71e:	df 92       	push	r13
     720:	ef 92       	push	r14
     722:	ff 92       	push	r15
	clear();
     724:	0e 94 75 03 	call	0x6ea	; 0x6ea <_Z5clearv>
    adc_key_in = analogRead(1);     // read the value from the sensor  
     728:	81 e0       	ldi	r24, 0x01	; 1
     72a:	0e 94 fa 06 	call	0xdf4	; 0xdf4 <analogRead>
     72e:	90 93 97 01 	sts	0x0197, r25	; 0x800197 <__data_end+0x1>
     732:	80 93 96 01 	sts	0x0196, r24	; 0x800196 <__data_end>
	//lcd.setCursor(0, 0);
	double volt = adc_key_in * 5.0f / 1023;
     736:	bc 01       	movw	r22, r24
     738:	99 0f       	add	r25, r25
     73a:	88 0b       	sbc	r24, r24
     73c:	99 0b       	sbc	r25, r25
     73e:	0e 94 27 05 	call	0xa4e	; 0xa4e <__floatsisf>
     742:	20 e0       	ldi	r18, 0x00	; 0
     744:	30 e0       	ldi	r19, 0x00	; 0
     746:	40 ea       	ldi	r20, 0xA0	; 160
     748:	50 e4       	ldi	r21, 0x40	; 64
     74a:	0e 94 b3 05 	call	0xb66	; 0xb66 <__mulsf3>
     74e:	20 e0       	ldi	r18, 0x00	; 0
     750:	30 ec       	ldi	r19, 0xC0	; 192
     752:	4f e7       	ldi	r20, 0x7F	; 127
     754:	54 e4       	ldi	r21, 0x44	; 68
     756:	0e 94 b3 04 	call	0x966	; 0x966 <__divsf3>
     75a:	6b 01       	movw	r12, r22
     75c:	7c 01       	movw	r14, r24
	//lcd.print("Volt: ");
	//lcd.print(volt);
	lcd.setCursor(0, 0);
     75e:	40 e0       	ldi	r20, 0x00	; 0
     760:	60 e0       	ldi	r22, 0x00	; 0
     762:	86 eb       	ldi	r24, 0xB6	; 182
     764:	91 e0       	ldi	r25, 0x01	; 1
     766:	0e 94 39 01 	call	0x272	; 0x272 <_ZN13LiquidCrystal9setCursorEhh>
	lcd.print("R1: ");
     76a:	65 e2       	ldi	r22, 0x25	; 37
     76c:	71 e0       	ldi	r23, 0x01	; 1
     76e:	86 eb       	ldi	r24, 0xB6	; 182
     770:	91 e0       	ldi	r25, 0x01	; 1
     772:	0e 94 fd 07 	call	0xffa	; 0xffa <_ZN5Print5printEPKc>
	lcd.print((((5-volt)*10)/volt));
     776:	a7 01       	movw	r20, r14
     778:	96 01       	movw	r18, r12
     77a:	60 e0       	ldi	r22, 0x00	; 0
     77c:	70 e0       	ldi	r23, 0x00	; 0
     77e:	80 ea       	ldi	r24, 0xA0	; 160
     780:	90 e4       	ldi	r25, 0x40	; 64
     782:	0e 94 46 04 	call	0x88c	; 0x88c <__subsf3>
     786:	20 e0       	ldi	r18, 0x00	; 0
     788:	30 e0       	ldi	r19, 0x00	; 0
     78a:	40 e2       	ldi	r20, 0x20	; 32
     78c:	51 e4       	ldi	r21, 0x41	; 65
     78e:	0e 94 b3 05 	call	0xb66	; 0xb66 <__mulsf3>
     792:	a7 01       	movw	r20, r14
     794:	96 01       	movw	r18, r12
     796:	0e 94 b3 04 	call	0x966	; 0x966 <__divsf3>
     79a:	ab 01       	movw	r20, r22
     79c:	bc 01       	movw	r22, r24
     79e:	22 e0       	ldi	r18, 0x02	; 2
     7a0:	30 e0       	ldi	r19, 0x00	; 0
     7a2:	86 eb       	ldi	r24, 0xB6	; 182
     7a4:	91 e0       	ldi	r25, 0x01	; 1
     7a6:	0e 94 94 09 	call	0x1328	; 0x1328 <_ZN5Print5printEdi>
	lcd.print("K");
     7aa:	6a e2       	ldi	r22, 0x2A	; 42
     7ac:	71 e0       	ldi	r23, 0x01	; 1
     7ae:	86 eb       	ldi	r24, 0xB6	; 182
     7b0:	91 e0       	ldi	r25, 0x01	; 1
     7b2:	0e 94 fd 07 	call	0xffa	; 0xffa <_ZN5Print5printEPKc>

	//lcd.print(adc_key_in);
	lcd.setCursor(0, 1);
     7b6:	41 e0       	ldi	r20, 0x01	; 1
     7b8:	60 e0       	ldi	r22, 0x00	; 0
     7ba:	86 eb       	ldi	r24, 0xB6	; 182
     7bc:	91 e0       	ldi	r25, 0x01	; 1
     7be:	0e 94 39 01 	call	0x272	; 0x272 <_ZN13LiquidCrystal9setCursorEhh>
	double lux = analog_to_lux(adc_key_in);//exp(adc_key_in / 195.0f);
     7c2:	80 91 96 01 	lds	r24, 0x0196	; 0x800196 <__data_end>
     7c6:	90 91 97 01 	lds	r25, 0x0197	; 0x800197 <__data_end+0x1>
     7ca:	0e 94 42 02 	call	0x484	; 0x484 <_Z13analog_to_luxi>
     7ce:	6b 01       	movw	r12, r22
     7d0:	7c 01       	movw	r14, r24
	lcd.print("LUX: ");
     7d2:	6c e2       	ldi	r22, 0x2C	; 44
     7d4:	71 e0       	ldi	r23, 0x01	; 1
     7d6:	86 eb       	ldi	r24, 0xB6	; 182
     7d8:	91 e0       	ldi	r25, 0x01	; 1
     7da:	0e 94 fd 07 	call	0xffa	; 0xffa <_ZN5Print5printEPKc>
	lcd.print(lux);
     7de:	22 e0       	ldi	r18, 0x02	; 2
     7e0:	30 e0       	ldi	r19, 0x00	; 0
     7e2:	b7 01       	movw	r22, r14
     7e4:	a6 01       	movw	r20, r12
     7e6:	86 eb       	ldi	r24, 0xB6	; 182
     7e8:	91 e0       	ldi	r25, 0x01	; 1
     7ea:	0e 94 94 09 	call	0x1328	; 0x1328 <_ZN5Print5printEdi>
	delay(1000);
     7ee:	68 ee       	ldi	r22, 0xE8	; 232
     7f0:	73 e0       	ldi	r23, 0x03	; 3
     7f2:	80 e0       	ldi	r24, 0x00	; 0
     7f4:	90 e0       	ldi	r25, 0x00	; 0
     7f6:	0e 94 8d 06 	call	0xd1a	; 0xd1a <delay>
}
     7fa:	ff 90       	pop	r15
     7fc:	ef 90       	pop	r14
     7fe:	df 90       	pop	r13
     800:	cf 90       	pop	r12
     802:	08 95       	ret

00000804 <_GLOBAL__sub_I_lcd>:
     804:	cf 92       	push	r12
     806:	ef 92       	push	r14
     808:	0f 93       	push	r16
// your LCD using them:
const int numRows = 2;
const int numCols = 16;

// initialize the library with the numbers of the interface pins
LiquidCrystal lcd(8, 9, 4, 5, 6, 7);
     80a:	0f 2e       	mov	r0, r31
     80c:	f7 e0       	ldi	r31, 0x07	; 7
     80e:	cf 2e       	mov	r12, r31
     810:	f0 2d       	mov	r31, r0
     812:	0f 2e       	mov	r0, r31
     814:	f6 e0       	ldi	r31, 0x06	; 6
     816:	ef 2e       	mov	r14, r31
     818:	f0 2d       	mov	r31, r0
     81a:	05 e0       	ldi	r16, 0x05	; 5
     81c:	24 e0       	ldi	r18, 0x04	; 4
     81e:	49 e0       	ldi	r20, 0x09	; 9
     820:	68 e0       	ldi	r22, 0x08	; 8
     822:	86 eb       	ldi	r24, 0xB6	; 182
     824:	91 e0       	ldi	r25, 0x01	; 1
     826:	0e 94 13 02 	call	0x426	; 0x426 <_ZN13LiquidCrystalC1Ehhhhhh>
//Key message
String msgs[5] = {" Right Key:  OK ", 
                    " Up Key:     OK ", 
                    " Down Key:   OK ", 
                    " Left Key:   OK ", 
                    " Select Key: OK "};
     82a:	62 e3       	ldi	r22, 0x32	; 50
     82c:	71 e0       	ldi	r23, 0x01	; 1
     82e:	88 e9       	ldi	r24, 0x98	; 152
     830:	91 e0       	ldi	r25, 0x01	; 1
     832:	0e 94 04 0a 	call	0x1408	; 0x1408 <_ZN6StringC1EPKc>
     836:	63 e4       	ldi	r22, 0x43	; 67
     838:	71 e0       	ldi	r23, 0x01	; 1
     83a:	8e e9       	ldi	r24, 0x9E	; 158
     83c:	91 e0       	ldi	r25, 0x01	; 1
     83e:	0e 94 04 0a 	call	0x1408	; 0x1408 <_ZN6StringC1EPKc>
     842:	64 e5       	ldi	r22, 0x54	; 84
     844:	71 e0       	ldi	r23, 0x01	; 1
     846:	84 ea       	ldi	r24, 0xA4	; 164
     848:	91 e0       	ldi	r25, 0x01	; 1
     84a:	0e 94 04 0a 	call	0x1408	; 0x1408 <_ZN6StringC1EPKc>
     84e:	65 e6       	ldi	r22, 0x65	; 101
     850:	71 e0       	ldi	r23, 0x01	; 1
     852:	8a ea       	ldi	r24, 0xAA	; 170
     854:	91 e0       	ldi	r25, 0x01	; 1
     856:	0e 94 04 0a 	call	0x1408	; 0x1408 <_ZN6StringC1EPKc>
     85a:	66 e7       	ldi	r22, 0x76	; 118
     85c:	71 e0       	ldi	r23, 0x01	; 1
     85e:	80 eb       	ldi	r24, 0xB0	; 176
     860:	91 e0       	ldi	r25, 0x01	; 1
     862:	0e 94 04 0a 	call	0x1408	; 0x1408 <_ZN6StringC1EPKc>
	lcd.setCursor(0, 1);
	double lux = analog_to_lux(adc_key_in);//exp(adc_key_in / 195.0f);
	lcd.print("LUX: ");
	lcd.print(lux);
	delay(1000);
}
     866:	0f 91       	pop	r16
     868:	ef 90       	pop	r14
     86a:	cf 90       	pop	r12
     86c:	08 95       	ret

0000086e <_GLOBAL__sub_D_lcd>:
     86e:	cf 93       	push	r28
     870:	df 93       	push	r29
     872:	c6 eb       	ldi	r28, 0xB6	; 182
     874:	d1 e0       	ldi	r29, 0x01	; 1

// initialize the library with the numbers of the interface pins
LiquidCrystal lcd(8, 9, 4, 5, 6, 7);

//Key message
String msgs[5] = {" Right Key:  OK ", 
     876:	26 97       	sbiw	r28, 0x06	; 6
     878:	ce 01       	movw	r24, r28
     87a:	0e 94 96 09 	call	0x132c	; 0x132c <_ZN6StringD1Ev>
     87e:	81 e0       	ldi	r24, 0x01	; 1
     880:	c8 39       	cpi	r28, 0x98	; 152
     882:	d8 07       	cpc	r29, r24
     884:	c1 f7       	brne	.-16     	; 0x876 <_GLOBAL__sub_D_lcd+0x8>
	lcd.setCursor(0, 1);
	double lux = analog_to_lux(adc_key_in);//exp(adc_key_in / 195.0f);
	lcd.print("LUX: ");
	lcd.print(lux);
	delay(1000);
}
     886:	df 91       	pop	r29
     888:	cf 91       	pop	r28
     88a:	08 95       	ret

0000088c <__subsf3>:
     88c:	50 58       	subi	r21, 0x80	; 128

0000088e <__addsf3>:
     88e:	bb 27       	eor	r27, r27
     890:	aa 27       	eor	r26, r26
     892:	0e 94 5e 04 	call	0x8bc	; 0x8bc <__addsf3x>
     896:	0c 94 79 05 	jmp	0xaf2	; 0xaf2 <__fp_round>
     89a:	0e 94 6b 05 	call	0xad6	; 0xad6 <__fp_pscA>
     89e:	38 f0       	brcs	.+14     	; 0x8ae <__addsf3+0x20>
     8a0:	0e 94 72 05 	call	0xae4	; 0xae4 <__fp_pscB>
     8a4:	20 f0       	brcs	.+8      	; 0x8ae <__addsf3+0x20>
     8a6:	39 f4       	brne	.+14     	; 0x8b6 <__addsf3+0x28>
     8a8:	9f 3f       	cpi	r25, 0xFF	; 255
     8aa:	19 f4       	brne	.+6      	; 0x8b2 <__addsf3+0x24>
     8ac:	26 f4       	brtc	.+8      	; 0x8b6 <__addsf3+0x28>
     8ae:	0c 94 68 05 	jmp	0xad0	; 0xad0 <__fp_nan>
     8b2:	0e f4       	brtc	.+2      	; 0x8b6 <__addsf3+0x28>
     8b4:	e0 95       	com	r30
     8b6:	e7 fb       	bst	r30, 7
     8b8:	0c 94 62 05 	jmp	0xac4	; 0xac4 <__fp_inf>

000008bc <__addsf3x>:
     8bc:	e9 2f       	mov	r30, r25
     8be:	0e 94 8a 05 	call	0xb14	; 0xb14 <__fp_split3>
     8c2:	58 f3       	brcs	.-42     	; 0x89a <__addsf3+0xc>
     8c4:	ba 17       	cp	r27, r26
     8c6:	62 07       	cpc	r22, r18
     8c8:	73 07       	cpc	r23, r19
     8ca:	84 07       	cpc	r24, r20
     8cc:	95 07       	cpc	r25, r21
     8ce:	20 f0       	brcs	.+8      	; 0x8d8 <__addsf3x+0x1c>
     8d0:	79 f4       	brne	.+30     	; 0x8f0 <__addsf3x+0x34>
     8d2:	a6 f5       	brtc	.+104    	; 0x93c <__stack+0x3d>
     8d4:	0c 94 ac 05 	jmp	0xb58	; 0xb58 <__fp_zero>
     8d8:	0e f4       	brtc	.+2      	; 0x8dc <__addsf3x+0x20>
     8da:	e0 95       	com	r30
     8dc:	0b 2e       	mov	r0, r27
     8de:	ba 2f       	mov	r27, r26
     8e0:	a0 2d       	mov	r26, r0
     8e2:	0b 01       	movw	r0, r22
     8e4:	b9 01       	movw	r22, r18
     8e6:	90 01       	movw	r18, r0
     8e8:	0c 01       	movw	r0, r24
     8ea:	ca 01       	movw	r24, r20
     8ec:	a0 01       	movw	r20, r0
     8ee:	11 24       	eor	r1, r1
     8f0:	ff 27       	eor	r31, r31
     8f2:	59 1b       	sub	r21, r25
     8f4:	99 f0       	breq	.+38     	; 0x91c <__stack+0x1d>
     8f6:	59 3f       	cpi	r21, 0xF9	; 249
     8f8:	50 f4       	brcc	.+20     	; 0x90e <__stack+0xf>
     8fa:	50 3e       	cpi	r21, 0xE0	; 224
     8fc:	68 f1       	brcs	.+90     	; 0x958 <__stack+0x59>
     8fe:	1a 16       	cp	r1, r26
     900:	f0 40       	sbci	r31, 0x00	; 0
     902:	a2 2f       	mov	r26, r18
     904:	23 2f       	mov	r18, r19
     906:	34 2f       	mov	r19, r20
     908:	44 27       	eor	r20, r20
     90a:	58 5f       	subi	r21, 0xF8	; 248
     90c:	f3 cf       	rjmp	.-26     	; 0x8f4 <__addsf3x+0x38>
     90e:	46 95       	lsr	r20
     910:	37 95       	ror	r19
     912:	27 95       	ror	r18
     914:	a7 95       	ror	r26
     916:	f0 40       	sbci	r31, 0x00	; 0
     918:	53 95       	inc	r21
     91a:	c9 f7       	brne	.-14     	; 0x90e <__stack+0xf>
     91c:	7e f4       	brtc	.+30     	; 0x93c <__stack+0x3d>
     91e:	1f 16       	cp	r1, r31
     920:	ba 0b       	sbc	r27, r26
     922:	62 0b       	sbc	r22, r18
     924:	73 0b       	sbc	r23, r19
     926:	84 0b       	sbc	r24, r20
     928:	ba f0       	brmi	.+46     	; 0x958 <__stack+0x59>
     92a:	91 50       	subi	r25, 0x01	; 1
     92c:	a1 f0       	breq	.+40     	; 0x956 <__stack+0x57>
     92e:	ff 0f       	add	r31, r31
     930:	bb 1f       	adc	r27, r27
     932:	66 1f       	adc	r22, r22
     934:	77 1f       	adc	r23, r23
     936:	88 1f       	adc	r24, r24
     938:	c2 f7       	brpl	.-16     	; 0x92a <__stack+0x2b>
     93a:	0e c0       	rjmp	.+28     	; 0x958 <__stack+0x59>
     93c:	ba 0f       	add	r27, r26
     93e:	62 1f       	adc	r22, r18
     940:	73 1f       	adc	r23, r19
     942:	84 1f       	adc	r24, r20
     944:	48 f4       	brcc	.+18     	; 0x958 <__stack+0x59>
     946:	87 95       	ror	r24
     948:	77 95       	ror	r23
     94a:	67 95       	ror	r22
     94c:	b7 95       	ror	r27
     94e:	f7 95       	ror	r31
     950:	9e 3f       	cpi	r25, 0xFE	; 254
     952:	08 f0       	brcs	.+2      	; 0x956 <__stack+0x57>
     954:	b0 cf       	rjmp	.-160    	; 0x8b6 <__addsf3+0x28>
     956:	93 95       	inc	r25
     958:	88 0f       	add	r24, r24
     95a:	08 f0       	brcs	.+2      	; 0x95e <__stack+0x5f>
     95c:	99 27       	eor	r25, r25
     95e:	ee 0f       	add	r30, r30
     960:	97 95       	ror	r25
     962:	87 95       	ror	r24
     964:	08 95       	ret

00000966 <__divsf3>:
     966:	0e 94 c7 04 	call	0x98e	; 0x98e <__divsf3x>
     96a:	0c 94 79 05 	jmp	0xaf2	; 0xaf2 <__fp_round>
     96e:	0e 94 72 05 	call	0xae4	; 0xae4 <__fp_pscB>
     972:	58 f0       	brcs	.+22     	; 0x98a <__divsf3+0x24>
     974:	0e 94 6b 05 	call	0xad6	; 0xad6 <__fp_pscA>
     978:	40 f0       	brcs	.+16     	; 0x98a <__divsf3+0x24>
     97a:	29 f4       	brne	.+10     	; 0x986 <__divsf3+0x20>
     97c:	5f 3f       	cpi	r21, 0xFF	; 255
     97e:	29 f0       	breq	.+10     	; 0x98a <__divsf3+0x24>
     980:	0c 94 62 05 	jmp	0xac4	; 0xac4 <__fp_inf>
     984:	51 11       	cpse	r21, r1
     986:	0c 94 ad 05 	jmp	0xb5a	; 0xb5a <__fp_szero>
     98a:	0c 94 68 05 	jmp	0xad0	; 0xad0 <__fp_nan>

0000098e <__divsf3x>:
     98e:	0e 94 8a 05 	call	0xb14	; 0xb14 <__fp_split3>
     992:	68 f3       	brcs	.-38     	; 0x96e <__divsf3+0x8>

00000994 <__divsf3_pse>:
     994:	99 23       	and	r25, r25
     996:	b1 f3       	breq	.-20     	; 0x984 <__divsf3+0x1e>
     998:	55 23       	and	r21, r21
     99a:	91 f3       	breq	.-28     	; 0x980 <__divsf3+0x1a>
     99c:	95 1b       	sub	r25, r21
     99e:	55 0b       	sbc	r21, r21
     9a0:	bb 27       	eor	r27, r27
     9a2:	aa 27       	eor	r26, r26
     9a4:	62 17       	cp	r22, r18
     9a6:	73 07       	cpc	r23, r19
     9a8:	84 07       	cpc	r24, r20
     9aa:	38 f0       	brcs	.+14     	; 0x9ba <__divsf3_pse+0x26>
     9ac:	9f 5f       	subi	r25, 0xFF	; 255
     9ae:	5f 4f       	sbci	r21, 0xFF	; 255
     9b0:	22 0f       	add	r18, r18
     9b2:	33 1f       	adc	r19, r19
     9b4:	44 1f       	adc	r20, r20
     9b6:	aa 1f       	adc	r26, r26
     9b8:	a9 f3       	breq	.-22     	; 0x9a4 <__divsf3_pse+0x10>
     9ba:	35 d0       	rcall	.+106    	; 0xa26 <__divsf3_pse+0x92>
     9bc:	0e 2e       	mov	r0, r30
     9be:	3a f0       	brmi	.+14     	; 0x9ce <__divsf3_pse+0x3a>
     9c0:	e0 e8       	ldi	r30, 0x80	; 128
     9c2:	32 d0       	rcall	.+100    	; 0xa28 <__divsf3_pse+0x94>
     9c4:	91 50       	subi	r25, 0x01	; 1
     9c6:	50 40       	sbci	r21, 0x00	; 0
     9c8:	e6 95       	lsr	r30
     9ca:	00 1c       	adc	r0, r0
     9cc:	ca f7       	brpl	.-14     	; 0x9c0 <__divsf3_pse+0x2c>
     9ce:	2b d0       	rcall	.+86     	; 0xa26 <__divsf3_pse+0x92>
     9d0:	fe 2f       	mov	r31, r30
     9d2:	29 d0       	rcall	.+82     	; 0xa26 <__divsf3_pse+0x92>
     9d4:	66 0f       	add	r22, r22
     9d6:	77 1f       	adc	r23, r23
     9d8:	88 1f       	adc	r24, r24
     9da:	bb 1f       	adc	r27, r27
     9dc:	26 17       	cp	r18, r22
     9de:	37 07       	cpc	r19, r23
     9e0:	48 07       	cpc	r20, r24
     9e2:	ab 07       	cpc	r26, r27
     9e4:	b0 e8       	ldi	r27, 0x80	; 128
     9e6:	09 f0       	breq	.+2      	; 0x9ea <__divsf3_pse+0x56>
     9e8:	bb 0b       	sbc	r27, r27
     9ea:	80 2d       	mov	r24, r0
     9ec:	bf 01       	movw	r22, r30
     9ee:	ff 27       	eor	r31, r31
     9f0:	93 58       	subi	r25, 0x83	; 131
     9f2:	5f 4f       	sbci	r21, 0xFF	; 255
     9f4:	3a f0       	brmi	.+14     	; 0xa04 <__divsf3_pse+0x70>
     9f6:	9e 3f       	cpi	r25, 0xFE	; 254
     9f8:	51 05       	cpc	r21, r1
     9fa:	78 f0       	brcs	.+30     	; 0xa1a <__divsf3_pse+0x86>
     9fc:	0c 94 62 05 	jmp	0xac4	; 0xac4 <__fp_inf>
     a00:	0c 94 ad 05 	jmp	0xb5a	; 0xb5a <__fp_szero>
     a04:	5f 3f       	cpi	r21, 0xFF	; 255
     a06:	e4 f3       	brlt	.-8      	; 0xa00 <__divsf3_pse+0x6c>
     a08:	98 3e       	cpi	r25, 0xE8	; 232
     a0a:	d4 f3       	brlt	.-12     	; 0xa00 <__divsf3_pse+0x6c>
     a0c:	86 95       	lsr	r24
     a0e:	77 95       	ror	r23
     a10:	67 95       	ror	r22
     a12:	b7 95       	ror	r27
     a14:	f7 95       	ror	r31
     a16:	9f 5f       	subi	r25, 0xFF	; 255
     a18:	c9 f7       	brne	.-14     	; 0xa0c <__divsf3_pse+0x78>
     a1a:	88 0f       	add	r24, r24
     a1c:	91 1d       	adc	r25, r1
     a1e:	96 95       	lsr	r25
     a20:	87 95       	ror	r24
     a22:	97 f9       	bld	r25, 7
     a24:	08 95       	ret
     a26:	e1 e0       	ldi	r30, 0x01	; 1
     a28:	66 0f       	add	r22, r22
     a2a:	77 1f       	adc	r23, r23
     a2c:	88 1f       	adc	r24, r24
     a2e:	bb 1f       	adc	r27, r27
     a30:	62 17       	cp	r22, r18
     a32:	73 07       	cpc	r23, r19
     a34:	84 07       	cpc	r24, r20
     a36:	ba 07       	cpc	r27, r26
     a38:	20 f0       	brcs	.+8      	; 0xa42 <__divsf3_pse+0xae>
     a3a:	62 1b       	sub	r22, r18
     a3c:	73 0b       	sbc	r23, r19
     a3e:	84 0b       	sbc	r24, r20
     a40:	ba 0b       	sbc	r27, r26
     a42:	ee 1f       	adc	r30, r30
     a44:	88 f7       	brcc	.-30     	; 0xa28 <__divsf3_pse+0x94>
     a46:	e0 95       	com	r30
     a48:	08 95       	ret

00000a4a <__floatunsisf>:
     a4a:	e8 94       	clt
     a4c:	09 c0       	rjmp	.+18     	; 0xa60 <__floatsisf+0x12>

00000a4e <__floatsisf>:
     a4e:	97 fb       	bst	r25, 7
     a50:	3e f4       	brtc	.+14     	; 0xa60 <__floatsisf+0x12>
     a52:	90 95       	com	r25
     a54:	80 95       	com	r24
     a56:	70 95       	com	r23
     a58:	61 95       	neg	r22
     a5a:	7f 4f       	sbci	r23, 0xFF	; 255
     a5c:	8f 4f       	sbci	r24, 0xFF	; 255
     a5e:	9f 4f       	sbci	r25, 0xFF	; 255
     a60:	99 23       	and	r25, r25
     a62:	a9 f0       	breq	.+42     	; 0xa8e <__floatsisf+0x40>
     a64:	f9 2f       	mov	r31, r25
     a66:	96 e9       	ldi	r25, 0x96	; 150
     a68:	bb 27       	eor	r27, r27
     a6a:	93 95       	inc	r25
     a6c:	f6 95       	lsr	r31
     a6e:	87 95       	ror	r24
     a70:	77 95       	ror	r23
     a72:	67 95       	ror	r22
     a74:	b7 95       	ror	r27
     a76:	f1 11       	cpse	r31, r1
     a78:	f8 cf       	rjmp	.-16     	; 0xa6a <__floatsisf+0x1c>
     a7a:	fa f4       	brpl	.+62     	; 0xaba <__floatsisf+0x6c>
     a7c:	bb 0f       	add	r27, r27
     a7e:	11 f4       	brne	.+4      	; 0xa84 <__floatsisf+0x36>
     a80:	60 ff       	sbrs	r22, 0
     a82:	1b c0       	rjmp	.+54     	; 0xaba <__floatsisf+0x6c>
     a84:	6f 5f       	subi	r22, 0xFF	; 255
     a86:	7f 4f       	sbci	r23, 0xFF	; 255
     a88:	8f 4f       	sbci	r24, 0xFF	; 255
     a8a:	9f 4f       	sbci	r25, 0xFF	; 255
     a8c:	16 c0       	rjmp	.+44     	; 0xaba <__floatsisf+0x6c>
     a8e:	88 23       	and	r24, r24
     a90:	11 f0       	breq	.+4      	; 0xa96 <__floatsisf+0x48>
     a92:	96 e9       	ldi	r25, 0x96	; 150
     a94:	11 c0       	rjmp	.+34     	; 0xab8 <__floatsisf+0x6a>
     a96:	77 23       	and	r23, r23
     a98:	21 f0       	breq	.+8      	; 0xaa2 <__floatsisf+0x54>
     a9a:	9e e8       	ldi	r25, 0x8E	; 142
     a9c:	87 2f       	mov	r24, r23
     a9e:	76 2f       	mov	r23, r22
     aa0:	05 c0       	rjmp	.+10     	; 0xaac <__floatsisf+0x5e>
     aa2:	66 23       	and	r22, r22
     aa4:	71 f0       	breq	.+28     	; 0xac2 <__floatsisf+0x74>
     aa6:	96 e8       	ldi	r25, 0x86	; 134
     aa8:	86 2f       	mov	r24, r22
     aaa:	70 e0       	ldi	r23, 0x00	; 0
     aac:	60 e0       	ldi	r22, 0x00	; 0
     aae:	2a f0       	brmi	.+10     	; 0xaba <__floatsisf+0x6c>
     ab0:	9a 95       	dec	r25
     ab2:	66 0f       	add	r22, r22
     ab4:	77 1f       	adc	r23, r23
     ab6:	88 1f       	adc	r24, r24
     ab8:	da f7       	brpl	.-10     	; 0xab0 <__floatsisf+0x62>
     aba:	88 0f       	add	r24, r24
     abc:	96 95       	lsr	r25
     abe:	87 95       	ror	r24
     ac0:	97 f9       	bld	r25, 7
     ac2:	08 95       	ret

00000ac4 <__fp_inf>:
     ac4:	97 f9       	bld	r25, 7
     ac6:	9f 67       	ori	r25, 0x7F	; 127
     ac8:	80 e8       	ldi	r24, 0x80	; 128
     aca:	70 e0       	ldi	r23, 0x00	; 0
     acc:	60 e0       	ldi	r22, 0x00	; 0
     ace:	08 95       	ret

00000ad0 <__fp_nan>:
     ad0:	9f ef       	ldi	r25, 0xFF	; 255
     ad2:	80 ec       	ldi	r24, 0xC0	; 192
     ad4:	08 95       	ret

00000ad6 <__fp_pscA>:
     ad6:	00 24       	eor	r0, r0
     ad8:	0a 94       	dec	r0
     ada:	16 16       	cp	r1, r22
     adc:	17 06       	cpc	r1, r23
     ade:	18 06       	cpc	r1, r24
     ae0:	09 06       	cpc	r0, r25
     ae2:	08 95       	ret

00000ae4 <__fp_pscB>:
     ae4:	00 24       	eor	r0, r0
     ae6:	0a 94       	dec	r0
     ae8:	12 16       	cp	r1, r18
     aea:	13 06       	cpc	r1, r19
     aec:	14 06       	cpc	r1, r20
     aee:	05 06       	cpc	r0, r21
     af0:	08 95       	ret

00000af2 <__fp_round>:
     af2:	09 2e       	mov	r0, r25
     af4:	03 94       	inc	r0
     af6:	00 0c       	add	r0, r0
     af8:	11 f4       	brne	.+4      	; 0xafe <__fp_round+0xc>
     afa:	88 23       	and	r24, r24
     afc:	52 f0       	brmi	.+20     	; 0xb12 <__fp_round+0x20>
     afe:	bb 0f       	add	r27, r27
     b00:	40 f4       	brcc	.+16     	; 0xb12 <__fp_round+0x20>
     b02:	bf 2b       	or	r27, r31
     b04:	11 f4       	brne	.+4      	; 0xb0a <__fp_round+0x18>
     b06:	60 ff       	sbrs	r22, 0
     b08:	04 c0       	rjmp	.+8      	; 0xb12 <__fp_round+0x20>
     b0a:	6f 5f       	subi	r22, 0xFF	; 255
     b0c:	7f 4f       	sbci	r23, 0xFF	; 255
     b0e:	8f 4f       	sbci	r24, 0xFF	; 255
     b10:	9f 4f       	sbci	r25, 0xFF	; 255
     b12:	08 95       	ret

00000b14 <__fp_split3>:
     b14:	57 fd       	sbrc	r21, 7
     b16:	90 58       	subi	r25, 0x80	; 128
     b18:	44 0f       	add	r20, r20
     b1a:	55 1f       	adc	r21, r21
     b1c:	59 f0       	breq	.+22     	; 0xb34 <__fp_splitA+0x10>
     b1e:	5f 3f       	cpi	r21, 0xFF	; 255
     b20:	71 f0       	breq	.+28     	; 0xb3e <__fp_splitA+0x1a>
     b22:	47 95       	ror	r20

00000b24 <__fp_splitA>:
     b24:	88 0f       	add	r24, r24
     b26:	97 fb       	bst	r25, 7
     b28:	99 1f       	adc	r25, r25
     b2a:	61 f0       	breq	.+24     	; 0xb44 <__fp_splitA+0x20>
     b2c:	9f 3f       	cpi	r25, 0xFF	; 255
     b2e:	79 f0       	breq	.+30     	; 0xb4e <__fp_splitA+0x2a>
     b30:	87 95       	ror	r24
     b32:	08 95       	ret
     b34:	12 16       	cp	r1, r18
     b36:	13 06       	cpc	r1, r19
     b38:	14 06       	cpc	r1, r20
     b3a:	55 1f       	adc	r21, r21
     b3c:	f2 cf       	rjmp	.-28     	; 0xb22 <__fp_split3+0xe>
     b3e:	46 95       	lsr	r20
     b40:	f1 df       	rcall	.-30     	; 0xb24 <__fp_splitA>
     b42:	08 c0       	rjmp	.+16     	; 0xb54 <__fp_splitA+0x30>
     b44:	16 16       	cp	r1, r22
     b46:	17 06       	cpc	r1, r23
     b48:	18 06       	cpc	r1, r24
     b4a:	99 1f       	adc	r25, r25
     b4c:	f1 cf       	rjmp	.-30     	; 0xb30 <__fp_splitA+0xc>
     b4e:	86 95       	lsr	r24
     b50:	71 05       	cpc	r23, r1
     b52:	61 05       	cpc	r22, r1
     b54:	08 94       	sec
     b56:	08 95       	ret

00000b58 <__fp_zero>:
     b58:	e8 94       	clt

00000b5a <__fp_szero>:
     b5a:	bb 27       	eor	r27, r27
     b5c:	66 27       	eor	r22, r22
     b5e:	77 27       	eor	r23, r23
     b60:	cb 01       	movw	r24, r22
     b62:	97 f9       	bld	r25, 7
     b64:	08 95       	ret

00000b66 <__mulsf3>:
     b66:	0e 94 c6 05 	call	0xb8c	; 0xb8c <__mulsf3x>
     b6a:	0c 94 79 05 	jmp	0xaf2	; 0xaf2 <__fp_round>
     b6e:	0e 94 6b 05 	call	0xad6	; 0xad6 <__fp_pscA>
     b72:	38 f0       	brcs	.+14     	; 0xb82 <__mulsf3+0x1c>
     b74:	0e 94 72 05 	call	0xae4	; 0xae4 <__fp_pscB>
     b78:	20 f0       	brcs	.+8      	; 0xb82 <__mulsf3+0x1c>
     b7a:	95 23       	and	r25, r21
     b7c:	11 f0       	breq	.+4      	; 0xb82 <__mulsf3+0x1c>
     b7e:	0c 94 62 05 	jmp	0xac4	; 0xac4 <__fp_inf>
     b82:	0c 94 68 05 	jmp	0xad0	; 0xad0 <__fp_nan>
     b86:	11 24       	eor	r1, r1
     b88:	0c 94 ad 05 	jmp	0xb5a	; 0xb5a <__fp_szero>

00000b8c <__mulsf3x>:
     b8c:	0e 94 8a 05 	call	0xb14	; 0xb14 <__fp_split3>
     b90:	70 f3       	brcs	.-36     	; 0xb6e <__mulsf3+0x8>

00000b92 <__mulsf3_pse>:
     b92:	95 9f       	mul	r25, r21
     b94:	c1 f3       	breq	.-16     	; 0xb86 <__mulsf3+0x20>
     b96:	95 0f       	add	r25, r21
     b98:	50 e0       	ldi	r21, 0x00	; 0
     b9a:	55 1f       	adc	r21, r21
     b9c:	62 9f       	mul	r22, r18
     b9e:	f0 01       	movw	r30, r0
     ba0:	72 9f       	mul	r23, r18
     ba2:	bb 27       	eor	r27, r27
     ba4:	f0 0d       	add	r31, r0
     ba6:	b1 1d       	adc	r27, r1
     ba8:	63 9f       	mul	r22, r19
     baa:	aa 27       	eor	r26, r26
     bac:	f0 0d       	add	r31, r0
     bae:	b1 1d       	adc	r27, r1
     bb0:	aa 1f       	adc	r26, r26
     bb2:	64 9f       	mul	r22, r20
     bb4:	66 27       	eor	r22, r22
     bb6:	b0 0d       	add	r27, r0
     bb8:	a1 1d       	adc	r26, r1
     bba:	66 1f       	adc	r22, r22
     bbc:	82 9f       	mul	r24, r18
     bbe:	22 27       	eor	r18, r18
     bc0:	b0 0d       	add	r27, r0
     bc2:	a1 1d       	adc	r26, r1
     bc4:	62 1f       	adc	r22, r18
     bc6:	73 9f       	mul	r23, r19
     bc8:	b0 0d       	add	r27, r0
     bca:	a1 1d       	adc	r26, r1
     bcc:	62 1f       	adc	r22, r18
     bce:	83 9f       	mul	r24, r19
     bd0:	a0 0d       	add	r26, r0
     bd2:	61 1d       	adc	r22, r1
     bd4:	22 1f       	adc	r18, r18
     bd6:	74 9f       	mul	r23, r20
     bd8:	33 27       	eor	r19, r19
     bda:	a0 0d       	add	r26, r0
     bdc:	61 1d       	adc	r22, r1
     bde:	23 1f       	adc	r18, r19
     be0:	84 9f       	mul	r24, r20
     be2:	60 0d       	add	r22, r0
     be4:	21 1d       	adc	r18, r1
     be6:	82 2f       	mov	r24, r18
     be8:	76 2f       	mov	r23, r22
     bea:	6a 2f       	mov	r22, r26
     bec:	11 24       	eor	r1, r1
     bee:	9f 57       	subi	r25, 0x7F	; 127
     bf0:	50 40       	sbci	r21, 0x00	; 0
     bf2:	9a f0       	brmi	.+38     	; 0xc1a <__mulsf3_pse+0x88>
     bf4:	f1 f0       	breq	.+60     	; 0xc32 <__mulsf3_pse+0xa0>
     bf6:	88 23       	and	r24, r24
     bf8:	4a f0       	brmi	.+18     	; 0xc0c <__mulsf3_pse+0x7a>
     bfa:	ee 0f       	add	r30, r30
     bfc:	ff 1f       	adc	r31, r31
     bfe:	bb 1f       	adc	r27, r27
     c00:	66 1f       	adc	r22, r22
     c02:	77 1f       	adc	r23, r23
     c04:	88 1f       	adc	r24, r24
     c06:	91 50       	subi	r25, 0x01	; 1
     c08:	50 40       	sbci	r21, 0x00	; 0
     c0a:	a9 f7       	brne	.-22     	; 0xbf6 <__mulsf3_pse+0x64>
     c0c:	9e 3f       	cpi	r25, 0xFE	; 254
     c0e:	51 05       	cpc	r21, r1
     c10:	80 f0       	brcs	.+32     	; 0xc32 <__mulsf3_pse+0xa0>
     c12:	0c 94 62 05 	jmp	0xac4	; 0xac4 <__fp_inf>
     c16:	0c 94 ad 05 	jmp	0xb5a	; 0xb5a <__fp_szero>
     c1a:	5f 3f       	cpi	r21, 0xFF	; 255
     c1c:	e4 f3       	brlt	.-8      	; 0xc16 <__mulsf3_pse+0x84>
     c1e:	98 3e       	cpi	r25, 0xE8	; 232
     c20:	d4 f3       	brlt	.-12     	; 0xc16 <__mulsf3_pse+0x84>
     c22:	86 95       	lsr	r24
     c24:	77 95       	ror	r23
     c26:	67 95       	ror	r22
     c28:	b7 95       	ror	r27
     c2a:	f7 95       	ror	r31
     c2c:	e7 95       	ror	r30
     c2e:	9f 5f       	subi	r25, 0xFF	; 255
     c30:	c1 f7       	brne	.-16     	; 0xc22 <__mulsf3_pse+0x90>
     c32:	fe 2b       	or	r31, r30
     c34:	88 0f       	add	r24, r24
     c36:	91 1d       	adc	r25, r1
     c38:	96 95       	lsr	r25
     c3a:	87 95       	ror	r24
     c3c:	97 f9       	bld	r25, 7
     c3e:	08 95       	ret

00000c40 <__vector_16>:
     c40:	1f 92       	push	r1
     c42:	0f 92       	push	r0
     c44:	0f b6       	in	r0, 0x3f	; 63
     c46:	0f 92       	push	r0
     c48:	11 24       	eor	r1, r1
     c4a:	2f 93       	push	r18
     c4c:	3f 93       	push	r19
     c4e:	8f 93       	push	r24
     c50:	9f 93       	push	r25
     c52:	af 93       	push	r26
     c54:	bf 93       	push	r27
     c56:	80 91 cf 01 	lds	r24, 0x01CF	; 0x8001cf <timer0_millis>
     c5a:	90 91 d0 01 	lds	r25, 0x01D0	; 0x8001d0 <timer0_millis+0x1>
     c5e:	a0 91 d1 01 	lds	r26, 0x01D1	; 0x8001d1 <timer0_millis+0x2>
     c62:	b0 91 d2 01 	lds	r27, 0x01D2	; 0x8001d2 <timer0_millis+0x3>
     c66:	30 91 ce 01 	lds	r19, 0x01CE	; 0x8001ce <timer0_fract>
     c6a:	23 e0       	ldi	r18, 0x03	; 3
     c6c:	23 0f       	add	r18, r19
     c6e:	2d 37       	cpi	r18, 0x7D	; 125
     c70:	20 f4       	brcc	.+8      	; 0xc7a <__vector_16+0x3a>
     c72:	01 96       	adiw	r24, 0x01	; 1
     c74:	a1 1d       	adc	r26, r1
     c76:	b1 1d       	adc	r27, r1
     c78:	05 c0       	rjmp	.+10     	; 0xc84 <__vector_16+0x44>
     c7a:	26 e8       	ldi	r18, 0x86	; 134
     c7c:	23 0f       	add	r18, r19
     c7e:	02 96       	adiw	r24, 0x02	; 2
     c80:	a1 1d       	adc	r26, r1
     c82:	b1 1d       	adc	r27, r1
     c84:	20 93 ce 01 	sts	0x01CE, r18	; 0x8001ce <timer0_fract>
     c88:	80 93 cf 01 	sts	0x01CF, r24	; 0x8001cf <timer0_millis>
     c8c:	90 93 d0 01 	sts	0x01D0, r25	; 0x8001d0 <timer0_millis+0x1>
     c90:	a0 93 d1 01 	sts	0x01D1, r26	; 0x8001d1 <timer0_millis+0x2>
     c94:	b0 93 d2 01 	sts	0x01D2, r27	; 0x8001d2 <timer0_millis+0x3>
     c98:	80 91 d3 01 	lds	r24, 0x01D3	; 0x8001d3 <timer0_overflow_count>
     c9c:	90 91 d4 01 	lds	r25, 0x01D4	; 0x8001d4 <timer0_overflow_count+0x1>
     ca0:	a0 91 d5 01 	lds	r26, 0x01D5	; 0x8001d5 <timer0_overflow_count+0x2>
     ca4:	b0 91 d6 01 	lds	r27, 0x01D6	; 0x8001d6 <timer0_overflow_count+0x3>
     ca8:	01 96       	adiw	r24, 0x01	; 1
     caa:	a1 1d       	adc	r26, r1
     cac:	b1 1d       	adc	r27, r1
     cae:	80 93 d3 01 	sts	0x01D3, r24	; 0x8001d3 <timer0_overflow_count>
     cb2:	90 93 d4 01 	sts	0x01D4, r25	; 0x8001d4 <timer0_overflow_count+0x1>
     cb6:	a0 93 d5 01 	sts	0x01D5, r26	; 0x8001d5 <timer0_overflow_count+0x2>
     cba:	b0 93 d6 01 	sts	0x01D6, r27	; 0x8001d6 <timer0_overflow_count+0x3>
     cbe:	bf 91       	pop	r27
     cc0:	af 91       	pop	r26
     cc2:	9f 91       	pop	r25
     cc4:	8f 91       	pop	r24
     cc6:	3f 91       	pop	r19
     cc8:	2f 91       	pop	r18
     cca:	0f 90       	pop	r0
     ccc:	0f be       	out	0x3f, r0	; 63
     cce:	0f 90       	pop	r0
     cd0:	1f 90       	pop	r1
     cd2:	18 95       	reti

00000cd4 <micros>:
     cd4:	3f b7       	in	r19, 0x3f	; 63
     cd6:	f8 94       	cli
     cd8:	80 91 d3 01 	lds	r24, 0x01D3	; 0x8001d3 <timer0_overflow_count>
     cdc:	90 91 d4 01 	lds	r25, 0x01D4	; 0x8001d4 <timer0_overflow_count+0x1>
     ce0:	a0 91 d5 01 	lds	r26, 0x01D5	; 0x8001d5 <timer0_overflow_count+0x2>
     ce4:	b0 91 d6 01 	lds	r27, 0x01D6	; 0x8001d6 <timer0_overflow_count+0x3>
     ce8:	26 b5       	in	r18, 0x26	; 38
     cea:	a8 9b       	sbis	0x15, 0	; 21
     cec:	05 c0       	rjmp	.+10     	; 0xcf8 <micros+0x24>
     cee:	2f 3f       	cpi	r18, 0xFF	; 255
     cf0:	19 f0       	breq	.+6      	; 0xcf8 <micros+0x24>
     cf2:	01 96       	adiw	r24, 0x01	; 1
     cf4:	a1 1d       	adc	r26, r1
     cf6:	b1 1d       	adc	r27, r1
     cf8:	3f bf       	out	0x3f, r19	; 63
     cfa:	66 27       	eor	r22, r22
     cfc:	78 2f       	mov	r23, r24
     cfe:	89 2f       	mov	r24, r25
     d00:	9a 2f       	mov	r25, r26
     d02:	62 0f       	add	r22, r18
     d04:	71 1d       	adc	r23, r1
     d06:	81 1d       	adc	r24, r1
     d08:	91 1d       	adc	r25, r1
     d0a:	42 e0       	ldi	r20, 0x02	; 2
     d0c:	66 0f       	add	r22, r22
     d0e:	77 1f       	adc	r23, r23
     d10:	88 1f       	adc	r24, r24
     d12:	99 1f       	adc	r25, r25
     d14:	4a 95       	dec	r20
     d16:	d1 f7       	brne	.-12     	; 0xd0c <micros+0x38>
     d18:	08 95       	ret

00000d1a <delay>:
     d1a:	cf 92       	push	r12
     d1c:	df 92       	push	r13
     d1e:	ef 92       	push	r14
     d20:	ff 92       	push	r15
     d22:	cf 93       	push	r28
     d24:	df 93       	push	r29
     d26:	6b 01       	movw	r12, r22
     d28:	7c 01       	movw	r14, r24
     d2a:	0e 94 6a 06 	call	0xcd4	; 0xcd4 <micros>
     d2e:	eb 01       	movw	r28, r22
     d30:	c1 14       	cp	r12, r1
     d32:	d1 04       	cpc	r13, r1
     d34:	e1 04       	cpc	r14, r1
     d36:	f1 04       	cpc	r15, r1
     d38:	89 f0       	breq	.+34     	; 0xd5c <delay+0x42>
     d3a:	0e 94 1a 0a 	call	0x1434	; 0x1434 <yield>
     d3e:	0e 94 6a 06 	call	0xcd4	; 0xcd4 <micros>
     d42:	6c 1b       	sub	r22, r28
     d44:	7d 0b       	sbc	r23, r29
     d46:	68 3e       	cpi	r22, 0xE8	; 232
     d48:	73 40       	sbci	r23, 0x03	; 3
     d4a:	90 f3       	brcs	.-28     	; 0xd30 <delay+0x16>
     d4c:	81 e0       	ldi	r24, 0x01	; 1
     d4e:	c8 1a       	sub	r12, r24
     d50:	d1 08       	sbc	r13, r1
     d52:	e1 08       	sbc	r14, r1
     d54:	f1 08       	sbc	r15, r1
     d56:	c8 51       	subi	r28, 0x18	; 24
     d58:	dc 4f       	sbci	r29, 0xFC	; 252
     d5a:	ea cf       	rjmp	.-44     	; 0xd30 <delay+0x16>
     d5c:	df 91       	pop	r29
     d5e:	cf 91       	pop	r28
     d60:	ff 90       	pop	r15
     d62:	ef 90       	pop	r14
     d64:	df 90       	pop	r13
     d66:	cf 90       	pop	r12
     d68:	08 95       	ret

00000d6a <delayMicroseconds>:
     d6a:	01 97       	sbiw	r24, 0x01	; 1
     d6c:	39 f0       	breq	.+14     	; 0xd7c <delayMicroseconds+0x12>
     d6e:	88 0f       	add	r24, r24
     d70:	99 1f       	adc	r25, r25
     d72:	88 0f       	add	r24, r24
     d74:	99 1f       	adc	r25, r25
     d76:	02 97       	sbiw	r24, 0x02	; 2
     d78:	01 97       	sbiw	r24, 0x01	; 1
     d7a:	f1 f7       	brne	.-4      	; 0xd78 <delayMicroseconds+0xe>
     d7c:	08 95       	ret

00000d7e <init>:
     d7e:	78 94       	sei
     d80:	84 b5       	in	r24, 0x24	; 36
     d82:	82 60       	ori	r24, 0x02	; 2
     d84:	84 bd       	out	0x24, r24	; 36
     d86:	84 b5       	in	r24, 0x24	; 36
     d88:	81 60       	ori	r24, 0x01	; 1
     d8a:	84 bd       	out	0x24, r24	; 36
     d8c:	85 b5       	in	r24, 0x25	; 37
     d8e:	82 60       	ori	r24, 0x02	; 2
     d90:	85 bd       	out	0x25, r24	; 37
     d92:	85 b5       	in	r24, 0x25	; 37
     d94:	81 60       	ori	r24, 0x01	; 1
     d96:	85 bd       	out	0x25, r24	; 37
     d98:	ee e6       	ldi	r30, 0x6E	; 110
     d9a:	f0 e0       	ldi	r31, 0x00	; 0
     d9c:	80 81       	ld	r24, Z
     d9e:	81 60       	ori	r24, 0x01	; 1
     da0:	80 83       	st	Z, r24
     da2:	e1 e8       	ldi	r30, 0x81	; 129
     da4:	f0 e0       	ldi	r31, 0x00	; 0
     da6:	10 82       	st	Z, r1
     da8:	80 81       	ld	r24, Z
     daa:	82 60       	ori	r24, 0x02	; 2
     dac:	80 83       	st	Z, r24
     dae:	80 81       	ld	r24, Z
     db0:	81 60       	ori	r24, 0x01	; 1
     db2:	80 83       	st	Z, r24
     db4:	e0 e8       	ldi	r30, 0x80	; 128
     db6:	f0 e0       	ldi	r31, 0x00	; 0
     db8:	80 81       	ld	r24, Z
     dba:	81 60       	ori	r24, 0x01	; 1
     dbc:	80 83       	st	Z, r24
     dbe:	e1 eb       	ldi	r30, 0xB1	; 177
     dc0:	f0 e0       	ldi	r31, 0x00	; 0
     dc2:	80 81       	ld	r24, Z
     dc4:	84 60       	ori	r24, 0x04	; 4
     dc6:	80 83       	st	Z, r24
     dc8:	e0 eb       	ldi	r30, 0xB0	; 176
     dca:	f0 e0       	ldi	r31, 0x00	; 0
     dcc:	80 81       	ld	r24, Z
     dce:	81 60       	ori	r24, 0x01	; 1
     dd0:	80 83       	st	Z, r24
     dd2:	ea e7       	ldi	r30, 0x7A	; 122
     dd4:	f0 e0       	ldi	r31, 0x00	; 0
     dd6:	80 81       	ld	r24, Z
     dd8:	84 60       	ori	r24, 0x04	; 4
     dda:	80 83       	st	Z, r24
     ddc:	80 81       	ld	r24, Z
     dde:	82 60       	ori	r24, 0x02	; 2
     de0:	80 83       	st	Z, r24
     de2:	80 81       	ld	r24, Z
     de4:	81 60       	ori	r24, 0x01	; 1
     de6:	80 83       	st	Z, r24
     de8:	80 81       	ld	r24, Z
     dea:	80 68       	ori	r24, 0x80	; 128
     dec:	80 83       	st	Z, r24
     dee:	10 92 c1 00 	sts	0x00C1, r1	; 0x8000c1 <__TEXT_REGION_LENGTH__+0x7e00c1>
     df2:	08 95       	ret

00000df4 <analogRead>:
     df4:	8e 30       	cpi	r24, 0x0E	; 14
     df6:	08 f0       	brcs	.+2      	; 0xdfa <analogRead+0x6>
     df8:	8e 50       	subi	r24, 0x0E	; 14
     dfa:	87 70       	andi	r24, 0x07	; 7
     dfc:	20 91 06 01 	lds	r18, 0x0106	; 0x800106 <analog_reference>
     e00:	90 e4       	ldi	r25, 0x40	; 64
     e02:	29 9f       	mul	r18, r25
     e04:	90 01       	movw	r18, r0
     e06:	11 24       	eor	r1, r1
     e08:	82 2b       	or	r24, r18
     e0a:	80 93 7c 00 	sts	0x007C, r24	; 0x80007c <__TEXT_REGION_LENGTH__+0x7e007c>
     e0e:	80 91 7a 00 	lds	r24, 0x007A	; 0x80007a <__TEXT_REGION_LENGTH__+0x7e007a>
     e12:	80 64       	ori	r24, 0x40	; 64
     e14:	80 93 7a 00 	sts	0x007A, r24	; 0x80007a <__TEXT_REGION_LENGTH__+0x7e007a>
     e18:	80 91 7a 00 	lds	r24, 0x007A	; 0x80007a <__TEXT_REGION_LENGTH__+0x7e007a>
     e1c:	86 fd       	sbrc	r24, 6
     e1e:	fc cf       	rjmp	.-8      	; 0xe18 <analogRead+0x24>
     e20:	80 91 78 00 	lds	r24, 0x0078	; 0x800078 <__TEXT_REGION_LENGTH__+0x7e0078>
     e24:	20 91 79 00 	lds	r18, 0x0079	; 0x800079 <__TEXT_REGION_LENGTH__+0x7e0079>
     e28:	90 e0       	ldi	r25, 0x00	; 0
     e2a:	92 2b       	or	r25, r18
     e2c:	08 95       	ret

00000e2e <turnOffPWM>:
     e2e:	83 30       	cpi	r24, 0x03	; 3
     e30:	81 f0       	breq	.+32     	; 0xe52 <turnOffPWM+0x24>
     e32:	28 f4       	brcc	.+10     	; 0xe3e <turnOffPWM+0x10>
     e34:	81 30       	cpi	r24, 0x01	; 1
     e36:	99 f0       	breq	.+38     	; 0xe5e <turnOffPWM+0x30>
     e38:	82 30       	cpi	r24, 0x02	; 2
     e3a:	a1 f0       	breq	.+40     	; 0xe64 <turnOffPWM+0x36>
     e3c:	08 95       	ret
     e3e:	87 30       	cpi	r24, 0x07	; 7
     e40:	a9 f0       	breq	.+42     	; 0xe6c <turnOffPWM+0x3e>
     e42:	88 30       	cpi	r24, 0x08	; 8
     e44:	b9 f0       	breq	.+46     	; 0xe74 <turnOffPWM+0x46>
     e46:	84 30       	cpi	r24, 0x04	; 4
     e48:	d1 f4       	brne	.+52     	; 0xe7e <turnOffPWM+0x50>
     e4a:	80 91 80 00 	lds	r24, 0x0080	; 0x800080 <__TEXT_REGION_LENGTH__+0x7e0080>
     e4e:	8f 7d       	andi	r24, 0xDF	; 223
     e50:	03 c0       	rjmp	.+6      	; 0xe58 <turnOffPWM+0x2a>
     e52:	80 91 80 00 	lds	r24, 0x0080	; 0x800080 <__TEXT_REGION_LENGTH__+0x7e0080>
     e56:	8f 77       	andi	r24, 0x7F	; 127
     e58:	80 93 80 00 	sts	0x0080, r24	; 0x800080 <__TEXT_REGION_LENGTH__+0x7e0080>
     e5c:	08 95       	ret
     e5e:	84 b5       	in	r24, 0x24	; 36
     e60:	8f 77       	andi	r24, 0x7F	; 127
     e62:	02 c0       	rjmp	.+4      	; 0xe68 <turnOffPWM+0x3a>
     e64:	84 b5       	in	r24, 0x24	; 36
     e66:	8f 7d       	andi	r24, 0xDF	; 223
     e68:	84 bd       	out	0x24, r24	; 36
     e6a:	08 95       	ret
     e6c:	80 91 b0 00 	lds	r24, 0x00B0	; 0x8000b0 <__TEXT_REGION_LENGTH__+0x7e00b0>
     e70:	8f 77       	andi	r24, 0x7F	; 127
     e72:	03 c0       	rjmp	.+6      	; 0xe7a <turnOffPWM+0x4c>
     e74:	80 91 b0 00 	lds	r24, 0x00B0	; 0x8000b0 <__TEXT_REGION_LENGTH__+0x7e00b0>
     e78:	8f 7d       	andi	r24, 0xDF	; 223
     e7a:	80 93 b0 00 	sts	0x00B0, r24	; 0x8000b0 <__TEXT_REGION_LENGTH__+0x7e00b0>
     e7e:	08 95       	ret

00000e80 <pinMode>:
     e80:	cf 93       	push	r28
     e82:	df 93       	push	r29
     e84:	90 e0       	ldi	r25, 0x00	; 0
     e86:	fc 01       	movw	r30, r24
     e88:	e4 58       	subi	r30, 0x84	; 132
     e8a:	ff 4f       	sbci	r31, 0xFF	; 255
     e8c:	24 91       	lpm	r18, Z
     e8e:	fc 01       	movw	r30, r24
     e90:	e0 57       	subi	r30, 0x70	; 112
     e92:	ff 4f       	sbci	r31, 0xFF	; 255
     e94:	84 91       	lpm	r24, Z
     e96:	88 23       	and	r24, r24
     e98:	49 f1       	breq	.+82     	; 0xeec <pinMode+0x6c>
     e9a:	90 e0       	ldi	r25, 0x00	; 0
     e9c:	88 0f       	add	r24, r24
     e9e:	99 1f       	adc	r25, r25
     ea0:	fc 01       	movw	r30, r24
     ea2:	e2 55       	subi	r30, 0x52	; 82
     ea4:	ff 4f       	sbci	r31, 0xFF	; 255
     ea6:	a5 91       	lpm	r26, Z+
     ea8:	b4 91       	lpm	r27, Z
     eaa:	8c 55       	subi	r24, 0x5C	; 92
     eac:	9f 4f       	sbci	r25, 0xFF	; 255
     eae:	fc 01       	movw	r30, r24
     eb0:	c5 91       	lpm	r28, Z+
     eb2:	d4 91       	lpm	r29, Z
     eb4:	9f b7       	in	r25, 0x3f	; 63
     eb6:	61 11       	cpse	r22, r1
     eb8:	08 c0       	rjmp	.+16     	; 0xeca <pinMode+0x4a>
     eba:	f8 94       	cli
     ebc:	8c 91       	ld	r24, X
     ebe:	20 95       	com	r18
     ec0:	82 23       	and	r24, r18
     ec2:	8c 93       	st	X, r24
     ec4:	88 81       	ld	r24, Y
     ec6:	82 23       	and	r24, r18
     ec8:	0a c0       	rjmp	.+20     	; 0xede <pinMode+0x5e>
     eca:	62 30       	cpi	r22, 0x02	; 2
     ecc:	51 f4       	brne	.+20     	; 0xee2 <pinMode+0x62>
     ece:	f8 94       	cli
     ed0:	8c 91       	ld	r24, X
     ed2:	32 2f       	mov	r19, r18
     ed4:	30 95       	com	r19
     ed6:	83 23       	and	r24, r19
     ed8:	8c 93       	st	X, r24
     eda:	88 81       	ld	r24, Y
     edc:	82 2b       	or	r24, r18
     ede:	88 83       	st	Y, r24
     ee0:	04 c0       	rjmp	.+8      	; 0xeea <pinMode+0x6a>
     ee2:	f8 94       	cli
     ee4:	8c 91       	ld	r24, X
     ee6:	82 2b       	or	r24, r18
     ee8:	8c 93       	st	X, r24
     eea:	9f bf       	out	0x3f, r25	; 63
     eec:	df 91       	pop	r29
     eee:	cf 91       	pop	r28
     ef0:	08 95       	ret

00000ef2 <digitalWrite>:
     ef2:	0f 93       	push	r16
     ef4:	1f 93       	push	r17
     ef6:	cf 93       	push	r28
     ef8:	df 93       	push	r29
     efa:	1f 92       	push	r1
     efc:	cd b7       	in	r28, 0x3d	; 61
     efe:	de b7       	in	r29, 0x3e	; 62
     f00:	28 2f       	mov	r18, r24
     f02:	30 e0       	ldi	r19, 0x00	; 0
     f04:	f9 01       	movw	r30, r18
     f06:	e8 59       	subi	r30, 0x98	; 152
     f08:	ff 4f       	sbci	r31, 0xFF	; 255
     f0a:	84 91       	lpm	r24, Z
     f0c:	f9 01       	movw	r30, r18
     f0e:	e4 58       	subi	r30, 0x84	; 132
     f10:	ff 4f       	sbci	r31, 0xFF	; 255
     f12:	14 91       	lpm	r17, Z
     f14:	f9 01       	movw	r30, r18
     f16:	e0 57       	subi	r30, 0x70	; 112
     f18:	ff 4f       	sbci	r31, 0xFF	; 255
     f1a:	04 91       	lpm	r16, Z
     f1c:	00 23       	and	r16, r16
     f1e:	c9 f0       	breq	.+50     	; 0xf52 <digitalWrite+0x60>
     f20:	88 23       	and	r24, r24
     f22:	21 f0       	breq	.+8      	; 0xf2c <digitalWrite+0x3a>
     f24:	69 83       	std	Y+1, r22	; 0x01
     f26:	0e 94 17 07 	call	0xe2e	; 0xe2e <turnOffPWM>
     f2a:	69 81       	ldd	r22, Y+1	; 0x01
     f2c:	e0 2f       	mov	r30, r16
     f2e:	f0 e0       	ldi	r31, 0x00	; 0
     f30:	ee 0f       	add	r30, r30
     f32:	ff 1f       	adc	r31, r31
     f34:	ec 55       	subi	r30, 0x5C	; 92
     f36:	ff 4f       	sbci	r31, 0xFF	; 255
     f38:	a5 91       	lpm	r26, Z+
     f3a:	b4 91       	lpm	r27, Z
     f3c:	9f b7       	in	r25, 0x3f	; 63
     f3e:	f8 94       	cli
     f40:	8c 91       	ld	r24, X
     f42:	61 11       	cpse	r22, r1
     f44:	03 c0       	rjmp	.+6      	; 0xf4c <digitalWrite+0x5a>
     f46:	10 95       	com	r17
     f48:	81 23       	and	r24, r17
     f4a:	01 c0       	rjmp	.+2      	; 0xf4e <digitalWrite+0x5c>
     f4c:	81 2b       	or	r24, r17
     f4e:	8c 93       	st	X, r24
     f50:	9f bf       	out	0x3f, r25	; 63
     f52:	0f 90       	pop	r0
     f54:	df 91       	pop	r29
     f56:	cf 91       	pop	r28
     f58:	1f 91       	pop	r17
     f5a:	0f 91       	pop	r16
     f5c:	08 95       	ret

00000f5e <initVariant>:
     f5e:	08 95       	ret

00000f60 <main>:
     f60:	0e 94 bf 06 	call	0xd7e	; 0xd7e <init>
     f64:	0e 94 af 07 	call	0xf5e	; 0xf5e <initVariant>
     f68:	0e 94 3a 02 	call	0x474	; 0x474 <setup>
     f6c:	c0 e0       	ldi	r28, 0x00	; 0
     f6e:	d0 e0       	ldi	r29, 0x00	; 0
     f70:	0e 94 8e 03 	call	0x71c	; 0x71c <loop>
     f74:	20 97       	sbiw	r28, 0x00	; 0
     f76:	e1 f3       	breq	.-8      	; 0xf70 <main+0x10>
     f78:	0e 94 00 00 	call	0	; 0x0 <__vectors>
     f7c:	f9 cf       	rjmp	.-14     	; 0xf70 <main+0x10>

00000f7e <_ZN5Print5writeEPKhj>:
     f7e:	cf 92       	push	r12
     f80:	df 92       	push	r13
     f82:	ef 92       	push	r14
     f84:	ff 92       	push	r15
     f86:	0f 93       	push	r16
     f88:	1f 93       	push	r17
     f8a:	cf 93       	push	r28
     f8c:	df 93       	push	r29
     f8e:	6c 01       	movw	r12, r24
     f90:	7a 01       	movw	r14, r20
     f92:	eb 01       	movw	r28, r22
     f94:	e6 0e       	add	r14, r22
     f96:	f7 1e       	adc	r15, r23
     f98:	00 e0       	ldi	r16, 0x00	; 0
     f9a:	10 e0       	ldi	r17, 0x00	; 0
     f9c:	ce 15       	cp	r28, r14
     f9e:	df 05       	cpc	r29, r15
     fa0:	61 f0       	breq	.+24     	; 0xfba <_ZN5Print5writeEPKhj+0x3c>
     fa2:	69 91       	ld	r22, Y+
     fa4:	d6 01       	movw	r26, r12
     fa6:	ed 91       	ld	r30, X+
     fa8:	fc 91       	ld	r31, X
     faa:	01 90       	ld	r0, Z+
     fac:	f0 81       	ld	r31, Z
     fae:	e0 2d       	mov	r30, r0
     fb0:	c6 01       	movw	r24, r12
     fb2:	09 95       	icall
     fb4:	08 0f       	add	r16, r24
     fb6:	19 1f       	adc	r17, r25
     fb8:	f1 cf       	rjmp	.-30     	; 0xf9c <_ZN5Print5writeEPKhj+0x1e>
     fba:	c8 01       	movw	r24, r16
     fbc:	df 91       	pop	r29
     fbe:	cf 91       	pop	r28
     fc0:	1f 91       	pop	r17
     fc2:	0f 91       	pop	r16
     fc4:	ff 90       	pop	r15
     fc6:	ef 90       	pop	r14
     fc8:	df 90       	pop	r13
     fca:	cf 90       	pop	r12
     fcc:	08 95       	ret

00000fce <_ZN5Print5writeEPKc>:
     fce:	61 15       	cp	r22, r1
     fd0:	71 05       	cpc	r23, r1
     fd2:	81 f0       	breq	.+32     	; 0xff4 <_ZN5Print5writeEPKc+0x26>
     fd4:	db 01       	movw	r26, r22
     fd6:	0d 90       	ld	r0, X+
     fd8:	00 20       	and	r0, r0
     fda:	e9 f7       	brne	.-6      	; 0xfd6 <_ZN5Print5writeEPKc+0x8>
     fdc:	ad 01       	movw	r20, r26
     fde:	41 50       	subi	r20, 0x01	; 1
     fe0:	51 09       	sbc	r21, r1
     fe2:	46 1b       	sub	r20, r22
     fe4:	57 0b       	sbc	r21, r23
     fe6:	dc 01       	movw	r26, r24
     fe8:	ed 91       	ld	r30, X+
     fea:	fc 91       	ld	r31, X
     fec:	02 80       	ldd	r0, Z+2	; 0x02
     fee:	f3 81       	ldd	r31, Z+3	; 0x03
     ff0:	e0 2d       	mov	r30, r0
     ff2:	09 94       	ijmp
     ff4:	80 e0       	ldi	r24, 0x00	; 0
     ff6:	90 e0       	ldi	r25, 0x00	; 0
     ff8:	08 95       	ret

00000ffa <_ZN5Print5printEPKc>:
     ffa:	0c 94 e7 07 	jmp	0xfce	; 0xfce <_ZN5Print5writeEPKc>

00000ffe <_ZN5Print5printEc>:
     ffe:	dc 01       	movw	r26, r24
    1000:	ed 91       	ld	r30, X+
    1002:	fc 91       	ld	r31, X
    1004:	01 90       	ld	r0, Z+
    1006:	f0 81       	ld	r31, Z
    1008:	e0 2d       	mov	r30, r0
    100a:	09 94       	ijmp

0000100c <_ZN5Print11printNumberEmh>:
    100c:	8f 92       	push	r8
    100e:	9f 92       	push	r9
    1010:	af 92       	push	r10
    1012:	bf 92       	push	r11
    1014:	cf 92       	push	r12
    1016:	df 92       	push	r13
    1018:	ef 92       	push	r14
    101a:	ff 92       	push	r15
    101c:	0f 93       	push	r16
    101e:	1f 93       	push	r17
    1020:	cf 93       	push	r28
    1022:	df 93       	push	r29
    1024:	cd b7       	in	r28, 0x3d	; 61
    1026:	de b7       	in	r29, 0x3e	; 62
    1028:	a1 97       	sbiw	r28, 0x21	; 33
    102a:	0f b6       	in	r0, 0x3f	; 63
    102c:	f8 94       	cli
    102e:	de bf       	out	0x3e, r29	; 62
    1030:	0f be       	out	0x3f, r0	; 63
    1032:	cd bf       	out	0x3d, r28	; 61
    1034:	7c 01       	movw	r14, r24
    1036:	c4 2e       	mov	r12, r20
    1038:	e5 2f       	mov	r30, r21
    103a:	cb 01       	movw	r24, r22
    103c:	d2 2e       	mov	r13, r18
    103e:	19 a2       	std	Y+33, r1	; 0x21
    1040:	21 e0       	ldi	r18, 0x01	; 1
    1042:	2d 15       	cp	r18, r13
    1044:	10 f0       	brcs	.+4      	; 0x104a <_ZN5Print11printNumberEmh+0x3e>
    1046:	2a e0       	ldi	r18, 0x0A	; 10
    1048:	d2 2e       	mov	r13, r18
    104a:	8e 01       	movw	r16, r28
    104c:	0f 5d       	subi	r16, 0xDF	; 223
    104e:	1f 4f       	sbci	r17, 0xFF	; 255
    1050:	8d 2c       	mov	r8, r13
    1052:	91 2c       	mov	r9, r1
    1054:	a1 2c       	mov	r10, r1
    1056:	b1 2c       	mov	r11, r1
    1058:	6c 2d       	mov	r22, r12
    105a:	7e 2f       	mov	r23, r30
    105c:	a5 01       	movw	r20, r10
    105e:	94 01       	movw	r18, r8
    1060:	0e 94 84 0a 	call	0x1508	; 0x1508 <__udivmodsi4>
    1064:	8c 2d       	mov	r24, r12
    1066:	d2 9e       	mul	r13, r18
    1068:	80 19       	sub	r24, r0
    106a:	11 24       	eor	r1, r1
    106c:	01 50       	subi	r16, 0x01	; 1
    106e:	11 09       	sbc	r17, r1
    1070:	8a 30       	cpi	r24, 0x0A	; 10
    1072:	14 f4       	brge	.+4      	; 0x1078 <_ZN5Print11printNumberEmh+0x6c>
    1074:	80 5d       	subi	r24, 0xD0	; 208
    1076:	01 c0       	rjmp	.+2      	; 0x107a <_ZN5Print11printNumberEmh+0x6e>
    1078:	89 5c       	subi	r24, 0xC9	; 201
    107a:	f8 01       	movw	r30, r16
    107c:	80 83       	st	Z, r24
    107e:	21 15       	cp	r18, r1
    1080:	31 05       	cpc	r19, r1
    1082:	41 05       	cpc	r20, r1
    1084:	51 05       	cpc	r21, r1
    1086:	21 f0       	breq	.+8      	; 0x1090 <_ZN5Print11printNumberEmh+0x84>
    1088:	c2 2e       	mov	r12, r18
    108a:	e3 2f       	mov	r30, r19
    108c:	ca 01       	movw	r24, r20
    108e:	e4 cf       	rjmp	.-56     	; 0x1058 <_ZN5Print11printNumberEmh+0x4c>
    1090:	b8 01       	movw	r22, r16
    1092:	c7 01       	movw	r24, r14
    1094:	0e 94 e7 07 	call	0xfce	; 0xfce <_ZN5Print5writeEPKc>
    1098:	a1 96       	adiw	r28, 0x21	; 33
    109a:	0f b6       	in	r0, 0x3f	; 63
    109c:	f8 94       	cli
    109e:	de bf       	out	0x3e, r29	; 62
    10a0:	0f be       	out	0x3f, r0	; 63
    10a2:	cd bf       	out	0x3d, r28	; 61
    10a4:	df 91       	pop	r29
    10a6:	cf 91       	pop	r28
    10a8:	1f 91       	pop	r17
    10aa:	0f 91       	pop	r16
    10ac:	ff 90       	pop	r15
    10ae:	ef 90       	pop	r14
    10b0:	df 90       	pop	r13
    10b2:	cf 90       	pop	r12
    10b4:	bf 90       	pop	r11
    10b6:	af 90       	pop	r10
    10b8:	9f 90       	pop	r9
    10ba:	8f 90       	pop	r8
    10bc:	08 95       	ret

000010be <_ZN5Print5printEli>:
    10be:	cf 92       	push	r12
    10c0:	df 92       	push	r13
    10c2:	ef 92       	push	r14
    10c4:	ff 92       	push	r15
    10c6:	0f 93       	push	r16
    10c8:	1f 93       	push	r17
    10ca:	cf 93       	push	r28
    10cc:	df 93       	push	r29
    10ce:	ec 01       	movw	r28, r24
    10d0:	6a 01       	movw	r12, r20
    10d2:	7b 01       	movw	r14, r22
    10d4:	21 15       	cp	r18, r1
    10d6:	31 05       	cpc	r19, r1
    10d8:	79 f4       	brne	.+30     	; 0x10f8 <_ZN5Print5printEli+0x3a>
    10da:	e8 81       	ld	r30, Y
    10dc:	f9 81       	ldd	r31, Y+1	; 0x01
    10de:	01 90       	ld	r0, Z+
    10e0:	f0 81       	ld	r31, Z
    10e2:	e0 2d       	mov	r30, r0
    10e4:	64 2f       	mov	r22, r20
    10e6:	df 91       	pop	r29
    10e8:	cf 91       	pop	r28
    10ea:	1f 91       	pop	r17
    10ec:	0f 91       	pop	r16
    10ee:	ff 90       	pop	r15
    10f0:	ef 90       	pop	r14
    10f2:	df 90       	pop	r13
    10f4:	cf 90       	pop	r12
    10f6:	09 94       	ijmp
    10f8:	2a 30       	cpi	r18, 0x0A	; 10
    10fa:	31 05       	cpc	r19, r1
    10fc:	e9 f4       	brne	.+58     	; 0x1138 <_ZN5Print5printEli+0x7a>
    10fe:	77 ff       	sbrs	r23, 7
    1100:	1a c0       	rjmp	.+52     	; 0x1136 <_ZN5Print5printEli+0x78>
    1102:	6d e2       	ldi	r22, 0x2D	; 45
    1104:	0e 94 ff 07 	call	0xffe	; 0xffe <_ZN5Print5printEc>
    1108:	8c 01       	movw	r16, r24
    110a:	44 27       	eor	r20, r20
    110c:	55 27       	eor	r21, r21
    110e:	ba 01       	movw	r22, r20
    1110:	4c 19       	sub	r20, r12
    1112:	5d 09       	sbc	r21, r13
    1114:	6e 09       	sbc	r22, r14
    1116:	7f 09       	sbc	r23, r15
    1118:	2a e0       	ldi	r18, 0x0A	; 10
    111a:	ce 01       	movw	r24, r28
    111c:	0e 94 06 08 	call	0x100c	; 0x100c <_ZN5Print11printNumberEmh>
    1120:	80 0f       	add	r24, r16
    1122:	91 1f       	adc	r25, r17
    1124:	df 91       	pop	r29
    1126:	cf 91       	pop	r28
    1128:	1f 91       	pop	r17
    112a:	0f 91       	pop	r16
    112c:	ff 90       	pop	r15
    112e:	ef 90       	pop	r14
    1130:	df 90       	pop	r13
    1132:	cf 90       	pop	r12
    1134:	08 95       	ret
    1136:	2a e0       	ldi	r18, 0x0A	; 10
    1138:	b7 01       	movw	r22, r14
    113a:	a6 01       	movw	r20, r12
    113c:	ce 01       	movw	r24, r28
    113e:	df 91       	pop	r29
    1140:	cf 91       	pop	r28
    1142:	1f 91       	pop	r17
    1144:	0f 91       	pop	r16
    1146:	ff 90       	pop	r15
    1148:	ef 90       	pop	r14
    114a:	df 90       	pop	r13
    114c:	cf 90       	pop	r12
    114e:	0c 94 06 08 	jmp	0x100c	; 0x100c <_ZN5Print11printNumberEmh>

00001152 <_ZN5Print10printFloatEdh>:
    1152:	4f 92       	push	r4
    1154:	5f 92       	push	r5
    1156:	6f 92       	push	r6
    1158:	7f 92       	push	r7
    115a:	8f 92       	push	r8
    115c:	9f 92       	push	r9
    115e:	af 92       	push	r10
    1160:	bf 92       	push	r11
    1162:	cf 92       	push	r12
    1164:	df 92       	push	r13
    1166:	ef 92       	push	r14
    1168:	ff 92       	push	r15
    116a:	0f 93       	push	r16
    116c:	1f 93       	push	r17
    116e:	cf 93       	push	r28
    1170:	df 93       	push	r29
    1172:	ec 01       	movw	r28, r24
    1174:	6a 01       	movw	r12, r20
    1176:	7b 01       	movw	r14, r22
    1178:	b2 2e       	mov	r11, r18
    117a:	9a 01       	movw	r18, r20
    117c:	ab 01       	movw	r20, r22
    117e:	c7 01       	movw	r24, r14
    1180:	b6 01       	movw	r22, r12
    1182:	0e 94 7f 0a 	call	0x14fe	; 0x14fe <__unordsf2>
    1186:	88 23       	and	r24, r24
    1188:	19 f0       	breq	.+6      	; 0x1190 <_ZN5Print10printFloatEdh+0x3e>
    118a:	67 e8       	ldi	r22, 0x87	; 135
    118c:	71 e0       	ldi	r23, 0x01	; 1
    118e:	27 c0       	rjmp	.+78     	; 0x11de <_ZN5Print10printFloatEdh+0x8c>
    1190:	26 01       	movw	r4, r12
    1192:	37 01       	movw	r6, r14
    1194:	e8 94       	clt
    1196:	77 f8       	bld	r7, 7
    1198:	2f ef       	ldi	r18, 0xFF	; 255
    119a:	3f ef       	ldi	r19, 0xFF	; 255
    119c:	4f e7       	ldi	r20, 0x7F	; 127
    119e:	5f e7       	ldi	r21, 0x7F	; 127
    11a0:	c3 01       	movw	r24, r6
    11a2:	b2 01       	movw	r22, r4
    11a4:	0e 94 7f 0a 	call	0x14fe	; 0x14fe <__unordsf2>
    11a8:	81 11       	cpse	r24, r1
    11aa:	0d c0       	rjmp	.+26     	; 0x11c6 <_ZN5Print10printFloatEdh+0x74>
    11ac:	2f ef       	ldi	r18, 0xFF	; 255
    11ae:	3f ef       	ldi	r19, 0xFF	; 255
    11b0:	4f e7       	ldi	r20, 0x7F	; 127
    11b2:	5f e7       	ldi	r21, 0x7F	; 127
    11b4:	c3 01       	movw	r24, r6
    11b6:	b2 01       	movw	r22, r4
    11b8:	0e 94 1b 0a 	call	0x1436	; 0x1436 <__cmpsf2>
    11bc:	18 16       	cp	r1, r24
    11be:	1c f4       	brge	.+6      	; 0x11c6 <_ZN5Print10printFloatEdh+0x74>
    11c0:	6b e8       	ldi	r22, 0x8B	; 139
    11c2:	71 e0       	ldi	r23, 0x01	; 1
    11c4:	0c c0       	rjmp	.+24     	; 0x11de <_ZN5Print10printFloatEdh+0x8c>
    11c6:	2f ef       	ldi	r18, 0xFF	; 255
    11c8:	3f ef       	ldi	r19, 0xFF	; 255
    11ca:	4f e7       	ldi	r20, 0x7F	; 127
    11cc:	5f e4       	ldi	r21, 0x4F	; 79
    11ce:	c7 01       	movw	r24, r14
    11d0:	b6 01       	movw	r22, r12
    11d2:	0e 94 7a 0a 	call	0x14f4	; 0x14f4 <__gesf2>
    11d6:	18 16       	cp	r1, r24
    11d8:	ac f4       	brge	.+42     	; 0x1204 <_ZN5Print10printFloatEdh+0xb2>
    11da:	6f e8       	ldi	r22, 0x8F	; 143
    11dc:	71 e0       	ldi	r23, 0x01	; 1
    11de:	ce 01       	movw	r24, r28
    11e0:	df 91       	pop	r29
    11e2:	cf 91       	pop	r28
    11e4:	1f 91       	pop	r17
    11e6:	0f 91       	pop	r16
    11e8:	ff 90       	pop	r15
    11ea:	ef 90       	pop	r14
    11ec:	df 90       	pop	r13
    11ee:	cf 90       	pop	r12
    11f0:	bf 90       	pop	r11
    11f2:	af 90       	pop	r10
    11f4:	9f 90       	pop	r9
    11f6:	8f 90       	pop	r8
    11f8:	7f 90       	pop	r7
    11fa:	6f 90       	pop	r6
    11fc:	5f 90       	pop	r5
    11fe:	4f 90       	pop	r4
    1200:	0c 94 e7 07 	jmp	0xfce	; 0xfce <_ZN5Print5writeEPKc>
    1204:	2f ef       	ldi	r18, 0xFF	; 255
    1206:	3f ef       	ldi	r19, 0xFF	; 255
    1208:	4f e7       	ldi	r20, 0x7F	; 127
    120a:	5f ec       	ldi	r21, 0xCF	; 207
    120c:	c7 01       	movw	r24, r14
    120e:	b6 01       	movw	r22, r12
    1210:	0e 94 1b 0a 	call	0x1436	; 0x1436 <__cmpsf2>
    1214:	87 fd       	sbrc	r24, 7
    1216:	e1 cf       	rjmp	.-62     	; 0x11da <_ZN5Print10printFloatEdh+0x88>
    1218:	20 e0       	ldi	r18, 0x00	; 0
    121a:	30 e0       	ldi	r19, 0x00	; 0
    121c:	a9 01       	movw	r20, r18
    121e:	c7 01       	movw	r24, r14
    1220:	b6 01       	movw	r22, r12
    1222:	0e 94 1b 0a 	call	0x1436	; 0x1436 <__cmpsf2>
    1226:	87 ff       	sbrs	r24, 7
    1228:	0a c0       	rjmp	.+20     	; 0x123e <_ZN5Print10printFloatEdh+0xec>
    122a:	6d e2       	ldi	r22, 0x2D	; 45
    122c:	ce 01       	movw	r24, r28
    122e:	0e 94 ff 07 	call	0xffe	; 0xffe <_ZN5Print5printEc>
    1232:	8c 01       	movw	r16, r24
    1234:	f7 fa       	bst	r15, 7
    1236:	f0 94       	com	r15
    1238:	f7 f8       	bld	r15, 7
    123a:	f0 94       	com	r15
    123c:	02 c0       	rjmp	.+4      	; 0x1242 <_ZN5Print10printFloatEdh+0xf0>
    123e:	00 e0       	ldi	r16, 0x00	; 0
    1240:	10 e0       	ldi	r17, 0x00	; 0
    1242:	a1 2c       	mov	r10, r1
    1244:	60 e0       	ldi	r22, 0x00	; 0
    1246:	70 e0       	ldi	r23, 0x00	; 0
    1248:	80 e0       	ldi	r24, 0x00	; 0
    124a:	9f e3       	ldi	r25, 0x3F	; 63
    124c:	ab 14       	cp	r10, r11
    124e:	41 f0       	breq	.+16     	; 0x1260 <_ZN5Print10printFloatEdh+0x10e>
    1250:	20 e0       	ldi	r18, 0x00	; 0
    1252:	30 e0       	ldi	r19, 0x00	; 0
    1254:	40 e2       	ldi	r20, 0x20	; 32
    1256:	51 e4       	ldi	r21, 0x41	; 65
    1258:	0e 94 b3 04 	call	0x966	; 0x966 <__divsf3>
    125c:	a3 94       	inc	r10
    125e:	f6 cf       	rjmp	.-20     	; 0x124c <_ZN5Print10printFloatEdh+0xfa>
    1260:	9b 01       	movw	r18, r22
    1262:	ac 01       	movw	r20, r24
    1264:	c7 01       	movw	r24, r14
    1266:	b6 01       	movw	r22, r12
    1268:	0e 94 47 04 	call	0x88e	; 0x88e <__addsf3>
    126c:	6b 01       	movw	r12, r22
    126e:	7c 01       	movw	r14, r24
    1270:	0e 94 27 0a 	call	0x144e	; 0x144e <__fixunssfsi>
    1274:	2b 01       	movw	r4, r22
    1276:	3c 01       	movw	r6, r24
    1278:	0e 94 25 05 	call	0xa4a	; 0xa4a <__floatunsisf>
    127c:	9b 01       	movw	r18, r22
    127e:	ac 01       	movw	r20, r24
    1280:	c7 01       	movw	r24, r14
    1282:	b6 01       	movw	r22, r12
    1284:	0e 94 46 04 	call	0x88c	; 0x88c <__subsf3>
    1288:	6b 01       	movw	r12, r22
    128a:	7c 01       	movw	r14, r24
    128c:	2a e0       	ldi	r18, 0x0A	; 10
    128e:	b3 01       	movw	r22, r6
    1290:	a2 01       	movw	r20, r4
    1292:	ce 01       	movw	r24, r28
    1294:	0e 94 06 08 	call	0x100c	; 0x100c <_ZN5Print11printNumberEmh>
    1298:	08 0f       	add	r16, r24
    129a:	19 1f       	adc	r17, r25
    129c:	bb 20       	and	r11, r11
    129e:	39 f0       	breq	.+14     	; 0x12ae <_ZN5Print10printFloatEdh+0x15c>
    12a0:	63 e9       	ldi	r22, 0x93	; 147
    12a2:	71 e0       	ldi	r23, 0x01	; 1
    12a4:	ce 01       	movw	r24, r28
    12a6:	0e 94 e7 07 	call	0xfce	; 0xfce <_ZN5Print5writeEPKc>
    12aa:	08 0f       	add	r16, r24
    12ac:	19 1f       	adc	r17, r25
    12ae:	7b 2c       	mov	r7, r11
    12b0:	77 20       	and	r7, r7
    12b2:	41 f1       	breq	.+80     	; 0x1304 <_ZN5Print10printFloatEdh+0x1b2>
    12b4:	20 e0       	ldi	r18, 0x00	; 0
    12b6:	30 e0       	ldi	r19, 0x00	; 0
    12b8:	40 e2       	ldi	r20, 0x20	; 32
    12ba:	51 e4       	ldi	r21, 0x41	; 65
    12bc:	c7 01       	movw	r24, r14
    12be:	b6 01       	movw	r22, r12
    12c0:	0e 94 b3 05 	call	0xb66	; 0xb66 <__mulsf3>
    12c4:	6b 01       	movw	r12, r22
    12c6:	7c 01       	movw	r14, r24
    12c8:	0e 94 20 0a 	call	0x1440	; 0x1440 <__fixsfsi>
    12cc:	4b 01       	movw	r8, r22
    12ce:	aa 24       	eor	r10, r10
    12d0:	97 fc       	sbrc	r9, 7
    12d2:	a0 94       	com	r10
    12d4:	ba 2c       	mov	r11, r10
    12d6:	2a e0       	ldi	r18, 0x0A	; 10
    12d8:	30 e0       	ldi	r19, 0x00	; 0
    12da:	b5 01       	movw	r22, r10
    12dc:	a4 01       	movw	r20, r8
    12de:	ce 01       	movw	r24, r28
    12e0:	0e 94 5f 08 	call	0x10be	; 0x10be <_ZN5Print5printEli>
    12e4:	08 0f       	add	r16, r24
    12e6:	19 1f       	adc	r17, r25
    12e8:	c5 01       	movw	r24, r10
    12ea:	b4 01       	movw	r22, r8
    12ec:	0e 94 27 05 	call	0xa4e	; 0xa4e <__floatsisf>
    12f0:	9b 01       	movw	r18, r22
    12f2:	ac 01       	movw	r20, r24
    12f4:	c7 01       	movw	r24, r14
    12f6:	b6 01       	movw	r22, r12
    12f8:	0e 94 46 04 	call	0x88c	; 0x88c <__subsf3>
    12fc:	6b 01       	movw	r12, r22
    12fe:	7c 01       	movw	r14, r24
    1300:	7a 94       	dec	r7
    1302:	d6 cf       	rjmp	.-84     	; 0x12b0 <_ZN5Print10printFloatEdh+0x15e>
    1304:	c8 01       	movw	r24, r16
    1306:	df 91       	pop	r29
    1308:	cf 91       	pop	r28
    130a:	1f 91       	pop	r17
    130c:	0f 91       	pop	r16
    130e:	ff 90       	pop	r15
    1310:	ef 90       	pop	r14
    1312:	df 90       	pop	r13
    1314:	cf 90       	pop	r12
    1316:	bf 90       	pop	r11
    1318:	af 90       	pop	r10
    131a:	9f 90       	pop	r9
    131c:	8f 90       	pop	r8
    131e:	7f 90       	pop	r7
    1320:	6f 90       	pop	r6
    1322:	5f 90       	pop	r5
    1324:	4f 90       	pop	r4
    1326:	08 95       	ret

00001328 <_ZN5Print5printEdi>:
    1328:	0c 94 a9 08 	jmp	0x1152	; 0x1152 <_ZN5Print10printFloatEdh>

0000132c <_ZN6StringD1Ev>:
    132c:	fc 01       	movw	r30, r24
    132e:	80 81       	ld	r24, Z
    1330:	91 81       	ldd	r25, Z+1	; 0x01
    1332:	0c 94 44 0b 	jmp	0x1688	; 0x1688 <free>

00001336 <_ZN6String10invalidateEv>:
    1336:	cf 93       	push	r28
    1338:	df 93       	push	r29
    133a:	ec 01       	movw	r28, r24
    133c:	88 81       	ld	r24, Y
    133e:	99 81       	ldd	r25, Y+1	; 0x01
    1340:	00 97       	sbiw	r24, 0x00	; 0
    1342:	11 f0       	breq	.+4      	; 0x1348 <_ZN6String10invalidateEv+0x12>
    1344:	0e 94 44 0b 	call	0x1688	; 0x1688 <free>
    1348:	19 82       	std	Y+1, r1	; 0x01
    134a:	18 82       	st	Y, r1
    134c:	1d 82       	std	Y+5, r1	; 0x05
    134e:	1c 82       	std	Y+4, r1	; 0x04
    1350:	1b 82       	std	Y+3, r1	; 0x03
    1352:	1a 82       	std	Y+2, r1	; 0x02
    1354:	df 91       	pop	r29
    1356:	cf 91       	pop	r28
    1358:	08 95       	ret

0000135a <_ZN6String12changeBufferEj>:
    135a:	0f 93       	push	r16
    135c:	1f 93       	push	r17
    135e:	cf 93       	push	r28
    1360:	df 93       	push	r29
    1362:	ec 01       	movw	r28, r24
    1364:	8b 01       	movw	r16, r22
    1366:	6f 5f       	subi	r22, 0xFF	; 255
    1368:	7f 4f       	sbci	r23, 0xFF	; 255
    136a:	88 81       	ld	r24, Y
    136c:	99 81       	ldd	r25, Y+1	; 0x01
    136e:	0e 94 cd 0b 	call	0x179a	; 0x179a <realloc>
    1372:	00 97       	sbiw	r24, 0x00	; 0
    1374:	31 f0       	breq	.+12     	; 0x1382 <_ZN6String12changeBufferEj+0x28>
    1376:	99 83       	std	Y+1, r25	; 0x01
    1378:	88 83       	st	Y, r24
    137a:	1b 83       	std	Y+3, r17	; 0x03
    137c:	0a 83       	std	Y+2, r16	; 0x02
    137e:	81 e0       	ldi	r24, 0x01	; 1
    1380:	01 c0       	rjmp	.+2      	; 0x1384 <_ZN6String12changeBufferEj+0x2a>
    1382:	80 e0       	ldi	r24, 0x00	; 0
    1384:	df 91       	pop	r29
    1386:	cf 91       	pop	r28
    1388:	1f 91       	pop	r17
    138a:	0f 91       	pop	r16
    138c:	08 95       	ret

0000138e <_ZN6String7reserveEj>:
    138e:	cf 93       	push	r28
    1390:	df 93       	push	r29
    1392:	ec 01       	movw	r28, r24
    1394:	88 81       	ld	r24, Y
    1396:	99 81       	ldd	r25, Y+1	; 0x01
    1398:	89 2b       	or	r24, r25
    139a:	29 f0       	breq	.+10     	; 0x13a6 <_ZN6String7reserveEj+0x18>
    139c:	8a 81       	ldd	r24, Y+2	; 0x02
    139e:	9b 81       	ldd	r25, Y+3	; 0x03
    13a0:	86 17       	cp	r24, r22
    13a2:	97 07       	cpc	r25, r23
    13a4:	60 f4       	brcc	.+24     	; 0x13be <_ZN6String7reserveEj+0x30>
    13a6:	ce 01       	movw	r24, r28
    13a8:	0e 94 ad 09 	call	0x135a	; 0x135a <_ZN6String12changeBufferEj>
    13ac:	88 23       	and	r24, r24
    13ae:	41 f0       	breq	.+16     	; 0x13c0 <_ZN6String7reserveEj+0x32>
    13b0:	8c 81       	ldd	r24, Y+4	; 0x04
    13b2:	9d 81       	ldd	r25, Y+5	; 0x05
    13b4:	89 2b       	or	r24, r25
    13b6:	19 f4       	brne	.+6      	; 0x13be <_ZN6String7reserveEj+0x30>
    13b8:	e8 81       	ld	r30, Y
    13ba:	f9 81       	ldd	r31, Y+1	; 0x01
    13bc:	10 82       	st	Z, r1
    13be:	81 e0       	ldi	r24, 0x01	; 1
    13c0:	df 91       	pop	r29
    13c2:	cf 91       	pop	r28
    13c4:	08 95       	ret

000013c6 <_ZN6String4copyEPKcj>:
    13c6:	ef 92       	push	r14
    13c8:	ff 92       	push	r15
    13ca:	0f 93       	push	r16
    13cc:	1f 93       	push	r17
    13ce:	cf 93       	push	r28
    13d0:	df 93       	push	r29
    13d2:	ec 01       	movw	r28, r24
    13d4:	7b 01       	movw	r14, r22
    13d6:	8a 01       	movw	r16, r20
    13d8:	ba 01       	movw	r22, r20
    13da:	0e 94 c7 09 	call	0x138e	; 0x138e <_ZN6String7reserveEj>
    13de:	81 11       	cpse	r24, r1
    13e0:	04 c0       	rjmp	.+8      	; 0x13ea <_ZN6String4copyEPKcj+0x24>
    13e2:	ce 01       	movw	r24, r28
    13e4:	0e 94 9b 09 	call	0x1336	; 0x1336 <_ZN6String10invalidateEv>
    13e8:	07 c0       	rjmp	.+14     	; 0x13f8 <_ZN6String4copyEPKcj+0x32>
    13ea:	1d 83       	std	Y+5, r17	; 0x05
    13ec:	0c 83       	std	Y+4, r16	; 0x04
    13ee:	b7 01       	movw	r22, r14
    13f0:	88 81       	ld	r24, Y
    13f2:	99 81       	ldd	r25, Y+1	; 0x01
    13f4:	0e 94 9c 0c 	call	0x1938	; 0x1938 <strcpy>
    13f8:	ce 01       	movw	r24, r28
    13fa:	df 91       	pop	r29
    13fc:	cf 91       	pop	r28
    13fe:	1f 91       	pop	r17
    1400:	0f 91       	pop	r16
    1402:	ff 90       	pop	r15
    1404:	ef 90       	pop	r14
    1406:	08 95       	ret

00001408 <_ZN6StringC1EPKc>:
    1408:	fc 01       	movw	r30, r24
    140a:	11 82       	std	Z+1, r1	; 0x01
    140c:	10 82       	st	Z, r1
    140e:	13 82       	std	Z+3, r1	; 0x03
    1410:	12 82       	std	Z+2, r1	; 0x02
    1412:	15 82       	std	Z+5, r1	; 0x05
    1414:	14 82       	std	Z+4, r1	; 0x04
    1416:	61 15       	cp	r22, r1
    1418:	71 05       	cpc	r23, r1
    141a:	59 f0       	breq	.+22     	; 0x1432 <_ZN6StringC1EPKc+0x2a>
    141c:	fb 01       	movw	r30, r22
    141e:	01 90       	ld	r0, Z+
    1420:	00 20       	and	r0, r0
    1422:	e9 f7       	brne	.-6      	; 0x141e <_ZN6StringC1EPKc+0x16>
    1424:	af 01       	movw	r20, r30
    1426:	41 50       	subi	r20, 0x01	; 1
    1428:	51 09       	sbc	r21, r1
    142a:	46 1b       	sub	r20, r22
    142c:	57 0b       	sbc	r21, r23
    142e:	0c 94 e3 09 	jmp	0x13c6	; 0x13c6 <_ZN6String4copyEPKcj>
    1432:	08 95       	ret

00001434 <yield>:
    1434:	08 95       	ret

00001436 <__cmpsf2>:
    1436:	0e 94 56 0a 	call	0x14ac	; 0x14ac <__fp_cmp>
    143a:	08 f4       	brcc	.+2      	; 0x143e <__cmpsf2+0x8>
    143c:	81 e0       	ldi	r24, 0x01	; 1
    143e:	08 95       	ret

00001440 <__fixsfsi>:
    1440:	0e 94 27 0a 	call	0x144e	; 0x144e <__fixunssfsi>
    1444:	68 94       	set
    1446:	b1 11       	cpse	r27, r1
    1448:	0c 94 ad 05 	jmp	0xb5a	; 0xb5a <__fp_szero>
    144c:	08 95       	ret

0000144e <__fixunssfsi>:
    144e:	0e 94 92 05 	call	0xb24	; 0xb24 <__fp_splitA>
    1452:	88 f0       	brcs	.+34     	; 0x1476 <__fixunssfsi+0x28>
    1454:	9f 57       	subi	r25, 0x7F	; 127
    1456:	98 f0       	brcs	.+38     	; 0x147e <__fixunssfsi+0x30>
    1458:	b9 2f       	mov	r27, r25
    145a:	99 27       	eor	r25, r25
    145c:	b7 51       	subi	r27, 0x17	; 23
    145e:	b0 f0       	brcs	.+44     	; 0x148c <__fixunssfsi+0x3e>
    1460:	e1 f0       	breq	.+56     	; 0x149a <__fixunssfsi+0x4c>
    1462:	66 0f       	add	r22, r22
    1464:	77 1f       	adc	r23, r23
    1466:	88 1f       	adc	r24, r24
    1468:	99 1f       	adc	r25, r25
    146a:	1a f0       	brmi	.+6      	; 0x1472 <__fixunssfsi+0x24>
    146c:	ba 95       	dec	r27
    146e:	c9 f7       	brne	.-14     	; 0x1462 <__fixunssfsi+0x14>
    1470:	14 c0       	rjmp	.+40     	; 0x149a <__fixunssfsi+0x4c>
    1472:	b1 30       	cpi	r27, 0x01	; 1
    1474:	91 f0       	breq	.+36     	; 0x149a <__fixunssfsi+0x4c>
    1476:	0e 94 ac 05 	call	0xb58	; 0xb58 <__fp_zero>
    147a:	b1 e0       	ldi	r27, 0x01	; 1
    147c:	08 95       	ret
    147e:	0c 94 ac 05 	jmp	0xb58	; 0xb58 <__fp_zero>
    1482:	67 2f       	mov	r22, r23
    1484:	78 2f       	mov	r23, r24
    1486:	88 27       	eor	r24, r24
    1488:	b8 5f       	subi	r27, 0xF8	; 248
    148a:	39 f0       	breq	.+14     	; 0x149a <__fixunssfsi+0x4c>
    148c:	b9 3f       	cpi	r27, 0xF9	; 249
    148e:	cc f3       	brlt	.-14     	; 0x1482 <__fixunssfsi+0x34>
    1490:	86 95       	lsr	r24
    1492:	77 95       	ror	r23
    1494:	67 95       	ror	r22
    1496:	b3 95       	inc	r27
    1498:	d9 f7       	brne	.-10     	; 0x1490 <__fixunssfsi+0x42>
    149a:	3e f4       	brtc	.+14     	; 0x14aa <__fixunssfsi+0x5c>
    149c:	90 95       	com	r25
    149e:	80 95       	com	r24
    14a0:	70 95       	com	r23
    14a2:	61 95       	neg	r22
    14a4:	7f 4f       	sbci	r23, 0xFF	; 255
    14a6:	8f 4f       	sbci	r24, 0xFF	; 255
    14a8:	9f 4f       	sbci	r25, 0xFF	; 255
    14aa:	08 95       	ret

000014ac <__fp_cmp>:
    14ac:	99 0f       	add	r25, r25
    14ae:	00 08       	sbc	r0, r0
    14b0:	55 0f       	add	r21, r21
    14b2:	aa 0b       	sbc	r26, r26
    14b4:	e0 e8       	ldi	r30, 0x80	; 128
    14b6:	fe ef       	ldi	r31, 0xFE	; 254
    14b8:	16 16       	cp	r1, r22
    14ba:	17 06       	cpc	r1, r23
    14bc:	e8 07       	cpc	r30, r24
    14be:	f9 07       	cpc	r31, r25
    14c0:	c0 f0       	brcs	.+48     	; 0x14f2 <__fp_cmp+0x46>
    14c2:	12 16       	cp	r1, r18
    14c4:	13 06       	cpc	r1, r19
    14c6:	e4 07       	cpc	r30, r20
    14c8:	f5 07       	cpc	r31, r21
    14ca:	98 f0       	brcs	.+38     	; 0x14f2 <__fp_cmp+0x46>
    14cc:	62 1b       	sub	r22, r18
    14ce:	73 0b       	sbc	r23, r19
    14d0:	84 0b       	sbc	r24, r20
    14d2:	95 0b       	sbc	r25, r21
    14d4:	39 f4       	brne	.+14     	; 0x14e4 <__fp_cmp+0x38>
    14d6:	0a 26       	eor	r0, r26
    14d8:	61 f0       	breq	.+24     	; 0x14f2 <__fp_cmp+0x46>
    14da:	23 2b       	or	r18, r19
    14dc:	24 2b       	or	r18, r20
    14de:	25 2b       	or	r18, r21
    14e0:	21 f4       	brne	.+8      	; 0x14ea <__fp_cmp+0x3e>
    14e2:	08 95       	ret
    14e4:	0a 26       	eor	r0, r26
    14e6:	09 f4       	brne	.+2      	; 0x14ea <__fp_cmp+0x3e>
    14e8:	a1 40       	sbci	r26, 0x01	; 1
    14ea:	a6 95       	lsr	r26
    14ec:	8f ef       	ldi	r24, 0xFF	; 255
    14ee:	81 1d       	adc	r24, r1
    14f0:	81 1d       	adc	r24, r1
    14f2:	08 95       	ret

000014f4 <__gesf2>:
    14f4:	0e 94 56 0a 	call	0x14ac	; 0x14ac <__fp_cmp>
    14f8:	08 f4       	brcc	.+2      	; 0x14fc <__gesf2+0x8>
    14fa:	8f ef       	ldi	r24, 0xFF	; 255
    14fc:	08 95       	ret

000014fe <__unordsf2>:
    14fe:	0e 94 56 0a 	call	0x14ac	; 0x14ac <__fp_cmp>
    1502:	88 0b       	sbc	r24, r24
    1504:	99 0b       	sbc	r25, r25
    1506:	08 95       	ret

00001508 <__udivmodsi4>:
    1508:	a1 e2       	ldi	r26, 0x21	; 33
    150a:	1a 2e       	mov	r1, r26
    150c:	aa 1b       	sub	r26, r26
    150e:	bb 1b       	sub	r27, r27
    1510:	fd 01       	movw	r30, r26
    1512:	0d c0       	rjmp	.+26     	; 0x152e <__udivmodsi4_ep>

00001514 <__udivmodsi4_loop>:
    1514:	aa 1f       	adc	r26, r26
    1516:	bb 1f       	adc	r27, r27
    1518:	ee 1f       	adc	r30, r30
    151a:	ff 1f       	adc	r31, r31
    151c:	a2 17       	cp	r26, r18
    151e:	b3 07       	cpc	r27, r19
    1520:	e4 07       	cpc	r30, r20
    1522:	f5 07       	cpc	r31, r21
    1524:	20 f0       	brcs	.+8      	; 0x152e <__udivmodsi4_ep>
    1526:	a2 1b       	sub	r26, r18
    1528:	b3 0b       	sbc	r27, r19
    152a:	e4 0b       	sbc	r30, r20
    152c:	f5 0b       	sbc	r31, r21

0000152e <__udivmodsi4_ep>:
    152e:	66 1f       	adc	r22, r22
    1530:	77 1f       	adc	r23, r23
    1532:	88 1f       	adc	r24, r24
    1534:	99 1f       	adc	r25, r25
    1536:	1a 94       	dec	r1
    1538:	69 f7       	brne	.-38     	; 0x1514 <__udivmodsi4_loop>
    153a:	60 95       	com	r22
    153c:	70 95       	com	r23
    153e:	80 95       	com	r24
    1540:	90 95       	com	r25
    1542:	9b 01       	movw	r18, r22
    1544:	ac 01       	movw	r20, r24
    1546:	bd 01       	movw	r22, r26
    1548:	cf 01       	movw	r24, r30
    154a:	08 95       	ret

0000154c <__tablejump2__>:
    154c:	ee 0f       	add	r30, r30
    154e:	ff 1f       	adc	r31, r31
    1550:	05 90       	lpm	r0, Z+
    1552:	f4 91       	lpm	r31, Z
    1554:	e0 2d       	mov	r30, r0
    1556:	09 94       	ijmp

00001558 <malloc>:
    1558:	0f 93       	push	r16
    155a:	1f 93       	push	r17
    155c:	cf 93       	push	r28
    155e:	df 93       	push	r29
    1560:	82 30       	cpi	r24, 0x02	; 2
    1562:	91 05       	cpc	r25, r1
    1564:	10 f4       	brcc	.+4      	; 0x156a <malloc+0x12>
    1566:	82 e0       	ldi	r24, 0x02	; 2
    1568:	90 e0       	ldi	r25, 0x00	; 0
    156a:	e0 91 d9 01 	lds	r30, 0x01D9	; 0x8001d9 <__flp>
    156e:	f0 91 da 01 	lds	r31, 0x01DA	; 0x8001da <__flp+0x1>
    1572:	20 e0       	ldi	r18, 0x00	; 0
    1574:	30 e0       	ldi	r19, 0x00	; 0
    1576:	a0 e0       	ldi	r26, 0x00	; 0
    1578:	b0 e0       	ldi	r27, 0x00	; 0
    157a:	30 97       	sbiw	r30, 0x00	; 0
    157c:	19 f1       	breq	.+70     	; 0x15c4 <malloc+0x6c>
    157e:	40 81       	ld	r20, Z
    1580:	51 81       	ldd	r21, Z+1	; 0x01
    1582:	02 81       	ldd	r16, Z+2	; 0x02
    1584:	13 81       	ldd	r17, Z+3	; 0x03
    1586:	48 17       	cp	r20, r24
    1588:	59 07       	cpc	r21, r25
    158a:	c8 f0       	brcs	.+50     	; 0x15be <malloc+0x66>
    158c:	84 17       	cp	r24, r20
    158e:	95 07       	cpc	r25, r21
    1590:	69 f4       	brne	.+26     	; 0x15ac <malloc+0x54>
    1592:	10 97       	sbiw	r26, 0x00	; 0
    1594:	31 f0       	breq	.+12     	; 0x15a2 <malloc+0x4a>
    1596:	12 96       	adiw	r26, 0x02	; 2
    1598:	0c 93       	st	X, r16
    159a:	12 97       	sbiw	r26, 0x02	; 2
    159c:	13 96       	adiw	r26, 0x03	; 3
    159e:	1c 93       	st	X, r17
    15a0:	27 c0       	rjmp	.+78     	; 0x15f0 <malloc+0x98>
    15a2:	00 93 d9 01 	sts	0x01D9, r16	; 0x8001d9 <__flp>
    15a6:	10 93 da 01 	sts	0x01DA, r17	; 0x8001da <__flp+0x1>
    15aa:	22 c0       	rjmp	.+68     	; 0x15f0 <malloc+0x98>
    15ac:	21 15       	cp	r18, r1
    15ae:	31 05       	cpc	r19, r1
    15b0:	19 f0       	breq	.+6      	; 0x15b8 <malloc+0x60>
    15b2:	42 17       	cp	r20, r18
    15b4:	53 07       	cpc	r21, r19
    15b6:	18 f4       	brcc	.+6      	; 0x15be <malloc+0x66>
    15b8:	9a 01       	movw	r18, r20
    15ba:	bd 01       	movw	r22, r26
    15bc:	ef 01       	movw	r28, r30
    15be:	df 01       	movw	r26, r30
    15c0:	f8 01       	movw	r30, r16
    15c2:	db cf       	rjmp	.-74     	; 0x157a <malloc+0x22>
    15c4:	21 15       	cp	r18, r1
    15c6:	31 05       	cpc	r19, r1
    15c8:	f9 f0       	breq	.+62     	; 0x1608 <malloc+0xb0>
    15ca:	28 1b       	sub	r18, r24
    15cc:	39 0b       	sbc	r19, r25
    15ce:	24 30       	cpi	r18, 0x04	; 4
    15d0:	31 05       	cpc	r19, r1
    15d2:	80 f4       	brcc	.+32     	; 0x15f4 <malloc+0x9c>
    15d4:	8a 81       	ldd	r24, Y+2	; 0x02
    15d6:	9b 81       	ldd	r25, Y+3	; 0x03
    15d8:	61 15       	cp	r22, r1
    15da:	71 05       	cpc	r23, r1
    15dc:	21 f0       	breq	.+8      	; 0x15e6 <malloc+0x8e>
    15de:	fb 01       	movw	r30, r22
    15e0:	93 83       	std	Z+3, r25	; 0x03
    15e2:	82 83       	std	Z+2, r24	; 0x02
    15e4:	04 c0       	rjmp	.+8      	; 0x15ee <malloc+0x96>
    15e6:	90 93 da 01 	sts	0x01DA, r25	; 0x8001da <__flp+0x1>
    15ea:	80 93 d9 01 	sts	0x01D9, r24	; 0x8001d9 <__flp>
    15ee:	fe 01       	movw	r30, r28
    15f0:	32 96       	adiw	r30, 0x02	; 2
    15f2:	44 c0       	rjmp	.+136    	; 0x167c <malloc+0x124>
    15f4:	fe 01       	movw	r30, r28
    15f6:	e2 0f       	add	r30, r18
    15f8:	f3 1f       	adc	r31, r19
    15fa:	81 93       	st	Z+, r24
    15fc:	91 93       	st	Z+, r25
    15fe:	22 50       	subi	r18, 0x02	; 2
    1600:	31 09       	sbc	r19, r1
    1602:	39 83       	std	Y+1, r19	; 0x01
    1604:	28 83       	st	Y, r18
    1606:	3a c0       	rjmp	.+116    	; 0x167c <malloc+0x124>
    1608:	20 91 d7 01 	lds	r18, 0x01D7	; 0x8001d7 <__brkval>
    160c:	30 91 d8 01 	lds	r19, 0x01D8	; 0x8001d8 <__brkval+0x1>
    1610:	23 2b       	or	r18, r19
    1612:	41 f4       	brne	.+16     	; 0x1624 <malloc+0xcc>
    1614:	20 91 02 01 	lds	r18, 0x0102	; 0x800102 <__malloc_heap_start>
    1618:	30 91 03 01 	lds	r19, 0x0103	; 0x800103 <__malloc_heap_start+0x1>
    161c:	30 93 d8 01 	sts	0x01D8, r19	; 0x8001d8 <__brkval+0x1>
    1620:	20 93 d7 01 	sts	0x01D7, r18	; 0x8001d7 <__brkval>
    1624:	20 91 00 01 	lds	r18, 0x0100	; 0x800100 <__data_start>
    1628:	30 91 01 01 	lds	r19, 0x0101	; 0x800101 <__data_start+0x1>
    162c:	21 15       	cp	r18, r1
    162e:	31 05       	cpc	r19, r1
    1630:	41 f4       	brne	.+16     	; 0x1642 <malloc+0xea>
    1632:	2d b7       	in	r18, 0x3d	; 61
    1634:	3e b7       	in	r19, 0x3e	; 62
    1636:	40 91 04 01 	lds	r20, 0x0104	; 0x800104 <__malloc_margin>
    163a:	50 91 05 01 	lds	r21, 0x0105	; 0x800105 <__malloc_margin+0x1>
    163e:	24 1b       	sub	r18, r20
    1640:	35 0b       	sbc	r19, r21
    1642:	e0 91 d7 01 	lds	r30, 0x01D7	; 0x8001d7 <__brkval>
    1646:	f0 91 d8 01 	lds	r31, 0x01D8	; 0x8001d8 <__brkval+0x1>
    164a:	e2 17       	cp	r30, r18
    164c:	f3 07       	cpc	r31, r19
    164e:	a0 f4       	brcc	.+40     	; 0x1678 <malloc+0x120>
    1650:	2e 1b       	sub	r18, r30
    1652:	3f 0b       	sbc	r19, r31
    1654:	28 17       	cp	r18, r24
    1656:	39 07       	cpc	r19, r25
    1658:	78 f0       	brcs	.+30     	; 0x1678 <malloc+0x120>
    165a:	ac 01       	movw	r20, r24
    165c:	4e 5f       	subi	r20, 0xFE	; 254
    165e:	5f 4f       	sbci	r21, 0xFF	; 255
    1660:	24 17       	cp	r18, r20
    1662:	35 07       	cpc	r19, r21
    1664:	48 f0       	brcs	.+18     	; 0x1678 <malloc+0x120>
    1666:	4e 0f       	add	r20, r30
    1668:	5f 1f       	adc	r21, r31
    166a:	50 93 d8 01 	sts	0x01D8, r21	; 0x8001d8 <__brkval+0x1>
    166e:	40 93 d7 01 	sts	0x01D7, r20	; 0x8001d7 <__brkval>
    1672:	81 93       	st	Z+, r24
    1674:	91 93       	st	Z+, r25
    1676:	02 c0       	rjmp	.+4      	; 0x167c <malloc+0x124>
    1678:	e0 e0       	ldi	r30, 0x00	; 0
    167a:	f0 e0       	ldi	r31, 0x00	; 0
    167c:	cf 01       	movw	r24, r30
    167e:	df 91       	pop	r29
    1680:	cf 91       	pop	r28
    1682:	1f 91       	pop	r17
    1684:	0f 91       	pop	r16
    1686:	08 95       	ret

00001688 <free>:
    1688:	cf 93       	push	r28
    168a:	df 93       	push	r29
    168c:	00 97       	sbiw	r24, 0x00	; 0
    168e:	09 f4       	brne	.+2      	; 0x1692 <free+0xa>
    1690:	81 c0       	rjmp	.+258    	; 0x1794 <free+0x10c>
    1692:	fc 01       	movw	r30, r24
    1694:	32 97       	sbiw	r30, 0x02	; 2
    1696:	13 82       	std	Z+3, r1	; 0x03
    1698:	12 82       	std	Z+2, r1	; 0x02
    169a:	a0 91 d9 01 	lds	r26, 0x01D9	; 0x8001d9 <__flp>
    169e:	b0 91 da 01 	lds	r27, 0x01DA	; 0x8001da <__flp+0x1>
    16a2:	10 97       	sbiw	r26, 0x00	; 0
    16a4:	81 f4       	brne	.+32     	; 0x16c6 <free+0x3e>
    16a6:	20 81       	ld	r18, Z
    16a8:	31 81       	ldd	r19, Z+1	; 0x01
    16aa:	82 0f       	add	r24, r18
    16ac:	93 1f       	adc	r25, r19
    16ae:	20 91 d7 01 	lds	r18, 0x01D7	; 0x8001d7 <__brkval>
    16b2:	30 91 d8 01 	lds	r19, 0x01D8	; 0x8001d8 <__brkval+0x1>
    16b6:	28 17       	cp	r18, r24
    16b8:	39 07       	cpc	r19, r25
    16ba:	51 f5       	brne	.+84     	; 0x1710 <free+0x88>
    16bc:	f0 93 d8 01 	sts	0x01D8, r31	; 0x8001d8 <__brkval+0x1>
    16c0:	e0 93 d7 01 	sts	0x01D7, r30	; 0x8001d7 <__brkval>
    16c4:	67 c0       	rjmp	.+206    	; 0x1794 <free+0x10c>
    16c6:	ed 01       	movw	r28, r26
    16c8:	20 e0       	ldi	r18, 0x00	; 0
    16ca:	30 e0       	ldi	r19, 0x00	; 0
    16cc:	ce 17       	cp	r28, r30
    16ce:	df 07       	cpc	r29, r31
    16d0:	40 f4       	brcc	.+16     	; 0x16e2 <free+0x5a>
    16d2:	4a 81       	ldd	r20, Y+2	; 0x02
    16d4:	5b 81       	ldd	r21, Y+3	; 0x03
    16d6:	9e 01       	movw	r18, r28
    16d8:	41 15       	cp	r20, r1
    16da:	51 05       	cpc	r21, r1
    16dc:	f1 f0       	breq	.+60     	; 0x171a <free+0x92>
    16de:	ea 01       	movw	r28, r20
    16e0:	f5 cf       	rjmp	.-22     	; 0x16cc <free+0x44>
    16e2:	d3 83       	std	Z+3, r29	; 0x03
    16e4:	c2 83       	std	Z+2, r28	; 0x02
    16e6:	40 81       	ld	r20, Z
    16e8:	51 81       	ldd	r21, Z+1	; 0x01
    16ea:	84 0f       	add	r24, r20
    16ec:	95 1f       	adc	r25, r21
    16ee:	c8 17       	cp	r28, r24
    16f0:	d9 07       	cpc	r29, r25
    16f2:	59 f4       	brne	.+22     	; 0x170a <free+0x82>
    16f4:	88 81       	ld	r24, Y
    16f6:	99 81       	ldd	r25, Y+1	; 0x01
    16f8:	84 0f       	add	r24, r20
    16fa:	95 1f       	adc	r25, r21
    16fc:	02 96       	adiw	r24, 0x02	; 2
    16fe:	91 83       	std	Z+1, r25	; 0x01
    1700:	80 83       	st	Z, r24
    1702:	8a 81       	ldd	r24, Y+2	; 0x02
    1704:	9b 81       	ldd	r25, Y+3	; 0x03
    1706:	93 83       	std	Z+3, r25	; 0x03
    1708:	82 83       	std	Z+2, r24	; 0x02
    170a:	21 15       	cp	r18, r1
    170c:	31 05       	cpc	r19, r1
    170e:	29 f4       	brne	.+10     	; 0x171a <free+0x92>
    1710:	f0 93 da 01 	sts	0x01DA, r31	; 0x8001da <__flp+0x1>
    1714:	e0 93 d9 01 	sts	0x01D9, r30	; 0x8001d9 <__flp>
    1718:	3d c0       	rjmp	.+122    	; 0x1794 <free+0x10c>
    171a:	e9 01       	movw	r28, r18
    171c:	fb 83       	std	Y+3, r31	; 0x03
    171e:	ea 83       	std	Y+2, r30	; 0x02
    1720:	49 91       	ld	r20, Y+
    1722:	59 91       	ld	r21, Y+
    1724:	c4 0f       	add	r28, r20
    1726:	d5 1f       	adc	r29, r21
    1728:	ec 17       	cp	r30, r28
    172a:	fd 07       	cpc	r31, r29
    172c:	61 f4       	brne	.+24     	; 0x1746 <free+0xbe>
    172e:	80 81       	ld	r24, Z
    1730:	91 81       	ldd	r25, Z+1	; 0x01
    1732:	84 0f       	add	r24, r20
    1734:	95 1f       	adc	r25, r21
    1736:	02 96       	adiw	r24, 0x02	; 2
    1738:	e9 01       	movw	r28, r18
    173a:	99 83       	std	Y+1, r25	; 0x01
    173c:	88 83       	st	Y, r24
    173e:	82 81       	ldd	r24, Z+2	; 0x02
    1740:	93 81       	ldd	r25, Z+3	; 0x03
    1742:	9b 83       	std	Y+3, r25	; 0x03
    1744:	8a 83       	std	Y+2, r24	; 0x02
    1746:	e0 e0       	ldi	r30, 0x00	; 0
    1748:	f0 e0       	ldi	r31, 0x00	; 0
    174a:	12 96       	adiw	r26, 0x02	; 2
    174c:	8d 91       	ld	r24, X+
    174e:	9c 91       	ld	r25, X
    1750:	13 97       	sbiw	r26, 0x03	; 3
    1752:	00 97       	sbiw	r24, 0x00	; 0
    1754:	19 f0       	breq	.+6      	; 0x175c <free+0xd4>
    1756:	fd 01       	movw	r30, r26
    1758:	dc 01       	movw	r26, r24
    175a:	f7 cf       	rjmp	.-18     	; 0x174a <free+0xc2>
    175c:	8d 91       	ld	r24, X+
    175e:	9c 91       	ld	r25, X
    1760:	11 97       	sbiw	r26, 0x01	; 1
    1762:	9d 01       	movw	r18, r26
    1764:	2e 5f       	subi	r18, 0xFE	; 254
    1766:	3f 4f       	sbci	r19, 0xFF	; 255
    1768:	82 0f       	add	r24, r18
    176a:	93 1f       	adc	r25, r19
    176c:	20 91 d7 01 	lds	r18, 0x01D7	; 0x8001d7 <__brkval>
    1770:	30 91 d8 01 	lds	r19, 0x01D8	; 0x8001d8 <__brkval+0x1>
    1774:	28 17       	cp	r18, r24
    1776:	39 07       	cpc	r19, r25
    1778:	69 f4       	brne	.+26     	; 0x1794 <free+0x10c>
    177a:	30 97       	sbiw	r30, 0x00	; 0
    177c:	29 f4       	brne	.+10     	; 0x1788 <free+0x100>
    177e:	10 92 da 01 	sts	0x01DA, r1	; 0x8001da <__flp+0x1>
    1782:	10 92 d9 01 	sts	0x01D9, r1	; 0x8001d9 <__flp>
    1786:	02 c0       	rjmp	.+4      	; 0x178c <free+0x104>
    1788:	13 82       	std	Z+3, r1	; 0x03
    178a:	12 82       	std	Z+2, r1	; 0x02
    178c:	b0 93 d8 01 	sts	0x01D8, r27	; 0x8001d8 <__brkval+0x1>
    1790:	a0 93 d7 01 	sts	0x01D7, r26	; 0x8001d7 <__brkval>
    1794:	df 91       	pop	r29
    1796:	cf 91       	pop	r28
    1798:	08 95       	ret

0000179a <realloc>:
    179a:	a0 e0       	ldi	r26, 0x00	; 0
    179c:	b0 e0       	ldi	r27, 0x00	; 0
    179e:	e3 ed       	ldi	r30, 0xD3	; 211
    17a0:	fb e0       	ldi	r31, 0x0B	; 11
    17a2:	0c 94 a7 0c 	jmp	0x194e	; 0x194e <__prologue_saves__+0x8>
    17a6:	ec 01       	movw	r28, r24
    17a8:	00 97       	sbiw	r24, 0x00	; 0
    17aa:	21 f4       	brne	.+8      	; 0x17b4 <realloc+0x1a>
    17ac:	cb 01       	movw	r24, r22
    17ae:	0e 94 ac 0a 	call	0x1558	; 0x1558 <malloc>
    17b2:	b4 c0       	rjmp	.+360    	; 0x191c <realloc+0x182>
    17b4:	fc 01       	movw	r30, r24
    17b6:	e6 0f       	add	r30, r22
    17b8:	f7 1f       	adc	r31, r23
    17ba:	9c 01       	movw	r18, r24
    17bc:	22 50       	subi	r18, 0x02	; 2
    17be:	31 09       	sbc	r19, r1
    17c0:	e2 17       	cp	r30, r18
    17c2:	f3 07       	cpc	r31, r19
    17c4:	08 f4       	brcc	.+2      	; 0x17c8 <realloc+0x2e>
    17c6:	a8 c0       	rjmp	.+336    	; 0x1918 <realloc+0x17e>
    17c8:	d9 01       	movw	r26, r18
    17ca:	0d 91       	ld	r16, X+
    17cc:	1c 91       	ld	r17, X
    17ce:	11 97       	sbiw	r26, 0x01	; 1
    17d0:	06 17       	cp	r16, r22
    17d2:	17 07       	cpc	r17, r23
    17d4:	b0 f0       	brcs	.+44     	; 0x1802 <realloc+0x68>
    17d6:	05 30       	cpi	r16, 0x05	; 5
    17d8:	11 05       	cpc	r17, r1
    17da:	08 f4       	brcc	.+2      	; 0x17de <realloc+0x44>
    17dc:	9b c0       	rjmp	.+310    	; 0x1914 <realloc+0x17a>
    17de:	c8 01       	movw	r24, r16
    17e0:	04 97       	sbiw	r24, 0x04	; 4
    17e2:	86 17       	cp	r24, r22
    17e4:	97 07       	cpc	r25, r23
    17e6:	08 f4       	brcc	.+2      	; 0x17ea <realloc+0x50>
    17e8:	95 c0       	rjmp	.+298    	; 0x1914 <realloc+0x17a>
    17ea:	02 50       	subi	r16, 0x02	; 2
    17ec:	11 09       	sbc	r17, r1
    17ee:	06 1b       	sub	r16, r22
    17f0:	17 0b       	sbc	r17, r23
    17f2:	01 93       	st	Z+, r16
    17f4:	11 93       	st	Z+, r17
    17f6:	6d 93       	st	X+, r22
    17f8:	7c 93       	st	X, r23
    17fa:	cf 01       	movw	r24, r30
    17fc:	0e 94 44 0b 	call	0x1688	; 0x1688 <free>
    1800:	89 c0       	rjmp	.+274    	; 0x1914 <realloc+0x17a>
    1802:	5b 01       	movw	r10, r22
    1804:	a0 1a       	sub	r10, r16
    1806:	b1 0a       	sbc	r11, r17
    1808:	4c 01       	movw	r8, r24
    180a:	80 0e       	add	r8, r16
    180c:	91 1e       	adc	r9, r17
    180e:	a0 91 d9 01 	lds	r26, 0x01D9	; 0x8001d9 <__flp>
    1812:	b0 91 da 01 	lds	r27, 0x01DA	; 0x8001da <__flp+0x1>
    1816:	61 2c       	mov	r6, r1
    1818:	71 2c       	mov	r7, r1
    181a:	e1 2c       	mov	r14, r1
    181c:	f1 2c       	mov	r15, r1
    181e:	10 97       	sbiw	r26, 0x00	; 0
    1820:	09 f4       	brne	.+2      	; 0x1824 <realloc+0x8a>
    1822:	46 c0       	rjmp	.+140    	; 0x18b0 <realloc+0x116>
    1824:	8d 91       	ld	r24, X+
    1826:	9c 91       	ld	r25, X
    1828:	11 97       	sbiw	r26, 0x01	; 1
    182a:	a8 15       	cp	r26, r8
    182c:	b9 05       	cpc	r27, r9
    182e:	b1 f5       	brne	.+108    	; 0x189c <realloc+0x102>
    1830:	6c 01       	movw	r12, r24
    1832:	42 e0       	ldi	r20, 0x02	; 2
    1834:	c4 0e       	add	r12, r20
    1836:	d1 1c       	adc	r13, r1
    1838:	ca 14       	cp	r12, r10
    183a:	db 04       	cpc	r13, r11
    183c:	78 f1       	brcs	.+94     	; 0x189c <realloc+0x102>
    183e:	4c 01       	movw	r8, r24
    1840:	8a 18       	sub	r8, r10
    1842:	9b 08       	sbc	r9, r11
    1844:	64 01       	movw	r12, r8
    1846:	42 e0       	ldi	r20, 0x02	; 2
    1848:	c4 0e       	add	r12, r20
    184a:	d1 1c       	adc	r13, r1
    184c:	12 96       	adiw	r26, 0x02	; 2
    184e:	bc 90       	ld	r11, X
    1850:	12 97       	sbiw	r26, 0x02	; 2
    1852:	13 96       	adiw	r26, 0x03	; 3
    1854:	ac 91       	ld	r26, X
    1856:	b5 e0       	ldi	r27, 0x05	; 5
    1858:	cb 16       	cp	r12, r27
    185a:	d1 04       	cpc	r13, r1
    185c:	40 f0       	brcs	.+16     	; 0x186e <realloc+0xd4>
    185e:	b2 82       	std	Z+2, r11	; 0x02
    1860:	a3 83       	std	Z+3, r26	; 0x03
    1862:	91 82       	std	Z+1, r9	; 0x01
    1864:	80 82       	st	Z, r8
    1866:	d9 01       	movw	r26, r18
    1868:	6d 93       	st	X+, r22
    186a:	7c 93       	st	X, r23
    186c:	09 c0       	rjmp	.+18     	; 0x1880 <realloc+0xe6>
    186e:	0e 5f       	subi	r16, 0xFE	; 254
    1870:	1f 4f       	sbci	r17, 0xFF	; 255
    1872:	80 0f       	add	r24, r16
    1874:	91 1f       	adc	r25, r17
    1876:	f9 01       	movw	r30, r18
    1878:	91 83       	std	Z+1, r25	; 0x01
    187a:	80 83       	st	Z, r24
    187c:	eb 2d       	mov	r30, r11
    187e:	fa 2f       	mov	r31, r26
    1880:	e1 14       	cp	r14, r1
    1882:	f1 04       	cpc	r15, r1
    1884:	31 f0       	breq	.+12     	; 0x1892 <realloc+0xf8>
    1886:	d7 01       	movw	r26, r14
    1888:	13 96       	adiw	r26, 0x03	; 3
    188a:	fc 93       	st	X, r31
    188c:	ee 93       	st	-X, r30
    188e:	12 97       	sbiw	r26, 0x02	; 2
    1890:	41 c0       	rjmp	.+130    	; 0x1914 <realloc+0x17a>
    1892:	f0 93 da 01 	sts	0x01DA, r31	; 0x8001da <__flp+0x1>
    1896:	e0 93 d9 01 	sts	0x01D9, r30	; 0x8001d9 <__flp>
    189a:	3c c0       	rjmp	.+120    	; 0x1914 <realloc+0x17a>
    189c:	68 16       	cp	r6, r24
    189e:	79 06       	cpc	r7, r25
    18a0:	08 f4       	brcc	.+2      	; 0x18a4 <realloc+0x10a>
    18a2:	3c 01       	movw	r6, r24
    18a4:	7d 01       	movw	r14, r26
    18a6:	12 96       	adiw	r26, 0x02	; 2
    18a8:	0d 90       	ld	r0, X+
    18aa:	bc 91       	ld	r27, X
    18ac:	a0 2d       	mov	r26, r0
    18ae:	b7 cf       	rjmp	.-146    	; 0x181e <realloc+0x84>
    18b0:	80 91 d7 01 	lds	r24, 0x01D7	; 0x8001d7 <__brkval>
    18b4:	90 91 d8 01 	lds	r25, 0x01D8	; 0x8001d8 <__brkval+0x1>
    18b8:	88 16       	cp	r8, r24
    18ba:	99 06       	cpc	r9, r25
    18bc:	e1 f4       	brne	.+56     	; 0x18f6 <realloc+0x15c>
    18be:	66 16       	cp	r6, r22
    18c0:	77 06       	cpc	r7, r23
    18c2:	c8 f4       	brcc	.+50     	; 0x18f6 <realloc+0x15c>
    18c4:	80 91 00 01 	lds	r24, 0x0100	; 0x800100 <__data_start>
    18c8:	90 91 01 01 	lds	r25, 0x0101	; 0x800101 <__data_start+0x1>
    18cc:	00 97       	sbiw	r24, 0x00	; 0
    18ce:	41 f4       	brne	.+16     	; 0x18e0 <realloc+0x146>
    18d0:	8d b7       	in	r24, 0x3d	; 61
    18d2:	9e b7       	in	r25, 0x3e	; 62
    18d4:	40 91 04 01 	lds	r20, 0x0104	; 0x800104 <__malloc_margin>
    18d8:	50 91 05 01 	lds	r21, 0x0105	; 0x800105 <__malloc_margin+0x1>
    18dc:	84 1b       	sub	r24, r20
    18de:	95 0b       	sbc	r25, r21
    18e0:	e8 17       	cp	r30, r24
    18e2:	f9 07       	cpc	r31, r25
    18e4:	c8 f4       	brcc	.+50     	; 0x1918 <realloc+0x17e>
    18e6:	f0 93 d8 01 	sts	0x01D8, r31	; 0x8001d8 <__brkval+0x1>
    18ea:	e0 93 d7 01 	sts	0x01D7, r30	; 0x8001d7 <__brkval>
    18ee:	f9 01       	movw	r30, r18
    18f0:	71 83       	std	Z+1, r23	; 0x01
    18f2:	60 83       	st	Z, r22
    18f4:	0f c0       	rjmp	.+30     	; 0x1914 <realloc+0x17a>
    18f6:	cb 01       	movw	r24, r22
    18f8:	0e 94 ac 0a 	call	0x1558	; 0x1558 <malloc>
    18fc:	7c 01       	movw	r14, r24
    18fe:	00 97       	sbiw	r24, 0x00	; 0
    1900:	59 f0       	breq	.+22     	; 0x1918 <realloc+0x17e>
    1902:	a8 01       	movw	r20, r16
    1904:	be 01       	movw	r22, r28
    1906:	0e 94 93 0c 	call	0x1926	; 0x1926 <memcpy>
    190a:	ce 01       	movw	r24, r28
    190c:	0e 94 44 0b 	call	0x1688	; 0x1688 <free>
    1910:	c7 01       	movw	r24, r14
    1912:	04 c0       	rjmp	.+8      	; 0x191c <realloc+0x182>
    1914:	ce 01       	movw	r24, r28
    1916:	02 c0       	rjmp	.+4      	; 0x191c <realloc+0x182>
    1918:	80 e0       	ldi	r24, 0x00	; 0
    191a:	90 e0       	ldi	r25, 0x00	; 0
    191c:	cd b7       	in	r28, 0x3d	; 61
    191e:	de b7       	in	r29, 0x3e	; 62
    1920:	ee e0       	ldi	r30, 0x0E	; 14
    1922:	0c 94 c3 0c 	jmp	0x1986	; 0x1986 <__epilogue_restores__+0x8>

00001926 <memcpy>:
    1926:	fb 01       	movw	r30, r22
    1928:	dc 01       	movw	r26, r24
    192a:	02 c0       	rjmp	.+4      	; 0x1930 <memcpy+0xa>
    192c:	01 90       	ld	r0, Z+
    192e:	0d 92       	st	X+, r0
    1930:	41 50       	subi	r20, 0x01	; 1
    1932:	50 40       	sbci	r21, 0x00	; 0
    1934:	d8 f7       	brcc	.-10     	; 0x192c <memcpy+0x6>
    1936:	08 95       	ret

00001938 <strcpy>:
    1938:	fb 01       	movw	r30, r22
    193a:	dc 01       	movw	r26, r24
    193c:	01 90       	ld	r0, Z+
    193e:	0d 92       	st	X+, r0
    1940:	00 20       	and	r0, r0
    1942:	e1 f7       	brne	.-8      	; 0x193c <strcpy+0x4>
    1944:	08 95       	ret

00001946 <__prologue_saves__>:
    1946:	2f 92       	push	r2
    1948:	3f 92       	push	r3
    194a:	4f 92       	push	r4
    194c:	5f 92       	push	r5
    194e:	6f 92       	push	r6
    1950:	7f 92       	push	r7
    1952:	8f 92       	push	r8
    1954:	9f 92       	push	r9
    1956:	af 92       	push	r10
    1958:	bf 92       	push	r11
    195a:	cf 92       	push	r12
    195c:	df 92       	push	r13
    195e:	ef 92       	push	r14
    1960:	ff 92       	push	r15
    1962:	0f 93       	push	r16
    1964:	1f 93       	push	r17
    1966:	cf 93       	push	r28
    1968:	df 93       	push	r29
    196a:	cd b7       	in	r28, 0x3d	; 61
    196c:	de b7       	in	r29, 0x3e	; 62
    196e:	ca 1b       	sub	r28, r26
    1970:	db 0b       	sbc	r29, r27
    1972:	0f b6       	in	r0, 0x3f	; 63
    1974:	f8 94       	cli
    1976:	de bf       	out	0x3e, r29	; 62
    1978:	0f be       	out	0x3f, r0	; 63
    197a:	cd bf       	out	0x3d, r28	; 61
    197c:	09 94       	ijmp

0000197e <__epilogue_restores__>:
    197e:	2a 88       	ldd	r2, Y+18	; 0x12
    1980:	39 88       	ldd	r3, Y+17	; 0x11
    1982:	48 88       	ldd	r4, Y+16	; 0x10
    1984:	5f 84       	ldd	r5, Y+15	; 0x0f
    1986:	6e 84       	ldd	r6, Y+14	; 0x0e
    1988:	7d 84       	ldd	r7, Y+13	; 0x0d
    198a:	8c 84       	ldd	r8, Y+12	; 0x0c
    198c:	9b 84       	ldd	r9, Y+11	; 0x0b
    198e:	aa 84       	ldd	r10, Y+10	; 0x0a
    1990:	b9 84       	ldd	r11, Y+9	; 0x09
    1992:	c8 84       	ldd	r12, Y+8	; 0x08
    1994:	df 80       	ldd	r13, Y+7	; 0x07
    1996:	ee 80       	ldd	r14, Y+6	; 0x06
    1998:	fd 80       	ldd	r15, Y+5	; 0x05
    199a:	0c 81       	ldd	r16, Y+4	; 0x04
    199c:	1b 81       	ldd	r17, Y+3	; 0x03
    199e:	aa 81       	ldd	r26, Y+2	; 0x02
    19a0:	b9 81       	ldd	r27, Y+1	; 0x01
    19a2:	ce 0f       	add	r28, r30
    19a4:	d1 1d       	adc	r29, r1
    19a6:	0f b6       	in	r0, 0x3f	; 63
    19a8:	f8 94       	cli
    19aa:	de bf       	out	0x3e, r29	; 62
    19ac:	0f be       	out	0x3f, r0	; 63
    19ae:	cd bf       	out	0x3d, r28	; 61
    19b0:	ed 01       	movw	r28, r26
    19b2:	08 95       	ret

000019b4 <__do_global_dtors>:
    19b4:	10 e0       	ldi	r17, 0x00	; 0
    19b6:	cd e5       	ldi	r28, 0x5D	; 93
    19b8:	d0 e0       	ldi	r29, 0x00	; 0
    19ba:	04 c0       	rjmp	.+8      	; 0x19c4 <__do_global_dtors+0x10>
    19bc:	fe 01       	movw	r30, r28
    19be:	0e 94 a6 0a 	call	0x154c	; 0x154c <__tablejump2__>
    19c2:	21 96       	adiw	r28, 0x01	; 1
    19c4:	ce 35       	cpi	r28, 0x5E	; 94
    19c6:	d1 07       	cpc	r29, r17
    19c8:	c9 f7       	brne	.-14     	; 0x19bc <__do_global_dtors+0x8>
    19ca:	f8 94       	cli

000019cc <__stop_program>:
    19cc:	ff cf       	rjmp	.-2      	; 0x19cc <__stop_program>
