Archive member included to satisfy reference by file (symbol)

c:/program files (x86)/atmel/studio/7.0/toolchain/avr8/avr8-gnu-toolchain/bin/../lib/gcc/avr/5.4.0/../../../../avr/lib/avr5\libm.a(addsf3.o)
                              analog_to_lux.o (__subsf3)
c:/program files (x86)/atmel/studio/7.0/toolchain/avr8/avr8-gnu-toolchain/bin/../lib/gcc/avr/5.4.0/../../../../avr/lib/avr5\libm.a(addsf3x.o)
                              c:/program files (x86)/atmel/studio/7.0/toolchain/avr8/avr8-gnu-toolchain/bin/../lib/gcc/avr/5.4.0/../../../../avr/lib/avr5\libm.a(addsf3.o) (__addsf3x)
c:/program files (x86)/atmel/studio/7.0/toolchain/avr8/avr8-gnu-toolchain/bin/../lib/gcc/avr/5.4.0/../../../../avr/lib/avr5\libm.a(cmpsf2.o)
                              main.o (__ltsf2)
c:/program files (x86)/atmel/studio/7.0/toolchain/avr8/avr8-gnu-toolchain/bin/../lib/gcc/avr/5.4.0/../../../../avr/lib/avr5\libm.a(divsf3.o)
                              analog_to_lux.o (__divsf3)
c:/program files (x86)/atmel/studio/7.0/toolchain/avr8/avr8-gnu-toolchain/bin/../lib/gcc/avr/5.4.0/../../../../avr/lib/avr5\libm.a(divsf3x.o)
                              c:/program files (x86)/atmel/studio/7.0/toolchain/avr8/avr8-gnu-toolchain/bin/../lib/gcc/avr/5.4.0/../../../../avr/lib/avr5\libm.a(divsf3.o) (__divsf3x)
c:/program files (x86)/atmel/studio/7.0/toolchain/avr8/avr8-gnu-toolchain/bin/../lib/gcc/avr/5.4.0/../../../../avr/lib/avr5\libm.a(fixsfsi.o)
                              funciones.o (__fixsfsi)
c:/program files (x86)/atmel/studio/7.0/toolchain/avr8/avr8-gnu-toolchain/bin/../lib/gcc/avr/5.4.0/../../../../avr/lib/avr5\libm.a(fixunssfsi.o)
                              funciones.o (__fixunssfsi)
c:/program files (x86)/atmel/studio/7.0/toolchain/avr8/avr8-gnu-toolchain/bin/../lib/gcc/avr/5.4.0/../../../../avr/lib/avr5\libm.a(floatsisf.o)
                              analog_to_lux.o (__floatsisf)
c:/program files (x86)/atmel/studio/7.0/toolchain/avr8/avr8-gnu-toolchain/bin/../lib/gcc/avr/5.4.0/../../../../avr/lib/avr5\libm.a(fp_cmp.o)
                              c:/program files (x86)/atmel/studio/7.0/toolchain/avr8/avr8-gnu-toolchain/bin/../lib/gcc/avr/5.4.0/../../../../avr/lib/avr5\libm.a(cmpsf2.o) (__fp_cmp)
c:/program files (x86)/atmel/studio/7.0/toolchain/avr8/avr8-gnu-toolchain/bin/../lib/gcc/avr/5.4.0/../../../../avr/lib/avr5\libm.a(fp_inf.o)
                              c:/program files (x86)/atmel/studio/7.0/toolchain/avr8/avr8-gnu-toolchain/bin/../lib/gcc/avr/5.4.0/../../../../avr/lib/avr5\libm.a(addsf3x.o) (__fp_inf)
c:/program files (x86)/atmel/studio/7.0/toolchain/avr8/avr8-gnu-toolchain/bin/../lib/gcc/avr/5.4.0/../../../../avr/lib/avr5\libm.a(fp_nan.o)
                              c:/program files (x86)/atmel/studio/7.0/toolchain/avr8/avr8-gnu-toolchain/bin/../lib/gcc/avr/5.4.0/../../../../avr/lib/avr5\libm.a(addsf3x.o) (__fp_nan)
c:/program files (x86)/atmel/studio/7.0/toolchain/avr8/avr8-gnu-toolchain/bin/../lib/gcc/avr/5.4.0/../../../../avr/lib/avr5\libm.a(fp_pscA.o)
                              c:/program files (x86)/atmel/studio/7.0/toolchain/avr8/avr8-gnu-toolchain/bin/../lib/gcc/avr/5.4.0/../../../../avr/lib/avr5\libm.a(addsf3x.o) (__fp_pscA)
c:/program files (x86)/atmel/studio/7.0/toolchain/avr8/avr8-gnu-toolchain/bin/../lib/gcc/avr/5.4.0/../../../../avr/lib/avr5\libm.a(fp_pscB.o)
                              c:/program files (x86)/atmel/studio/7.0/toolchain/avr8/avr8-gnu-toolchain/bin/../lib/gcc/avr/5.4.0/../../../../avr/lib/avr5\libm.a(addsf3x.o) (__fp_pscB)
c:/program files (x86)/atmel/studio/7.0/toolchain/avr8/avr8-gnu-toolchain/bin/../lib/gcc/avr/5.4.0/../../../../avr/lib/avr5\libm.a(fp_round.o)
                              c:/program files (x86)/atmel/studio/7.0/toolchain/avr8/avr8-gnu-toolchain/bin/../lib/gcc/avr/5.4.0/../../../../avr/lib/avr5\libm.a(addsf3.o) (__fp_round)
c:/program files (x86)/atmel/studio/7.0/toolchain/avr8/avr8-gnu-toolchain/bin/../lib/gcc/avr/5.4.0/../../../../avr/lib/avr5\libm.a(fp_split3.o)
                              c:/program files (x86)/atmel/studio/7.0/toolchain/avr8/avr8-gnu-toolchain/bin/../lib/gcc/avr/5.4.0/../../../../avr/lib/avr5\libm.a(addsf3x.o) (__fp_split3)
c:/program files (x86)/atmel/studio/7.0/toolchain/avr8/avr8-gnu-toolchain/bin/../lib/gcc/avr/5.4.0/../../../../avr/lib/avr5\libm.a(fp_zero.o)
                              c:/program files (x86)/atmel/studio/7.0/toolchain/avr8/avr8-gnu-toolchain/bin/../lib/gcc/avr/5.4.0/../../../../avr/lib/avr5\libm.a(addsf3x.o) (__fp_zero)
c:/program files (x86)/atmel/studio/7.0/toolchain/avr8/avr8-gnu-toolchain/bin/../lib/gcc/avr/5.4.0/../../../../avr/lib/avr5\libm.a(gesf2.o)
                              main.o (__gtsf2)
c:/program files (x86)/atmel/studio/7.0/toolchain/avr8/avr8-gnu-toolchain/bin/../lib/gcc/avr/5.4.0/../../../../avr/lib/avr5\libm.a(mulsf3.o)
                              analog_to_lux.o (__mulsf3)
c:/program files (x86)/atmel/studio/7.0/toolchain/avr8/avr8-gnu-toolchain/bin/../lib/gcc/avr/5.4.0/../../../../avr/lib/avr5\libm.a(mulsf3x.o)
                              c:/program files (x86)/atmel/studio/7.0/toolchain/avr8/avr8-gnu-toolchain/bin/../lib/gcc/avr/5.4.0/../../../../avr/lib/avr5\libm.a(mulsf3.o) (__mulsf3x)
c:/program files (x86)/atmel/studio/7.0/toolchain/avr8/avr8-gnu-toolchain/bin/../lib/gcc/avr/5.4.0/../../../../avr/lib/avr5\libm.a(trunc.o)
                              funciones.o (trunc)
c:/program files (x86)/atmel/studio/7.0/toolchain/avr8/avr8-gnu-toolchain/bin/../lib/gcc/avr/5.4.0/../../../../avr/lib/avr5\libm.a(fp_mintl.o)
                              c:/program files (x86)/atmel/studio/7.0/toolchain/avr8/avr8-gnu-toolchain/bin/../lib/gcc/avr/5.4.0/../../../../avr/lib/avr5\libm.a(trunc.o) (__fp_mintl)
c:/program files (x86)/atmel/studio/7.0/toolchain/avr8/avr8-gnu-toolchain/bin/../lib/gcc/avr/5.4.0/../../../../avr/lib/avr5\libm.a(fp_mpack.o)
                              c:/program files (x86)/atmel/studio/7.0/toolchain/avr8/avr8-gnu-toolchain/bin/../lib/gcc/avr/5.4.0/../../../../avr/lib/avr5\libm.a(trunc.o) (__fp_mpack)
c:/program files (x86)/atmel/studio/7.0/toolchain/avr8/avr8-gnu-toolchain/bin/../lib/gcc/avr/5.4.0/../../../../avr/lib/avr5\libm.a(fp_trunc.o)
                              c:/program files (x86)/atmel/studio/7.0/toolchain/avr8/avr8-gnu-toolchain/bin/../lib/gcc/avr/5.4.0/../../../../avr/lib/avr5\libm.a(trunc.o) (__fp_trunc)
../lib\libcoreArduinoUno161.a(wiring.c.o)
                              keyboard.o (delay)
../lib\libcoreArduinoUno161.a(wiring_analog.c.o)
                              main.o (analogWrite)
../lib\libcoreArduinoUno161.a(wiring_digital.c.o)
                              LiquidCrystal.o (pinMode)
../lib\libcoreArduinoUno161.a(main.cpp.o)
                              C:/Program Files (x86)/Atmel/Studio/7.0/Packs/atmel/ATmega_DFP/1.2.209/gcc/dev/atmega328p/avr5/crtatmega328p.o (main)
../lib\libcoreArduinoUno161.a(Print.cpp.o)
                              LiquidCrystal.o (_ZN5Print5writeEPKhj)
../lib\libcoreArduinoUno161.a(WString.cpp.o)
                              main.o (_ZN6StringD1Ev)
../lib\libcoreArduinoUno161.a(hooks.c.o)
                              ../lib\libcoreArduinoUno161.a(wiring.c.o) (yield)
../lib\libcoreArduinoUno161.a(abi.cpp.o)
                              ../lib\libcoreArduinoUno161.a(Print.cpp.o) (__cxa_pure_virtual)
c:/program files (x86)/atmel/studio/7.0/toolchain/avr8/avr8-gnu-toolchain/bin/../lib/gcc/avr/5.4.0/../../../../avr/lib/avr5\libm.a(unordsf2.o)
                              ../lib\libcoreArduinoUno161.a(Print.cpp.o) (__unordsf2)
c:/program files (x86)/atmel/studio/7.0/toolchain/avr8/avr8-gnu-toolchain/bin/../lib/gcc/avr/5.4.0/avr5\libgcc.a(_divmodqi4.o)
                              funciones.o (__divmodqi4)
c:/program files (x86)/atmel/studio/7.0/toolchain/avr8/avr8-gnu-toolchain/bin/../lib/gcc/avr/5.4.0/avr5\libgcc.a(_divmodhi4.o)
                              main.o (__divmodhi4)
c:/program files (x86)/atmel/studio/7.0/toolchain/avr8/avr8-gnu-toolchain/bin/../lib/gcc/avr/5.4.0/avr5\libgcc.a(_udivmodsi4.o)
                              utility/twi.o (__udivmodsi4)
c:/program files (x86)/atmel/studio/7.0/toolchain/avr8/avr8-gnu-toolchain/bin/../lib/gcc/avr/5.4.0/avr5\libgcc.a(_exit.o)
                              C:/Program Files (x86)/Atmel/Studio/7.0/Packs/atmel/ATmega_DFP/1.2.209/gcc/dev/atmega328p/avr5/crtatmega328p.o (exit)
c:/program files (x86)/atmel/studio/7.0/toolchain/avr8/avr8-gnu-toolchain/bin/../lib/gcc/avr/5.4.0/avr5\libgcc.a(_tablejump2.o)
                              utility/twi.o (__tablejump2__)
c:/program files (x86)/atmel/studio/7.0/toolchain/avr8/avr8-gnu-toolchain/bin/../lib/gcc/avr/5.4.0/avr5\libgcc.a(_copy_data.o)
                              display.o (__do_copy_data)
c:/program files (x86)/atmel/studio/7.0/toolchain/avr8/avr8-gnu-toolchain/bin/../lib/gcc/avr/5.4.0/avr5\libgcc.a(_clear_bss.o)
                              adc.o (__do_clear_bss)
c:/program files (x86)/atmel/studio/7.0/toolchain/avr8/avr8-gnu-toolchain/bin/../lib/gcc/avr/5.4.0/avr5\libgcc.a(_ctors.o)
                              display.o (__do_global_ctors)
c:/program files (x86)/atmel/studio/7.0/toolchain/avr8/avr8-gnu-toolchain/bin/../lib/gcc/avr/5.4.0/avr5\libgcc.a(_udivmodqi4.o)
                              c:/program files (x86)/atmel/studio/7.0/toolchain/avr8/avr8-gnu-toolchain/bin/../lib/gcc/avr/5.4.0/avr5\libgcc.a(_divmodqi4.o) (__udivmodqi4)
c:/program files (x86)/atmel/studio/7.0/toolchain/avr8/avr8-gnu-toolchain/bin/../lib/gcc/avr/5.4.0/avr5\libgcc.a(_udivmodhi4.o)
                              c:/program files (x86)/atmel/studio/7.0/toolchain/avr8/avr8-gnu-toolchain/bin/../lib/gcc/avr/5.4.0/avr5\libgcc.a(_divmodhi4.o) (__udivmodhi4)
c:/program files (x86)/atmel/studio/7.0/toolchain/avr8/avr8-gnu-toolchain/bin/../lib/gcc/avr/5.4.0/../../../../avr/lib/avr5\libc.a(dtostrf.o)
                              ../lib\libcoreArduinoUno161.a(WString.cpp.o) (dtostrf)
c:/program files (x86)/atmel/studio/7.0/toolchain/avr8/avr8-gnu-toolchain/bin/../lib/gcc/avr/5.4.0/../../../../avr/lib/avr5\libc.a(malloc.o)
                              ../lib\libcoreArduinoUno161.a(WString.cpp.o) (free)
c:/program files (x86)/atmel/studio/7.0/toolchain/avr8/avr8-gnu-toolchain/bin/../lib/gcc/avr/5.4.0/../../../../avr/lib/avr5\libc.a(realloc.o)
                              ../lib\libcoreArduinoUno161.a(WString.cpp.o) (realloc)
c:/program files (x86)/atmel/studio/7.0/toolchain/avr8/avr8-gnu-toolchain/bin/../lib/gcc/avr/5.4.0/../../../../avr/lib/avr5\libc.a(abort.o)
                              ../lib\libcoreArduinoUno161.a(abi.cpp.o) (abort)
c:/program files (x86)/atmel/studio/7.0/toolchain/avr8/avr8-gnu-toolchain/bin/../lib/gcc/avr/5.4.0/../../../../avr/lib/avr5\libc.a(atof.o)
                              ../lib\libcoreArduinoUno161.a(WString.cpp.o) (atof)
c:/program files (x86)/atmel/studio/7.0/toolchain/avr8/avr8-gnu-toolchain/bin/../lib/gcc/avr/5.4.0/../../../../avr/lib/avr5\libc.a(atol.o)
                              ../lib\libcoreArduinoUno161.a(WString.cpp.o) (atol)
c:/program files (x86)/atmel/studio/7.0/toolchain/avr8/avr8-gnu-toolchain/bin/../lib/gcc/avr/5.4.0/../../../../avr/lib/avr5\libc.a(isspace.o)
                              ../lib\libcoreArduinoUno161.a(WString.cpp.o) (isspace)
c:/program files (x86)/atmel/studio/7.0/toolchain/avr8/avr8-gnu-toolchain/bin/../lib/gcc/avr/5.4.0/../../../../avr/lib/avr5\libc.a(tolower.o)
                              ../lib\libcoreArduinoUno161.a(WString.cpp.o) (tolower)
c:/program files (x86)/atmel/studio/7.0/toolchain/avr8/avr8-gnu-toolchain/bin/../lib/gcc/avr/5.4.0/../../../../avr/lib/avr5\libc.a(toupper.o)
                              ../lib\libcoreArduinoUno161.a(WString.cpp.o) (toupper)
c:/program files (x86)/atmel/studio/7.0/toolchain/avr8/avr8-gnu-toolchain/bin/../lib/gcc/avr/5.4.0/../../../../avr/lib/avr5\libc.a(strcpy_P.o)
                              ../lib\libcoreArduinoUno161.a(WString.cpp.o) (strcpy_P)
c:/program files (x86)/atmel/studio/7.0/toolchain/avr8/avr8-gnu-toolchain/bin/../lib/gcc/avr/5.4.0/../../../../avr/lib/avr5\libc.a(strlen_P.o)
                              ../lib\libcoreArduinoUno161.a(WString.cpp.o) (__strlen_P)
c:/program files (x86)/atmel/studio/7.0/toolchain/avr8/avr8-gnu-toolchain/bin/../lib/gcc/avr/5.4.0/../../../../avr/lib/avr5\libc.a(memcpy.o)
                              ../lib\libcoreArduinoUno161.a(WString.cpp.o) (memcpy)
c:/program files (x86)/atmel/studio/7.0/toolchain/avr8/avr8-gnu-toolchain/bin/../lib/gcc/avr/5.4.0/../../../../avr/lib/avr5\libc.a(memmove.o)
                              ../lib\libcoreArduinoUno161.a(WString.cpp.o) (memmove)
c:/program files (x86)/atmel/studio/7.0/toolchain/avr8/avr8-gnu-toolchain/bin/../lib/gcc/avr/5.4.0/../../../../avr/lib/avr5\libc.a(strchr.o)
                              ../lib\libcoreArduinoUno161.a(WString.cpp.o) (strchr)
c:/program files (x86)/atmel/studio/7.0/toolchain/avr8/avr8-gnu-toolchain/bin/../lib/gcc/avr/5.4.0/../../../../avr/lib/avr5\libc.a(strcmp.o)
                              ../lib\libcoreArduinoUno161.a(WString.cpp.o) (strcmp)
c:/program files (x86)/atmel/studio/7.0/toolchain/avr8/avr8-gnu-toolchain/bin/../lib/gcc/avr/5.4.0/../../../../avr/lib/avr5\libc.a(strcpy.o)
                              ../lib\libcoreArduinoUno161.a(WString.cpp.o) (strcpy)
c:/program files (x86)/atmel/studio/7.0/toolchain/avr8/avr8-gnu-toolchain/bin/../lib/gcc/avr/5.4.0/../../../../avr/lib/avr5\libc.a(strncmp.o)
                              ../lib\libcoreArduinoUno161.a(WString.cpp.o) (strncmp)
c:/program files (x86)/atmel/studio/7.0/toolchain/avr8/avr8-gnu-toolchain/bin/../lib/gcc/avr/5.4.0/../../../../avr/lib/avr5\libc.a(strncpy.o)
                              ../lib\libcoreArduinoUno161.a(WString.cpp.o) (strncpy)
c:/program files (x86)/atmel/studio/7.0/toolchain/avr8/avr8-gnu-toolchain/bin/../lib/gcc/avr/5.4.0/../../../../avr/lib/avr5\libc.a(strrchr.o)
                              ../lib\libcoreArduinoUno161.a(WString.cpp.o) (strrchr)
c:/program files (x86)/atmel/studio/7.0/toolchain/avr8/avr8-gnu-toolchain/bin/../lib/gcc/avr/5.4.0/../../../../avr/lib/avr5\libc.a(strstr.o)
                              ../lib\libcoreArduinoUno161.a(WString.cpp.o) (strstr)
c:/program files (x86)/atmel/studio/7.0/toolchain/avr8/avr8-gnu-toolchain/bin/../lib/gcc/avr/5.4.0/../../../../avr/lib/avr5\libc.a(itoa.o)
                              ../lib\libcoreArduinoUno161.a(WString.cpp.o) (__itoa)
c:/program files (x86)/atmel/studio/7.0/toolchain/avr8/avr8-gnu-toolchain/bin/../lib/gcc/avr/5.4.0/../../../../avr/lib/avr5\libc.a(itoa_ncheck.o)
                              c:/program files (x86)/atmel/studio/7.0/toolchain/avr8/avr8-gnu-toolchain/bin/../lib/gcc/avr/5.4.0/../../../../avr/lib/avr5\libc.a(itoa.o) (__itoa_ncheck)
c:/program files (x86)/atmel/studio/7.0/toolchain/avr8/avr8-gnu-toolchain/bin/../lib/gcc/avr/5.4.0/../../../../avr/lib/avr5\libc.a(ltoa.o)
                              ../lib\libcoreArduinoUno161.a(WString.cpp.o) (__ltoa)
c:/program files (x86)/atmel/studio/7.0/toolchain/avr8/avr8-gnu-toolchain/bin/../lib/gcc/avr/5.4.0/../../../../avr/lib/avr5\libc.a(ltoa_ncheck.o)
                              c:/program files (x86)/atmel/studio/7.0/toolchain/avr8/avr8-gnu-toolchain/bin/../lib/gcc/avr/5.4.0/../../../../avr/lib/avr5\libc.a(ltoa.o) (__ltoa_ncheck)
c:/program files (x86)/atmel/studio/7.0/toolchain/avr8/avr8-gnu-toolchain/bin/../lib/gcc/avr/5.4.0/../../../../avr/lib/avr5\libc.a(mulsi10.o)
                              c:/program files (x86)/atmel/studio/7.0/toolchain/avr8/avr8-gnu-toolchain/bin/../lib/gcc/avr/5.4.0/../../../../avr/lib/avr5\libc.a(atol.o) (__mulsi_const_10)
c:/program files (x86)/atmel/studio/7.0/toolchain/avr8/avr8-gnu-toolchain/bin/../lib/gcc/avr/5.4.0/../../../../avr/lib/avr5\libc.a(ultoa.o)
                              ../lib\libcoreArduinoUno161.a(WString.cpp.o) (__ultoa)
c:/program files (x86)/atmel/studio/7.0/toolchain/avr8/avr8-gnu-toolchain/bin/../lib/gcc/avr/5.4.0/../../../../avr/lib/avr5\libc.a(ultoa_ncheck.o)
                              c:/program files (x86)/atmel/studio/7.0/toolchain/avr8/avr8-gnu-toolchain/bin/../lib/gcc/avr/5.4.0/../../../../avr/lib/avr5\libc.a(ultoa.o) (__ultoa_ncheck)
c:/program files (x86)/atmel/studio/7.0/toolchain/avr8/avr8-gnu-toolchain/bin/../lib/gcc/avr/5.4.0/../../../../avr/lib/avr5\libc.a(utoa.o)
                              ../lib\libcoreArduinoUno161.a(WString.cpp.o) (__utoa)
c:/program files (x86)/atmel/studio/7.0/toolchain/avr8/avr8-gnu-toolchain/bin/../lib/gcc/avr/5.4.0/../../../../avr/lib/avr5\libc.a(utoa_ncheck.o)
                              c:/program files (x86)/atmel/studio/7.0/toolchain/avr8/avr8-gnu-toolchain/bin/../lib/gcc/avr/5.4.0/../../../../avr/lib/avr5\libc.a(utoa.o) (__utoa_ncheck)
c:/program files (x86)/atmel/studio/7.0/toolchain/avr8/avr8-gnu-toolchain/bin/../lib/gcc/avr/5.4.0/../../../../avr/lib/avr5\libc.a(dtoa_prf.o)
                              c:/program files (x86)/atmel/studio/7.0/toolchain/avr8/avr8-gnu-toolchain/bin/../lib/gcc/avr/5.4.0/../../../../avr/lib/avr5\libc.a(dtostrf.o) (dtoa_prf)
c:/program files (x86)/atmel/studio/7.0/toolchain/avr8/avr8-gnu-toolchain/bin/../lib/gcc/avr/5.4.0/../../../../avr/lib/avr5\libc.a(strtod.o)
                              c:/program files (x86)/atmel/studio/7.0/toolchain/avr8/avr8-gnu-toolchain/bin/../lib/gcc/avr/5.4.0/../../../../avr/lib/avr5\libc.a(atof.o) (strtod)
c:/program files (x86)/atmel/studio/7.0/toolchain/avr8/avr8-gnu-toolchain/bin/../lib/gcc/avr/5.4.0/../../../../avr/lib/avr5\libc.a(ftoa_engine.o)
                              c:/program files (x86)/atmel/studio/7.0/toolchain/avr8/avr8-gnu-toolchain/bin/../lib/gcc/avr/5.4.0/../../../../avr/lib/avr5\libc.a(dtoa_prf.o) (__ftoa_engine)
c:/program files (x86)/atmel/studio/7.0/toolchain/avr8/avr8-gnu-toolchain/bin/../lib/gcc/avr/5.4.0/../../../../avr/lib/avr5\libc.a(cty_isfalse.o)
                              c:/program files (x86)/atmel/studio/7.0/toolchain/avr8/avr8-gnu-toolchain/bin/../lib/gcc/avr/5.4.0/../../../../avr/lib/avr5\libc.a(isspace.o) (__ctype_isfalse)
c:/program files (x86)/atmel/studio/7.0/toolchain/avr8/avr8-gnu-toolchain/bin/../lib/gcc/avr/5.4.0/../../../../avr/lib/avr5\libc.a(strncasecmp_P.o)
                              c:/program files (x86)/atmel/studio/7.0/toolchain/avr8/avr8-gnu-toolchain/bin/../lib/gcc/avr/5.4.0/../../../../avr/lib/avr5\libc.a(strtod.o) (strncasecmp_P)
c:/program files (x86)/atmel/studio/7.0/toolchain/avr8/avr8-gnu-toolchain/bin/../lib/gcc/avr/5.4.0/../../../../avr/lib/avr5\libc.a(strrev.o)
                              c:/program files (x86)/atmel/studio/7.0/toolchain/avr8/avr8-gnu-toolchain/bin/../lib/gcc/avr/5.4.0/../../../../avr/lib/avr5\libc.a(ultoa_ncheck.o) (strrev)
c:/program files (x86)/atmel/studio/7.0/toolchain/avr8/avr8-gnu-toolchain/bin/../lib/gcc/avr/5.4.0/../../../../avr/lib/avr5\libc.a(errno.o)
                              c:/program files (x86)/atmel/studio/7.0/toolchain/avr8/avr8-gnu-toolchain/bin/../lib/gcc/avr/5.4.0/../../../../avr/lib/avr5\libc.a(strtod.o) (errno)
c:/program files (x86)/atmel/studio/7.0/toolchain/avr8/avr8-gnu-toolchain/bin/../lib/gcc/avr/5.4.0/avr5\libgcc.a(_muluhisi3.o)
                              c:/program files (x86)/atmel/studio/7.0/toolchain/avr8/avr8-gnu-toolchain/bin/../lib/gcc/avr/5.4.0/../../../../avr/lib/avr5\libc.a(strtod.o) (__muluhisi3)
c:/program files (x86)/atmel/studio/7.0/toolchain/avr8/avr8-gnu-toolchain/bin/../lib/gcc/avr/5.4.0/avr5\libgcc.a(_prologue.o)
                              c:/program files (x86)/atmel/studio/7.0/toolchain/avr8/avr8-gnu-toolchain/bin/../lib/gcc/avr/5.4.0/../../../../avr/lib/avr5\libc.a(realloc.o) (__prologue_saves__)
c:/program files (x86)/atmel/studio/7.0/toolchain/avr8/avr8-gnu-toolchain/bin/../lib/gcc/avr/5.4.0/avr5\libgcc.a(_epilogue.o)
                              c:/program files (x86)/atmel/studio/7.0/toolchain/avr8/avr8-gnu-toolchain/bin/../lib/gcc/avr/5.4.0/../../../../avr/lib/avr5\libc.a(realloc.o) (__epilogue_restores__)
c:/program files (x86)/atmel/studio/7.0/toolchain/avr8/avr8-gnu-toolchain/bin/../lib/gcc/avr/5.4.0/avr5\libgcc.a(_umulhisi3.o)
                              c:/program files (x86)/atmel/studio/7.0/toolchain/avr8/avr8-gnu-toolchain/bin/../lib/gcc/avr/5.4.0/avr5\libgcc.a(_muluhisi3.o) (__umulhisi3)

Allocating common symbols
Common symbol       size              file

errno               0x2               c:/program files (x86)/atmel/studio/7.0/toolchain/avr8/avr8-gnu-toolchain/bin/../lib/gcc/avr/5.4.0/../../../../avr/lib/avr5\libc.a(errno.o)
__brkval            0x2               c:/program files (x86)/atmel/studio/7.0/toolchain/avr8/avr8-gnu-toolchain/bin/../lib/gcc/avr/5.4.0/../../../../avr/lib/avr5\libc.a(malloc.o)
__flp               0x2               c:/program files (x86)/atmel/studio/7.0/toolchain/avr8/avr8-gnu-toolchain/bin/../lib/gcc/avr/5.4.0/../../../../avr/lib/avr5\libc.a(malloc.o)

Discarded input sections

 .data          0x00000000        0x0 C:/Program Files (x86)/Atmel/Studio/7.0/Packs/atmel/ATmega_DFP/1.2.209/gcc/dev/atmega328p/avr5/crtatmega328p.o
 .bss           0x00000000        0x0 C:/Program Files (x86)/Atmel/Studio/7.0/Packs/atmel/ATmega_DFP/1.2.209/gcc/dev/atmega328p/avr5/crtatmega328p.o
 .text          0x00000000        0x0 adc.o
 .data          0x00000000        0x0 adc.o
 .bss           0x00000000        0x0 adc.o
 .text._Z11set_channeli
                0x00000000       0x1c adc.o
 .text._Z11prevChanneli
                0x00000000       0x38 adc.o
 .text          0x00000000        0x0 analog_to_lux.o
 .data          0x00000000        0x0 analog_to_lux.o
 .bss           0x00000000        0x0 analog_to_lux.o
 .text          0x00000000        0x0 display.o
 .data          0x00000000        0x0 display.o
 .bss           0x00000000        0x0 display.o
 .text          0x00000000        0x0 funciones.o
 .data          0x00000000        0x0 funciones.o
 .bss           0x00000000        0x0 funciones.o
Memory Configuration

Name             Origin             Length             Attributes
text             0x00000000         0x00020000         xr
data             0x00800060         0x0000ffa0         rw !x
eeprom           0x00810000         0x00010000         rw !x
fuse             0x00820000         0x00000003         rw !x
lock             0x00830000         0x00000400         rw !x
signature        0x00840000         0x00000400         rw !x
user_signatures  0x00850000         0x00000400         rw !x
*default*        0x00000000         0xffffffff

Linker script and memory map

Address of section .data set to 0x800100
LOAD C:/Program Files (x86)/Atmel/Studio/7.0/Packs/atmel/ATmega_DFP/1.2.209/gcc/dev/atmega328p/avr5/crtatmega328p.o
LOAD adc.o
LOAD analog_to_lux.o
LOAD display.o
LOAD funciones.o
LOAD keyboard.o
LOAD LiquidCrystal.o
LOAD main.o
LOAD mensajes.o
LOAD utility/twi.o
LOAD Wire.o
START GROUP
LOAD c:/program files (x86)/atmel/studio/7.0/toolchain/avr8/avr8-gnu-toolchain/bin/../lib/gcc/avr/5.4.0/../../../../avr/lib/avr5\libm.a
LOAD ../lib\libcoreArduinoUno161.a
END GROUP
LOAD c:/program files (x86)/atmel/studio/7.0/toolchain/avr8/avr8-gnu-toolchain/bin/../lib/gcc/avr/5.4.0/avr5\libgcc.a
LOAD c:/program files (x86)/atmel/studio/7.0/toolchain/avr8/avr8-gnu-toolchain/bin/../lib/gcc/avr/5.4.0/../../../../avr/lib/avr5\libm.a
START GROUP
LOAD c:/program files (x86)/atmel/studio/7.0/toolchain/avr8/avr8-gnu-toolchain/bin/../lib/gcc/avr/5.4.0/avr5\libgcc.a
LOAD c:/program files (x86)/atmel/studio/7.0/toolchain/avr8/avr8-gnu-toolchain/bin/../lib/gcc/avr/5.4.0/../../../../avr/lib/avr5\libm.a
LOAD c:/program files (x86)/atmel/studio/7.0/toolchain/avr8/avr8-gnu-toolchain/bin/../lib/gcc/avr/5.4.0/../../../../avr/lib/avr5\libc.a
LOAD C:/Program Files (x86)/Atmel/Studio/7.0/Packs/atmel/ATmega_DFP/1.2.209/gcc/dev/atmega328p/avr5\libatmega328p.a
END GROUP
                0x00020000                __TEXT_REGION_LENGTH__ = DEFINED (__TEXT_REGION_LENGTH__)?__TEXT_REGION_LENGTH__:0x20000
                0x0000ffa0                __DATA_REGION_LENGTH__ = DEFINED (__DATA_REGION_LENGTH__)?__DATA_REGION_LENGTH__:0xffa0
                0x00010000                __EEPROM_REGION_LENGTH__ = DEFINED (__EEPROM_REGION_LENGTH__)?__EEPROM_REGION_LENGTH__:0x10000
                [0x00000003]                __FUSE_REGION_LENGTH__ = DEFINED (__FUSE_REGION_LENGTH__)?__FUSE_REGION_LENGTH__:0x400
                0x00000400                __LOCK_REGION_LENGTH__ = DEFINED (__LOCK_REGION_LENGTH__)?__LOCK_REGION_LENGTH__:0x400
                0x00000400                __SIGNATURE_REGION_LENGTH__ = DEFINED (__SIGNATURE_REGION_LENGTH__)?__SIGNATURE_REGION_LENGTH__:0x400
                0x00000400                __USER_SIGNATURE_REGION_LENGTH__ = DEFINED (__USER_SIGNATURE_REGION_LENGTH__)?__USER_SIGNATURE_REGION_LENGTH__:0x400

.hash
 *(.hash)

.dynsym
 *(.dynsym)

.dynstr
 *(.dynstr)

.gnu.version
 *(.gnu.version)

.gnu.version_d
 *(.gnu.version_d)

.gnu.version_r
 *(.gnu.version_r)

.rel.init
 *(.rel.init)

.rela.init
 *(.rela.init)

.rel.text
 *(.rel.text)
 *(.rel.text.*)
 *(.rel.gnu.linkonce.t*)

.rela.text
 *(.rela.text)
 *(.rela.text.*)
 *(.rela.gnu.linkonce.t*)

.rel.fini
 *(.rel.fini)

.rela.fini
 *(.rela.fini)

.rel.rodata
 *(.rel.rodata)
 *(.rel.rodata.*)
 *(.rel.gnu.linkonce.r*)

.rela.rodata
 *(.rela.rodata)
 *(.rela.rodata.*)
 *(.rela.gnu.linkonce.r*)

.rel.data
 *(.rel.data)
 *(.rel.data.*)
 *(.rel.gnu.linkonce.d*)

.rela.data
 *(.rela.data)
 *(.rela.data.*)
 *(.rela.gnu.linkonce.d*)

.rel.ctors
 *(.rel.ctors)

.rela.ctors
 *(.rela.ctors)

.rel.dtors
 *(.rel.dtors)

.rela.dtors
 *(.rela.dtors)

.rel.got
 *(.rel.got)

.rela.got
 *(.rela.got)

.rel.bss
 *(.rel.bss)

.rela.bss
 *(.rela.bss)

.rel.plt
 *(.rel.plt)

.rela.plt
 *(.rela.plt)

.text           0x00000000     0x345c
 *(.vectors)
 .vectors       0x00000000       0x68 C:/Program Files (x86)/Atmel/Studio/7.0/Packs/atmel/ATmega_DFP/1.2.209/gcc/dev/atmega328p/avr5/crtatmega328p.o
                0x00000000                __vector_default
                0x00000000                __vectors
 *(.vectors)
 *(.progmem.gcc*)
 .progmem.gcc_sw_table.__vector_24
                0x00000068      0x192 utility/twi.o
                0x000001fa                . = ALIGN (0x2)
                0x000001fa                __trampolines_start = .
 *(.trampolines)
 .trampolines   0x000001fa        0x0 linker stubs
 *(.trampolines*)
                0x000001fa                __trampolines_end = .
 *libprintf_flt.a:*(.progmem.data)
 *libc.a:*(.progmem.data)
 *(.progmem*)
 .progmem.data.digital_pin_to_timer_PGM
                0x000001fa       0x14 ../lib\libcoreArduinoUno161.a(wiring_digital.c.o)
                0x000001fa                digital_pin_to_timer_PGM
 .progmem.data.digital_pin_to_bit_mask_PGM
                0x0000020e       0x14 ../lib\libcoreArduinoUno161.a(wiring_digital.c.o)
                0x0000020e                digital_pin_to_bit_mask_PGM
 .progmem.data.digital_pin_to_port_PGM
                0x00000222       0x14 ../lib\libcoreArduinoUno161.a(wiring_digital.c.o)
                0x00000222                digital_pin_to_port_PGM
 .progmem.data.port_to_output_PGM
                0x00000236        0xa ../lib\libcoreArduinoUno161.a(wiring_digital.c.o)
                0x00000236                port_to_output_PGM
 .progmem.data.port_to_mode_PGM
                0x00000240        0xa ../lib\libcoreArduinoUno161.a(wiring_digital.c.o)
                0x00000240                port_to_mode_PGM
                0x0000024a                . = ALIGN (0x2)
 *(.jumptables)
 *(.jumptables*)
 *(.lowtext)
 *(.lowtext*)
                0x0000024a                __ctors_start = .
 *(.ctors)
 .ctors         0x0000024a        0x2 display.o
 .ctors         0x0000024c        0x2 Wire.o
                0x0000024e                __ctors_end = .
                0x0000024e                __dtors_start = .
 *(.dtors)
                0x0000024e                __dtors_end = .
 SORT(*)(.ctors)
 SORT(*)(.dtors)
 *(.init0)
 .init0         0x0000024e        0x0 C:/Program Files (x86)/Atmel/Studio/7.0/Packs/atmel/ATmega_DFP/1.2.209/gcc/dev/atmega328p/avr5/crtatmega328p.o
                0x0000024e                __init
 *(.init0)
 *(.init1)
 *(.init1)
 *(.init2)
 .init2         0x0000024e        0xc C:/Program Files (x86)/Atmel/Studio/7.0/Packs/atmel/ATmega_DFP/1.2.209/gcc/dev/atmega328p/avr5/crtatmega328p.o
 *(.init2)
 *(.init3)
 *(.init3)
 *(.init4)
 .init4         0x0000025a       0x16 c:/program files (x86)/atmel/studio/7.0/toolchain/avr8/avr8-gnu-toolchain/bin/../lib/gcc/avr/5.4.0/avr5\libgcc.a(_copy_data.o)
                0x0000025a                __do_copy_data
 .init4         0x00000270       0x10 c:/program files (x86)/atmel/studio/7.0/toolchain/avr8/avr8-gnu-toolchain/bin/../lib/gcc/avr/5.4.0/avr5\libgcc.a(_clear_bss.o)
                0x00000270                __do_clear_bss
 *(.init4)
 *(.init5)
 *(.init5)
 *(.init6)
 .init6         0x00000280       0x16 c:/program files (x86)/atmel/studio/7.0/toolchain/avr8/avr8-gnu-toolchain/bin/../lib/gcc/avr/5.4.0/avr5\libgcc.a(_ctors.o)
                0x00000280                __do_global_ctors
 *(.init6)
 *(.init7)
 *(.init7)
 *(.init8)
 *(.init8)
 *(.init9)
 .init9         0x00000296        0x8 C:/Program Files (x86)/Atmel/Studio/7.0/Packs/atmel/ATmega_DFP/1.2.209/gcc/dev/atmega328p/avr5/crtatmega328p.o
 *(.init9)
 *(.text)
 .text          0x0000029e        0x4 C:/Program Files (x86)/Atmel/Studio/7.0/Packs/atmel/ATmega_DFP/1.2.209/gcc/dev/atmega328p/avr5/crtatmega328p.o
                0x0000029e                __vector_22
                0x0000029e                __vector_1
                0x0000029e                __vector_12
                0x0000029e                __bad_interrupt
                0x0000029e                __vector_6
                0x0000029e                __vector_3
                0x0000029e                __vector_23
                0x0000029e                __vector_25
                0x0000029e                __vector_11
                0x0000029e                __vector_13
                0x0000029e                __vector_17
                0x0000029e                __vector_19
                0x0000029e                __vector_5
                0x0000029e                __vector_9
                0x0000029e                __vector_2
                0x0000029e                __vector_15
                0x0000029e                __vector_8
                0x0000029e                __vector_14
                0x0000029e                __vector_10
                0x0000029e                __vector_18
                0x0000029e                __vector_20
                0x000002a2                . = ALIGN (0x2)
 *(.text.*)
 .text._Z14adc_add_configP7adc_cfg
                0x000002a2       0x30 adc.o
                0x000002a2                _Z14adc_add_configP7adc_cfg
 .text._Z8adc_initP7adc_cfg
                0x000002d2       0x7c adc.o
                0x000002d2                _Z8adc_initP7adc_cfg
 .text._Z11nextChanneli
                0x0000034e       0x22 adc.o
                0x0000034e                _Z11nextChanneli
 .text.__vector_21
                0x00000370       0x94 adc.o
                0x00000370                __vector_21
 .text._Z8adc_loopv
                0x00000404       0x52 adc.o
                0x00000404                _Z8adc_loopv
 .text._Z13analog_to_luxi
                0x00000456      0x28e analog_to_lux.o
                0x00000456                _Z13analog_to_luxi
 .text._Z5cleari
                0x000006e4       0x18 display.o
                0x000006e4                _Z5cleari
 .text._Z7display6StringS_
                0x000006fc       0x50 display.o
                0x000006fc                _Z7display6StringS_
 .text._Z6getLCDv
                0x0000074c        0x6 display.o
                0x0000074c                _Z6getLCDv
 .text.startup._GLOBAL__sub_I_lcd
                0x00000752       0x26 display.o
 .text._Z12parte_enterad
                0x00000778        0xe funciones.o
                0x00000778                _Z12parte_enterad
 .text._Z13parte_decimald
                0x00000786       0x4a funciones.o
                0x00000786                _Z13parte_decimald
 .text._Z17keyboard_callbacki
                0x000007d0        0xa keyboard.o
                0x000007d0                _Z17keyboard_callbacki
 .text.__vector_4
                0x000007da       0x9a keyboard.o
                0x000007da                __vector_4
 .text._Z7get_keyv
                0x00000874       0x42 keyboard.o
                0x00000874                _Z7get_keyv
 .text._Z13keyboard_initv
                0x000008b6       0x40 keyboard.o
                0x000008b6                _Z13keyboard_initv
 .text._Z13keyboard_loopv
                0x000008f6      0x316 keyboard.o
                0x000008f6                _Z13keyboard_loopv
 .text._Z17key_down_callbackPFvvEi
                0x00000c0c       0x10 keyboard.o
                0x00000c0c                _Z17key_down_callbackPFvvEi
 .text._Z15key_up_callbackPFvvEi
                0x00000c1c       0x10 keyboard.o
                0x00000c1c                _Z15key_up_callbackPFvvEi
 .text._Z16virtual_key_downc
                0x00000c2c       0x50 keyboard.o
                0x00000c2c                _Z16virtual_key_downc
 .text._ZN5Print17availableForWriteEv
                0x00000c7c        0x6 LiquidCrystal.o
                0x00000c7c                _ZN5Print17availableForWriteEv
 .text._ZN5Print5flushEv
                0x00000c82        0x2 LiquidCrystal.o
                0x00000c82                _ZN5Print5flushEv
 .text._ZN13LiquidCrystal11pulseEnableEv
                0x00000c84       0x3a LiquidCrystal.o
                0x00000c84                _ZN13LiquidCrystal11pulseEnableEv
 .text._ZN13LiquidCrystal10write4bitsEh
                0x00000cbe       0x5a LiquidCrystal.o
                0x00000cbe                _ZN13LiquidCrystal10write4bitsEh
 .text._ZN13LiquidCrystal10write8bitsEh
                0x00000d18       0x5a LiquidCrystal.o
                0x00000d18                _ZN13LiquidCrystal10write8bitsEh
 .text._ZN13LiquidCrystal4sendEhh
                0x00000d72       0x52 LiquidCrystal.o
                0x00000d72                _ZN13LiquidCrystal4sendEhh
 .text._ZN13LiquidCrystal7commandEh
                0x00000dc4        0x6 LiquidCrystal.o
                0x00000dc4                _ZN13LiquidCrystal7commandEh
 .text._ZN13LiquidCrystal5clearEv
                0x00000dca        0xe LiquidCrystal.o
                0x00000dca                _ZN13LiquidCrystal5clearEv
 .text._ZN13LiquidCrystal9setCursorEhh
                0x00000dd8       0x26 LiquidCrystal.o
                0x00000dd8                _ZN13LiquidCrystal9setCursorEhh
 .text._ZN13LiquidCrystal7displayEv
                0x00000dfe       0x10 LiquidCrystal.o
                0x00000dfe                _ZN13LiquidCrystal7displayEv
 .text._ZN13LiquidCrystal5beginEhhh
                0x00000e0e      0x14a LiquidCrystal.o
                0x00000e0e                _ZN13LiquidCrystal5beginEhhh
 .text._ZN13LiquidCrystalC2Ehhhhhh
                0x00000f58       0x40 LiquidCrystal.o
                0x00000f58                _ZN13LiquidCrystalC1Ehhhhhh
                0x00000f58                _ZN13LiquidCrystalC2Ehhhhhh
 .text._ZN13LiquidCrystal5writeEh
                0x00000f98        0xc LiquidCrystal.o
                0x00000f98                _ZN13LiquidCrystal5writeEh
 .text._Z8callbacki
                0x00000fa4        0xa main.o
                0x00000fa4                _Z8callbacki
 .text._Z13dummyFunctionv
                0x00000fae        0x2 main.o
                0x00000fae                _Z13dummyFunctionv
 .text._Z12onKeyDown_A2v
                0x00000fb0       0xd8 main.o
                0x00000fb0                _Z12onKeyDown_A2v
 .text._Z14onKeyDown_Leftv
                0x00001088       0x2a main.o
                0x00001088                _Z14onKeyDown_Leftv
 .text._Z15onKeyDown_Rightv
                0x000010b2       0x2c main.o
                0x000010b2                _Z15onKeyDown_Rightv
 .text._Z12onKeyDown_Upv
                0x000010de       0x4c main.o
                0x000010de                _Z12onKeyDown_Upv
 .text._Z14onKeyDown_Downv
                0x0000112a       0x4a main.o
                0x0000112a                _Z14onKeyDown_Downv
 .text._ZN5Print5writeEPKc
                0x00001174       0x2a main.o
                0x00001174                _ZN5Print5writeEPKc
 .text._Z10get_samplev
                0x0000119e       0x2e main.o
                0x0000119e                _Z10get_samplev
 .text._Z10add_samplev
                0x000011cc       0xce main.o
                0x000011cc                _Z10add_samplev
 .text._Z14update_avg_luxv
                0x0000129a       0x90 main.o
                0x0000129a                _Z14update_avg_luxv
 .text._Z12requestEventv
                0x0000132a      0x4aa main.o
                0x0000132a                _Z12requestEventv
 .text._Z11displayModev
                0x000017d4      0x214 main.o
                0x000017d4                _Z11displayModev
 .text.setup    0x000019e8      0x18a main.o
                0x000019e8                setup
 .text.loop     0x00001b72       0x26 main.o
                0x00001b72                loop
 .text.__vector_7
                0x00001b98       0xce main.o
                0x00001b98                __vector_7
 .text._Z12receiveEventi
                0x00001c66       0x40 main.o
                0x00001c66                _Z12receiveEventi
 .text.twi_init
                0x00001ca6       0x3c utility/twi.o
                0x00001ca6                twi_init
 .text.twi_setAddress
                0x00001ce2        0x8 utility/twi.o
                0x00001ce2                twi_setAddress
 .text.twi_transmit
                0x00001cea       0x54 utility/twi.o
                0x00001cea                twi_transmit
 .text.twi_attachSlaveRxEvent
                0x00001d3e        0xa utility/twi.o
                0x00001d3e                twi_attachSlaveRxEvent
 .text.twi_attachSlaveTxEvent
                0x00001d48        0xa utility/twi.o
                0x00001d48                twi_attachSlaveTxEvent
 .text.twi_stop
                0x00001d52       0x16 utility/twi.o
                0x00001d52                twi_stop
 .text.twi_releaseBus
                0x00001d68        0xc utility/twi.o
                0x00001d68                twi_releaseBus
 .text.__vector_24
                0x00001d74      0x242 utility/twi.o
                0x00001d74                __vector_24
 .text._ZN7TwoWire9availableEv
                0x00001fb6       0x10 Wire.o
                0x00001fb6                _ZN7TwoWire9availableEv
 .text._ZN7TwoWire4readEv
                0x00001fc6       0x28 Wire.o
                0x00001fc6                _ZN7TwoWire4readEv
 .text._ZN7TwoWire4peekEv
                0x00001fee       0x1e Wire.o
                0x00001fee                _ZN7TwoWire4peekEv
 .text._ZN7TwoWire5flushEv
                0x0000200c        0x2 Wire.o
                0x0000200c                _ZN7TwoWire5flushEv
 .text._ZN7TwoWire16onReceiveServiceEPhi
                0x0000200e       0x54 Wire.o
                0x0000200e                _ZN7TwoWire16onReceiveServiceEPhi
 .text._ZN7TwoWire16onRequestServiceEv
                0x00002062       0x18 Wire.o
                0x00002062                _ZN7TwoWire16onRequestServiceEv
 .text._ZN7TwoWire5writeEPKhj
                0x0000207a       0x5a Wire.o
                0x0000207a                _ZN7TwoWire5writeEPKhj
 .text._ZN7TwoWire5writeEh
                0x000020d4       0x5e Wire.o
                0x000020d4                _ZN7TwoWire5writeEh
 .text._ZN7TwoWireC2Ev
                0x00002132       0x20 Wire.o
                0x00002132                _ZN7TwoWireC1Ev
                0x00002132                _ZN7TwoWireC2Ev
 .text._ZN7TwoWire5beginEv
                0x00002152       0x14 Wire.o
                0x00002152                _ZN7TwoWire5beginEv
 .text._ZN7TwoWire5beginEh
                0x00002166       0x26 Wire.o
                0x00002166                _ZN7TwoWire5beginEh
 .text._ZN7TwoWire5beginEi
                0x0000218c        0x4 Wire.o
                0x0000218c                _ZN7TwoWire5beginEi
 .text._ZN7TwoWire9onReceiveEPFviE
                0x00002190        0xa Wire.o
                0x00002190                _ZN7TwoWire9onReceiveEPFviE
 .text._ZN7TwoWire9onRequestEPFvvE
                0x0000219a        0xa Wire.o
                0x0000219a                _ZN7TwoWire9onRequestEPFvvE
 .text.startup._GLOBAL__sub_I__ZN7TwoWire8rxBufferE
                0x000021a4        0x8 Wire.o
 .text.avr-libc.fplib
                0x000021ac        0xe c:/program files (x86)/atmel/studio/7.0/toolchain/avr8/avr8-gnu-toolchain/bin/../lib/gcc/avr/5.4.0/../../../../avr/lib/avr5\libm.a(addsf3.o)
                0x000021ac                __subsf3
                0x000021ae                __addsf3
 .text.avr-libc.fplib
                0x000021ba       0xcc c:/program files (x86)/atmel/studio/7.0/toolchain/avr8/avr8-gnu-toolchain/bin/../lib/gcc/avr/5.4.0/../../../../avr/lib/avr5\libm.a(addsf3x.o)
                0x000021dc                __addsf3x
 .text.avr-libc.fplib
                0x00002286        0xa c:/program files (x86)/atmel/studio/7.0/toolchain/avr8/avr8-gnu-toolchain/bin/../lib/gcc/avr/5.4.0/../../../../avr/lib/avr5\libm.a(cmpsf2.o)
                0x00002286                __nesf2
                0x00002286                __eqsf2
                0x00002286                __cmpsf2
                0x00002286                __ltsf2
                0x00002286                __lesf2
 .text.avr-libc.fplib
                0x00002290        0x8 c:/program files (x86)/atmel/studio/7.0/toolchain/avr8/avr8-gnu-toolchain/bin/../lib/gcc/avr/5.4.0/../../../../avr/lib/avr5\libm.a(divsf3.o)
                0x00002290                __divsf3
 .text.avr-libc.fplib
                0x00002298       0xdc c:/program files (x86)/atmel/studio/7.0/toolchain/avr8/avr8-gnu-toolchain/bin/../lib/gcc/avr/5.4.0/../../../../avr/lib/avr5\libm.a(divsf3x.o)
                0x000022b8                __divsf3x
                0x000022be                __divsf3_pse
 .text.avr-libc.fplib
                0x00002374        0xe c:/program files (x86)/atmel/studio/7.0/toolchain/avr8/avr8-gnu-toolchain/bin/../lib/gcc/avr/5.4.0/../../../../avr/lib/avr5\libm.a(fixsfsi.o)
                0x00002374                __fixsfsi
 .text.avr-libc.fplib
                0x00002382       0x5e c:/program files (x86)/atmel/studio/7.0/toolchain/avr8/avr8-gnu-toolchain/bin/../lib/gcc/avr/5.4.0/../../../../avr/lib/avr5\libm.a(fixunssfsi.o)
                0x00002382                __fixunssfsi
 .text.avr-libc.fplib
                0x000023e0       0x7a c:/program files (x86)/atmel/studio/7.0/toolchain/avr8/avr8-gnu-toolchain/bin/../lib/gcc/avr/5.4.0/../../../../avr/lib/avr5\libm.a(floatsisf.o)
                0x000023e0                __floatunsisf
                0x000023e4                __floatsisf
 .text.avr-libc.fplib
                0x0000245a       0x48 c:/program files (x86)/atmel/studio/7.0/toolchain/avr8/avr8-gnu-toolchain/bin/../lib/gcc/avr/5.4.0/../../../../avr/lib/avr5\libm.a(fp_cmp.o)
                0x0000245a                __fp_cmp
 .text.avr-libc.fplib
                0x000024a2        0xc c:/program files (x86)/atmel/studio/7.0/toolchain/avr8/avr8-gnu-toolchain/bin/../lib/gcc/avr/5.4.0/../../../../avr/lib/avr5\libm.a(fp_inf.o)
                0x000024a2                __fp_inf
 .text.avr-libc.fplib
                0x000024ae        0x6 c:/program files (x86)/atmel/studio/7.0/toolchain/avr8/avr8-gnu-toolchain/bin/../lib/gcc/avr/5.4.0/../../../../avr/lib/avr5\libm.a(fp_nan.o)
                0x000024ae                __fp_nan
 .text.avr-libc.fplib
                0x000024b4        0xe c:/program files (x86)/atmel/studio/7.0/toolchain/avr8/avr8-gnu-toolchain/bin/../lib/gcc/avr/5.4.0/../../../../avr/lib/avr5\libm.a(fp_pscA.o)
                0x000024b4                __fp_pscA
 .text.avr-libc.fplib
                0x000024c2        0xe c:/program files (x86)/atmel/studio/7.0/toolchain/avr8/avr8-gnu-toolchain/bin/../lib/gcc/avr/5.4.0/../../../../avr/lib/avr5\libm.a(fp_pscB.o)
                0x000024c2                __fp_pscB
 .text.avr-libc.fplib
                0x000024d0       0x22 c:/program files (x86)/atmel/studio/7.0/toolchain/avr8/avr8-gnu-toolchain/bin/../lib/gcc/avr/5.4.0/../../../../avr/lib/avr5\libm.a(fp_round.o)
                0x000024d0                __fp_round
 .text.avr-libc.fplib
                0x000024f2       0x44 c:/program files (x86)/atmel/studio/7.0/toolchain/avr8/avr8-gnu-toolchain/bin/../lib/gcc/avr/5.4.0/../../../../avr/lib/avr5\libm.a(fp_split3.o)
                0x000024f2                __fp_split3
                0x00002502                __fp_splitA
 .text.avr-libc.fplib
                0x00002536        0xe c:/program files (x86)/atmel/studio/7.0/toolchain/avr8/avr8-gnu-toolchain/bin/../lib/gcc/avr/5.4.0/../../../../avr/lib/avr5\libm.a(fp_zero.o)
                0x00002536                __fp_zero
                0x00002538                __fp_szero
 .text.avr-libc.fplib
                0x00002544        0xa c:/program files (x86)/atmel/studio/7.0/toolchain/avr8/avr8-gnu-toolchain/bin/../lib/gcc/avr/5.4.0/../../../../avr/lib/avr5\libm.a(gesf2.o)
                0x00002544                __gesf2
                0x00002544                __gtsf2
 .text.avr-libc.fplib
                0x0000254e        0x8 c:/program files (x86)/atmel/studio/7.0/toolchain/avr8/avr8-gnu-toolchain/bin/../lib/gcc/avr/5.4.0/../../../../avr/lib/avr5\libm.a(mulsf3.o)
                0x0000254e                __mulsf3
 .text.avr-libc.fplib
                0x00002556       0xd2 c:/program files (x86)/atmel/studio/7.0/toolchain/avr8/avr8-gnu-toolchain/bin/../lib/gcc/avr/5.4.0/../../../../avr/lib/avr5\libm.a(mulsf3x.o)
                0x00002574                __mulsf3x
                0x0000257a                __mulsf3_pse
 .text.avr-libc.fplib
                0x00002628       0x16 c:/program files (x86)/atmel/studio/7.0/toolchain/avr8/avr8-gnu-toolchain/bin/../lib/gcc/avr/5.4.0/../../../../avr/lib/avr5\libm.a(trunc.o)
                0x00002628                trunc
 .text.avr-libc.fplib
                0x0000263e       0x36 c:/program files (x86)/atmel/studio/7.0/toolchain/avr8/avr8-gnu-toolchain/bin/../lib/gcc/avr/5.4.0/../../../../avr/lib/avr5\libm.a(fp_mintl.o)
                0x0000263e                __fp_mintl
 .text.avr-libc.fplib
                0x00002674       0x1c c:/program files (x86)/atmel/studio/7.0/toolchain/avr8/avr8-gnu-toolchain/bin/../lib/gcc/avr/5.4.0/../../../../avr/lib/avr5\libm.a(fp_mpack.o)
                0x00002674                __fp_mpack
                0x00002678                __fp_mpack_finite
 .text.avr-libc.fplib
                0x00002690       0x30 c:/program files (x86)/atmel/studio/7.0/toolchain/avr8/avr8-gnu-toolchain/bin/../lib/gcc/avr/5.4.0/../../../../avr/lib/avr5\libm.a(fp_trunc.o)
                0x00002690                __fp_trunc
 .text.__vector_16
                0x000026c0       0x94 ../lib\libcoreArduinoUno161.a(wiring.c.o)
                0x000026c0                __vector_16
 .text.micros   0x00002754       0x46 ../lib\libcoreArduinoUno161.a(wiring.c.o)
                0x00002754                micros
 .text.delay    0x0000279a       0x50 ../lib\libcoreArduinoUno161.a(wiring.c.o)
                0x0000279a                delay
 .text.delayMicroseconds
                0x000027ea       0x14 ../lib\libcoreArduinoUno161.a(wiring.c.o)
                0x000027ea                delayMicroseconds
 .text.init     0x000027fe       0x76 ../lib\libcoreArduinoUno161.a(wiring.c.o)
                0x000027fe                init
 .text.analogWrite
                0x00002874       0xbe ../lib\libcoreArduinoUno161.a(wiring_analog.c.o)
                0x00002874                analogWrite
 .text.turnOffPWM
                0x00002932       0x52 ../lib\libcoreArduinoUno161.a(wiring_digital.c.o)
 .text.pinMode  0x00002984       0x72 ../lib\libcoreArduinoUno161.a(wiring_digital.c.o)
                0x00002984                pinMode
 .text.digitalWrite
                0x000029f6       0x6c ../lib\libcoreArduinoUno161.a(wiring_digital.c.o)
                0x000029f6                digitalWrite
 .text.initVariant
                0x00002a62        0x2 ../lib\libcoreArduinoUno161.a(main.cpp.o)
                0x00002a62                initVariant
 .text.startup.main
                0x00002a64       0x1e ../lib\libcoreArduinoUno161.a(main.cpp.o)
                0x00002a64                main
 .text._ZN5Print5writeEPKhj
                0x00002a82       0x50 ../lib\libcoreArduinoUno161.a(Print.cpp.o)
                0x00002a82                _ZN5Print5writeEPKhj
 .text._ZN5Print5printERK6String
                0x00002ad2       0x1c ../lib\libcoreArduinoUno161.a(Print.cpp.o)
                0x00002ad2                _ZN5Print5printERK6String
 .text._ZN5Print5printEPKc
                0x00002aee        0x4 ../lib\libcoreArduinoUno161.a(Print.cpp.o)
                0x00002aee                _ZN5Print5printEPKc
 .text._ZN5Print5printEc
                0x00002af2        0xe ../lib\libcoreArduinoUno161.a(Print.cpp.o)
                0x00002af2                _ZN5Print5printEc
 .text._ZN5Print11printNumberEmh
                0x00002b00       0xb2 ../lib\libcoreArduinoUno161.a(Print.cpp.o)
                0x00002b00                _ZN5Print11printNumberEmh
 .text._ZN5Print5printEli
                0x00002bb2       0x94 ../lib\libcoreArduinoUno161.a(Print.cpp.o)
                0x00002bb2                _ZN5Print5printEli
 .text._ZN5Print5printEmi
                0x00002c46       0x1a ../lib\libcoreArduinoUno161.a(Print.cpp.o)
                0x00002c46                _ZN5Print5printEmi
 .text._ZN5Print5printEhi
                0x00002c60        0xe ../lib\libcoreArduinoUno161.a(Print.cpp.o)
                0x00002c60                _ZN5Print5printEhi
 .text._ZN5Print10printFloatEdh
                0x00002c6e      0x1d6 ../lib\libcoreArduinoUno161.a(Print.cpp.o)
                0x00002c6e                _ZN5Print10printFloatEdh
 .text._ZN5Print5printEdi
                0x00002e44        0x4 ../lib\libcoreArduinoUno161.a(Print.cpp.o)
                0x00002e44                _ZN5Print5printEdi
 .text._ZN6StringD2Ev
                0x00002e48        0xa ../lib\libcoreArduinoUno161.a(WString.cpp.o)
                0x00002e48                _ZN6StringD2Ev
                0x00002e48                _ZN6StringD1Ev
 .text._ZN6String10invalidateEv
                0x00002e52       0x24 ../lib\libcoreArduinoUno161.a(WString.cpp.o)
                0x00002e52                _ZN6String10invalidateEv
 .text._ZN6String12changeBufferEj
                0x00002e76       0x34 ../lib\libcoreArduinoUno161.a(WString.cpp.o)
                0x00002e76                _ZN6String12changeBufferEj
 .text._ZN6String7reserveEj
                0x00002eaa       0x38 ../lib\libcoreArduinoUno161.a(WString.cpp.o)
                0x00002eaa                _ZN6String7reserveEj
 .text._ZN6String4copyEPKcj
                0x00002ee2       0x42 ../lib\libcoreArduinoUno161.a(WString.cpp.o)
                0x00002ee2                _ZN6String4copyEPKcj
 .text._ZN6StringC2EPKc
                0x00002f24       0x2c ../lib\libcoreArduinoUno161.a(WString.cpp.o)
                0x00002f24                _ZN6StringC2EPKc
                0x00002f24                _ZN6StringC1EPKc
 .text.__empty  0x00002f50        0x2 ../lib\libcoreArduinoUno161.a(hooks.c.o)
                0x00002f50                yield
 .text.avr-libc.fplib
                0x00002f52        0xa c:/program files (x86)/atmel/studio/7.0/toolchain/avr8/avr8-gnu-toolchain/bin/../lib/gcc/avr/5.4.0/../../../../avr/lib/avr5\libm.a(unordsf2.o)
                0x00002f52                __unordsf2
 .text.libgcc.div
                0x00002f5c       0x28 c:/program files (x86)/atmel/studio/7.0/toolchain/avr8/avr8-gnu-toolchain/bin/../lib/gcc/avr/5.4.0/avr5\libgcc.a(_divmodhi4.o)
                0x00002f5c                _div
                0x00002f5c                __divmodhi4
 .text.libgcc.div
                0x00002f84       0x44 c:/program files (x86)/atmel/studio/7.0/toolchain/avr8/avr8-gnu-toolchain/bin/../lib/gcc/avr/5.4.0/avr5\libgcc.a(_udivmodsi4.o)
                0x00002f84                __udivmodsi4
 .text.libgcc   0x00002fc8        0xc c:/program files (x86)/atmel/studio/7.0/toolchain/avr8/avr8-gnu-toolchain/bin/../lib/gcc/avr/5.4.0/avr5\libgcc.a(_tablejump2.o)
                0x00002fc8                __tablejump2__
 .text.libgcc.div
                0x00002fd4       0x28 c:/program files (x86)/atmel/studio/7.0/toolchain/avr8/avr8-gnu-toolchain/bin/../lib/gcc/avr/5.4.0/avr5\libgcc.a(_udivmodhi4.o)
                0x00002fd4                __udivmodhi4
 .text.avr-libc
                0x00002ffc      0x242 c:/program files (x86)/atmel/studio/7.0/toolchain/avr8/avr8-gnu-toolchain/bin/../lib/gcc/avr/5.4.0/../../../../avr/lib/avr5\libc.a(malloc.o)
                0x00002ffc                malloc
                0x0000312c                free
 .text.avr-libc
                0x0000323e      0x18c c:/program files (x86)/atmel/studio/7.0/toolchain/avr8/avr8-gnu-toolchain/bin/../lib/gcc/avr/5.4.0/../../../../avr/lib/avr5\libc.a(realloc.o)
                0x0000323e                realloc
 .text.avr-libc
                0x000033ca       0x12 c:/program files (x86)/atmel/studio/7.0/toolchain/avr8/avr8-gnu-toolchain/bin/../lib/gcc/avr/5.4.0/../../../../avr/lib/avr5\libc.a(memcpy.o)
                0x000033ca                memcpy
 .text.avr-libc
                0x000033dc        0xe c:/program files (x86)/atmel/studio/7.0/toolchain/avr8/avr8-gnu-toolchain/bin/../lib/gcc/avr/5.4.0/../../../../avr/lib/avr5\libc.a(strcpy.o)
                0x000033dc                strcpy
 .text.libgcc.prologue
                0x000033ea       0x38 c:/program files (x86)/atmel/studio/7.0/toolchain/avr8/avr8-gnu-toolchain/bin/../lib/gcc/avr/5.4.0/avr5\libgcc.a(_prologue.o)
                0x000033ea                __prologue_saves__
 .text.libgcc.prologue
                0x00003422       0x36 c:/program files (x86)/atmel/studio/7.0/toolchain/avr8/avr8-gnu-toolchain/bin/../lib/gcc/avr/5.4.0/avr5\libgcc.a(_epilogue.o)
                0x00003422                __epilogue_restores__
                0x00003458                . = ALIGN (0x2)
 *(.fini9)
 .fini9         0x00003458        0x0 c:/program files (x86)/atmel/studio/7.0/toolchain/avr8/avr8-gnu-toolchain/bin/../lib/gcc/avr/5.4.0/avr5\libgcc.a(_exit.o)
                0x00003458                _exit
                0x00003458                exit
 *(.fini9)
 *(.fini8)
 *(.fini8)
 *(.fini7)
 *(.fini7)
 *(.fini6)
 *(.fini6)
 *(.fini5)
 *(.fini5)
 *(.fini4)
 *(.fini4)
 *(.fini3)
 *(.fini3)
 *(.fini2)
 *(.fini2)
 *(.fini1)
 *(.fini1)
 *(.fini0)
 .fini0         0x00003458        0x4 c:/program files (x86)/atmel/studio/7.0/toolchain/avr8/avr8-gnu-toolchain/bin/../lib/gcc/avr/5.4.0/avr5\libgcc.a(_exit.o)
 *(.fini0)
                0x0000345c                _etext = .

.data           0x00800100       0xd4 load address 0x0000345c
                0x00800100                PROVIDE (__data_start, .)
 *(.data)
 .data          0x00800100        0x6 c:/program files (x86)/atmel/studio/7.0/toolchain/avr8/avr8-gnu-toolchain/bin/../lib/gcc/avr/5.4.0/../../../../avr/lib/avr5\libc.a(malloc.o)
                0x00800100                __malloc_heap_end
                0x00800102                __malloc_heap_start
                0x00800104                __malloc_margin
 *(.data*)
 .data.cfg      0x00800106        0x4 keyboard.o
                0x00800106                cfg
 .data.portbhistory
                0x0080010a        0x1 keyboard.o
                0x0080010a                portbhistory
 .data.NUM_KEYS
                0x0080010b        0x2 keyboard.o
                0x0080010b                NUM_KEYS
 .data.key_val_to_tecla
                0x0080010d        0xa keyboard.o
                0x0080010d                key_val_to_tecla
 .data.adc_key_val
                0x00800117        0xa keyboard.o
                0x00800117                adc_key_val
 .data.adc_cfg  0x00800121        0x4 main.o
                0x00800121                adc_cfg
 .data.fin_msg  0x00800125        0x2 main.o
                0x00800125                fin_msg
 .data.inicio_msg
                0x00800127        0x2 main.o
                0x00800127                inicio_msg
 .data.tipo_msg
                0x00800129        0x2 main.o
                0x00800129                tipo_msg
 .data.mensaje  0x0080012b        0x2 main.o
                0x0080012b                mensaje
 .data.back_light_actual
                0x0080012d        0x2 main.o
                0x0080012d                back_light_actual
 .data.back_light_porcent
                0x0080012f        0x5 main.o
                0x0080012f                back_light_porcent
 .data.back_light
                0x00800134        0x5 main.o
                0x00800134                back_light
 .data.index    0x00800139        0x2 main.o
                0x00800139                index
 .data.avg_lux  0x0080013b        0x4 main.o
                0x0080013b                avg_lux
 .data.min_lux  0x0080013f        0x4 main.o
                0x0080013f                min_lux
 .data.max_lux  0x00800143        0x4 main.o
                0x00800143                max_lux
 *(.gnu.linkonce.d*)
 *(.rodata)
 *(.rodata*)
 .rodata.str1.1
                0x00800147       0x12 display.o
 .rodata._ZTV13LiquidCrystal
                0x00800159        0xc LiquidCrystal.o
                0x00800159                _ZTV13LiquidCrystal
 .rodata.str1.1
                0x00800165       0x50 main.o
                                 0x58 (size before relaxing)
 .rodata._ZTV7TwoWire
                0x008001b5       0x12 Wire.o
                0x008001b5                _ZTV7TwoWire
 .rodata.str1.1
                0x008001c7        0xc ../lib\libcoreArduinoUno161.a(Print.cpp.o)
                                  0xe (size before relaxing)
 *(.gnu.linkonce.r*)
                0x008001d4                . = ALIGN (0x2)
 *fill*         0x008001d3        0x1 
                0x008001d4                _edata = .
                0x008001d4                PROVIDE (__data_end, .)

.bss            0x008001d4      0x479
                0x008001d4                PROVIDE (__bss_start, .)
 *(.bss)
 *(.bss*)
 .bss.currentChannel
                0x008001d4        0x2 adc.o
                0x008001d4                currentChannel
 .bss.canales   0x008001d6        0x6 adc.o
                0x008001d6                canales
 .bss.config    0x008001dc        0xc adc.o
                0x008001dc                config
 .bss.adcDone   0x008001e8        0x1 adc.o
                0x008001e8                adcDone
 .bss.adcReading
                0x008001e9        0xc adc.o
                0x008001e9                adcReading
 .bss.lcd       0x008001f5       0x18 display.o
                0x008001f5                lcd
 .bss.lastInput
                0x0080020d        0x2 keyboard.o
                0x0080020d                lastInput
 .bss.key_down_array
                0x0080020f        0x9 keyboard.o
                0x0080020f                key_down_array
 .bss.key_up_array
                0x00800218        0x9 keyboard.o
                0x00800218                key_up_array
 .bss.onKeyDown
                0x00800221       0x12 keyboard.o
                0x00800221                onKeyDown
 .bss.onKeyUp   0x00800233       0x12 keyboard.o
                0x00800233                onKeyUp
 .bss.new_lcd_key
                0x00800245        0x2 keyboard.o
                0x00800245                new_lcd_key
 .bss.prev_lcd_key
                0x00800247        0x2 keyboard.o
                0x00800247                prev_lcd_key
 .bss.comando_recibido
                0x00800249        0x1 main.o
                0x00800249                comando_recibido
 .bss.indexForSendError
                0x0080024a        0x2 main.o
                0x0080024a                indexForSendError
 .bss.indexForSend
                0x0080024c        0x2 main.o
                0x0080024c                indexForSend
 .bss.reset_count
                0x0080024e        0x2 main.o
                0x0080024e                reset_count
 .bss.disp_flag
                0x00800250        0x1 main.o
                0x00800250                disp_flag
 .bss.add_flag  0x00800251        0x1 main.o
                0x00800251                add_flag
 .bss.disp      0x00800252        0x2 main.o
                0x00800252                disp
 .bss.interrupt_count
                0x00800254        0x2 main.o
                0x00800254                interrupt_count
 .bss.estadoActual
                0x00800256        0x2 main.o
                0x00800256                estadoActual
 .bss.analogread
                0x00800258        0x2 main.o
                0x00800258                analogread
 .bss.count     0x0080025a        0x2 main.o
                0x0080025a                count
 .bss.samples   0x0080025c      0x320 main.o
                0x0080025c                samples
 .bss.first_round_flag
                0x0080057c        0x1 main.o
                0x0080057c                first_round_flag
 .bss.twi_error
                0x0080057d        0x1 utility/twi.o
 .bss.twi_rxBufferIndex
                0x0080057e        0x1 utility/twi.o
 .bss.twi_rxBuffer
                0x0080057f       0x20 utility/twi.o
 .bss.twi_txBufferLength
                0x0080059f        0x1 utility/twi.o
 .bss.twi_txBufferIndex
                0x008005a0        0x1 utility/twi.o
 .bss.twi_txBuffer
                0x008005a1       0x20 utility/twi.o
 .bss.twi_masterBufferLength
                0x008005c1        0x1 utility/twi.o
 .bss.twi_masterBufferIndex
                0x008005c2        0x1 utility/twi.o
 .bss.twi_masterBuffer
                0x008005c3       0x20 utility/twi.o
 .bss.twi_onSlaveReceive
                0x008005e3        0x2 utility/twi.o
 .bss.twi_onSlaveTransmit
                0x008005e5        0x2 utility/twi.o
 .bss.twi_inRepStart
                0x008005e7        0x1 utility/twi.o
 .bss.twi_sendStop
                0x008005e8        0x1 utility/twi.o
 .bss.twi_slarw
                0x008005e9        0x1 utility/twi.o
 .bss.twi_state
                0x008005ea        0x1 utility/twi.o
 .bss.Wire      0x008005eb        0xc Wire.o
                0x008005eb                Wire
 .bss._ZN7TwoWire14user_onReceiveE
                0x008005f7        0x2 Wire.o
                0x008005f7                _ZN7TwoWire14user_onReceiveE
 .bss._ZN7TwoWire14user_onRequestE
                0x008005f9        0x2 Wire.o
                0x008005f9                _ZN7TwoWire14user_onRequestE
 .bss._ZN7TwoWire12transmittingE
                0x008005fb        0x1 Wire.o
                0x008005fb                _ZN7TwoWire12transmittingE
 .bss._ZN7TwoWire14txBufferLengthE
                0x008005fc        0x1 Wire.o
                0x008005fc                _ZN7TwoWire14txBufferLengthE
 .bss._ZN7TwoWire13txBufferIndexE
                0x008005fd        0x1 Wire.o
                0x008005fd                _ZN7TwoWire13txBufferIndexE
 .bss._ZN7TwoWire8txBufferE
                0x008005fe       0x20 Wire.o
                0x008005fe                _ZN7TwoWire8txBufferE
 .bss._ZN7TwoWire14rxBufferLengthE
                0x0080061e        0x1 Wire.o
                0x0080061e                _ZN7TwoWire14rxBufferLengthE
 .bss._ZN7TwoWire13rxBufferIndexE
                0x0080061f        0x1 Wire.o
                0x0080061f                _ZN7TwoWire13rxBufferIndexE
 .bss._ZN7TwoWire8rxBufferE
                0x00800620       0x20 Wire.o
                0x00800620                _ZN7TwoWire8rxBufferE
 .bss.timer0_fract
                0x00800640        0x1 ../lib\libcoreArduinoUno161.a(wiring.c.o)
 .bss.timer0_millis
                0x00800641        0x4 ../lib\libcoreArduinoUno161.a(wiring.c.o)
                0x00800641                timer0_millis
 .bss.timer0_overflow_count
                0x00800645        0x4 ../lib\libcoreArduinoUno161.a(wiring.c.o)
                0x00800645                timer0_overflow_count
 *(COMMON)
 COMMON         0x00800649        0x4 c:/program files (x86)/atmel/studio/7.0/toolchain/avr8/avr8-gnu-toolchain/bin/../lib/gcc/avr/5.4.0/../../../../avr/lib/avr5\libc.a(malloc.o)
                0x00800649                __brkval
                0x0080064b                __flp
                0x0080064d                PROVIDE (__bss_end, .)
                0x0000345c                __data_load_start = LOADADDR (.data)
                0x00003530                __data_load_end = (__data_load_start + SIZEOF (.data))

.noinit         0x0080064d        0x0
                [!provide]                PROVIDE (__noinit_start, .)
 *(.noinit*)
                [!provide]                PROVIDE (__noinit_end, .)
                0x0080064d                _end = .
                0x0080064d                PROVIDE (__heap_start, .)

.eeprom         0x00810000        0x0
 *(.eeprom*)
                0x00810000                __eeprom_end = .

.fuse
 *(.fuse)
 *(.lfuse)
 *(.hfuse)
 *(.efuse)

.lock
 *(.lock*)

.signature
 *(.signature*)

.user_signatures
 *(.user_signatures*)

.stab
 *(.stab)

.stabstr
 *(.stabstr)

.stab.excl
 *(.stab.excl)

.stab.exclstr
 *(.stab.exclstr)

.stab.index
 *(.stab.index)

.stab.indexstr
 *(.stab.indexstr)

.comment        0x00000000       0x41
 *(.comment)
 .comment       0x00000000       0x30 adc.o
                                 0x31 (size before relaxing)
 .comment       0x00000030       0x31 analog_to_lux.o
 .comment       0x00000030       0x31 display.o
 .comment       0x00000030       0x31 funciones.o
 .comment       0x00000030       0x31 keyboard.o
 .comment       0x00000030       0x31 LiquidCrystal.o
 .comment       0x00000030       0x31 main.o
 .comment       0x00000030       0x31 utility/twi.o
 .comment       0x00000030       0x31 Wire.o
 .comment       0x00000030       0x11 ../lib\libcoreArduinoUno161.a(wiring.c.o)
                                 0x12 (size before relaxing)
 .comment       0x00000041       0x12 ../lib\libcoreArduinoUno161.a(wiring_analog.c.o)
 .comment       0x00000041       0x12 ../lib\libcoreArduinoUno161.a(wiring_digital.c.o)
 .comment       0x00000041       0x12 ../lib\libcoreArduinoUno161.a(main.cpp.o)
 .comment       0x00000041       0x12 ../lib\libcoreArduinoUno161.a(Print.cpp.o)
 .comment       0x00000041       0x12 ../lib\libcoreArduinoUno161.a(WString.cpp.o)
 .comment       0x00000041       0x12 ../lib\libcoreArduinoUno161.a(hooks.c.o)
 .comment       0x00000041       0x31 c:/program files (x86)/atmel/studio/7.0/toolchain/avr8/avr8-gnu-toolchain/bin/../lib/gcc/avr/5.4.0/../../../../avr/lib/avr5\libc.a(malloc.o)
 .comment       0x00000041       0x31 c:/program files (x86)/atmel/studio/7.0/toolchain/avr8/avr8-gnu-toolchain/bin/../lib/gcc/avr/5.4.0/../../../../avr/lib/avr5\libc.a(realloc.o)

.note.gnu.avr.deviceinfo
                0x00000000       0x40
 .note.gnu.avr.deviceinfo
                0x00000000       0x40 C:/Program Files (x86)/Atmel/Studio/7.0/Packs/atmel/ATmega_DFP/1.2.209/gcc/dev/atmega328p/avr5/crtatmega328p.o

.note.gnu.build-id
 *(.note.gnu.build-id)

.debug
 *(.debug)

.line
 *(.line)

.debug_srcinfo
 *(.debug_srcinfo)

.debug_sfnames
 *(.debug_sfnames)

.debug_aranges  0x00000000      0x8e8
 *(.debug_aranges)
 .debug_aranges
                0x00000000       0x50 adc.o
 .debug_aranges
                0x00000050       0x20 analog_to_lux.o
 .debug_aranges
                0x00000070       0x38 display.o
 .debug_aranges
                0x000000a8       0x30 funciones.o
 .debug_aranges
                0x000000d8       0x58 keyboard.o
 .debug_aranges
                0x00000130      0x110 LiquidCrystal.o
 .debug_aranges
                0x00000240       0xa0 main.o
 .debug_aranges
                0x000002e0       0x80 utility/twi.o
 .debug_aranges
                0x00000360       0xf8 Wire.o
 .debug_aranges
                0x00000458       0x48 ../lib\libcoreArduinoUno161.a(wiring.c.o)
 .debug_aranges
                0x000004a0       0x30 ../lib\libcoreArduinoUno161.a(wiring_analog.c.o)
 .debug_aranges
                0x000004d0       0x38 ../lib\libcoreArduinoUno161.a(wiring_digital.c.o)
 .debug_aranges
                0x00000508       0x30 ../lib\libcoreArduinoUno161.a(main.cpp.o)
 .debug_aranges
                0x00000538       0xf0 ../lib\libcoreArduinoUno161.a(Print.cpp.o)
 .debug_aranges
                0x00000628      0x2a0 ../lib\libcoreArduinoUno161.a(WString.cpp.o)
 .debug_aranges
                0x000008c8       0x20 ../lib\libcoreArduinoUno161.a(hooks.c.o)

.debug_pubnames
 *(.debug_pubnames)

.debug_info     0x00000000     0xf402
 *(.debug_info .gnu.linkonce.wi.*)
 .debug_info    0x00000000      0x5f4 C:/Program Files (x86)/Atmel/Studio/7.0/Packs/atmel/ATmega_DFP/1.2.209/gcc/dev/atmega328p/avr5/crtatmega328p.o
 .debug_info    0x000005f4      0x44a adc.o
 .debug_info    0x00000a3e       0x78 analog_to_lux.o
 .debug_info    0x00000ab6     0x114e display.o
 .debug_info    0x00001c04      0x287 funciones.o
 .debug_info    0x00001e8b      0x6b3 keyboard.o
 .debug_info    0x0000253e     0x1bab LiquidCrystal.o
 .debug_info    0x000040e9     0x13e8 main.o
 .debug_info    0x000054d1      0x71f utility/twi.o
 .debug_info    0x00005bf0     0x252b Wire.o
 .debug_info    0x0000811b      0x2c2 ../lib\libcoreArduinoUno161.a(wiring.c.o)
 .debug_info    0x000083dd      0x281 ../lib\libcoreArduinoUno161.a(wiring_analog.c.o)
 .debug_info    0x0000865e      0x5f1 ../lib\libcoreArduinoUno161.a(wiring_digital.c.o)
 .debug_info    0x00008c4f      0x1f0 ../lib\libcoreArduinoUno161.a(main.cpp.o)
 .debug_info    0x00008e3f     0x2691 ../lib\libcoreArduinoUno161.a(Print.cpp.o)
 .debug_info    0x0000b4d0     0x3ef8 ../lib\libcoreArduinoUno161.a(WString.cpp.o)
 .debug_info    0x0000f3c8       0x3a ../lib\libcoreArduinoUno161.a(hooks.c.o)

.debug_abbrev   0x00000000     0x2a9e
 *(.debug_abbrev)
 .debug_abbrev  0x00000000      0x5a2 C:/Program Files (x86)/Atmel/Studio/7.0/Packs/atmel/ATmega_DFP/1.2.209/gcc/dev/atmega328p/avr5/crtatmega328p.o
 .debug_abbrev  0x000005a2      0x229 adc.o
 .debug_abbrev  0x000007cb       0x67 analog_to_lux.o
 .debug_abbrev  0x00000832      0x28a display.o
 .debug_abbrev  0x00000abc      0x13b funciones.o
 .debug_abbrev  0x00000bf7      0x211 keyboard.o
 .debug_abbrev  0x00000e08      0x35e LiquidCrystal.o
 .debug_abbrev  0x00001166      0x3bf main.o
 .debug_abbrev  0x00001525      0x252 utility/twi.o
 .debug_abbrev  0x00001777      0x557 Wire.o
 .debug_abbrev  0x00001cce      0x143 ../lib\libcoreArduinoUno161.a(wiring.c.o)
 .debug_abbrev  0x00001e11      0x184 ../lib\libcoreArduinoUno161.a(wiring_analog.c.o)
 .debug_abbrev  0x00001f95      0x162 ../lib\libcoreArduinoUno161.a(wiring_digital.c.o)
 .debug_abbrev  0x000020f7       0xd7 ../lib\libcoreArduinoUno161.a(main.cpp.o)
 .debug_abbrev  0x000021ce      0x425 ../lib\libcoreArduinoUno161.a(Print.cpp.o)
 .debug_abbrev  0x000025f3      0x483 ../lib\libcoreArduinoUno161.a(WString.cpp.o)
 .debug_abbrev  0x00002a76       0x28 ../lib\libcoreArduinoUno161.a(hooks.c.o)

.debug_line     0x00000000     0x414d
 *(.debug_line .debug_line.* .debug_line_end)
 .debug_line    0x00000000      0x133 C:/Program Files (x86)/Atmel/Studio/7.0/Packs/atmel/ATmega_DFP/1.2.209/gcc/dev/atmega328p/avr5/crtatmega328p.o
 .debug_line    0x00000133      0x2ef adc.o
 .debug_line    0x00000422       0xc6 analog_to_lux.o
 .debug_line    0x000004e8      0x1a5 display.o
 .debug_line    0x0000068d      0x1c2 funciones.o
 .debug_line    0x0000084f      0x5a4 keyboard.o
 .debug_line    0x00000df3      0x946 LiquidCrystal.o
 .debug_line    0x00001739      0x8c2 main.o
 .debug_line    0x00001ffb      0x5ee utility/twi.o
 .debug_line    0x000025e9      0x5de Wire.o
 .debug_line    0x00002bc7      0x1d3 ../lib\libcoreArduinoUno161.a(wiring.c.o)
 .debug_line    0x00002d9a      0x19c ../lib\libcoreArduinoUno161.a(wiring_analog.c.o)
 .debug_line    0x00002f36      0x199 ../lib\libcoreArduinoUno161.a(wiring_digital.c.o)
 .debug_line    0x000030cf      0x16b ../lib\libcoreArduinoUno161.a(main.cpp.o)
 .debug_line    0x0000323a      0x44b ../lib\libcoreArduinoUno161.a(Print.cpp.o)
 .debug_line    0x00003685      0xa4e ../lib\libcoreArduinoUno161.a(WString.cpp.o)
 .debug_line    0x000040d3       0x7a ../lib\libcoreArduinoUno161.a(hooks.c.o)

.debug_frame    0x00000000     0x1bc0
 *(.debug_frame)
 .debug_frame   0x00000000       0xec adc.o
 .debug_frame   0x000000ec       0x30 analog_to_lux.o
 .debug_frame   0x0000011c       0x78 display.o
 .debug_frame   0x00000194       0x64 funciones.o
 .debug_frame   0x000001f8       0xb4 keyboard.o
 .debug_frame   0x000002ac      0x354 LiquidCrystal.o
 .debug_frame   0x00000600      0x244 main.o
 .debug_frame   0x00000844      0x134 utility/twi.o
 .debug_frame   0x00000978      0x284 Wire.o
 .debug_frame   0x00000bfc       0xbc ../lib\libcoreArduinoUno161.a(wiring.c.o)
 .debug_frame   0x00000cb8       0x54 ../lib\libcoreArduinoUno161.a(wiring_analog.c.o)
 .debug_frame   0x00000d0c       0x88 ../lib\libcoreArduinoUno161.a(wiring_digital.c.o)
 .debug_frame   0x00000d94       0x44 ../lib\libcoreArduinoUno161.a(main.cpp.o)
 .debug_frame   0x00000dd8      0x3b8 ../lib\libcoreArduinoUno161.a(Print.cpp.o)
 .debug_frame   0x00001190      0xa0c ../lib\libcoreArduinoUno161.a(WString.cpp.o)
 .debug_frame   0x00001b9c       0x24 ../lib\libcoreArduinoUno161.a(hooks.c.o)

.debug_str      0x00000000     0x3258
 *(.debug_str)
 .debug_str     0x00000000      0x208 C:/Program Files (x86)/Atmel/Studio/7.0/Packs/atmel/ATmega_DFP/1.2.209/gcc/dev/atmega328p/avr5/crtatmega328p.o
 .debug_str     0x00000208      0x2e6 adc.o
                                0x345 (size before relaxing)
 .debug_str     0x000004ee       0x44 analog_to_lux.o
                                0x188 (size before relaxing)
 .debug_str     0x00000532      0xae5 display.o
                                0xcdb (size before relaxing)
 .debug_str     0x00001017       0x93 funciones.o
                                0x2ba (size before relaxing)
 .debug_str     0x000010aa      0x1cb keyboard.o
                                0x43e (size before relaxing)
 .debug_str     0x00001275      0x63f LiquidCrystal.o
                                0x8dd (size before relaxing)
 .debug_str     0x000018b4      0x36b main.o
                                0x801 (size before relaxing)
 .debug_str     0x00001c1f      0x28f utility/twi.o
                                0x3a0 (size before relaxing)
 .debug_str     0x00001eae      0x891 Wire.o
                               0x16ca (size before relaxing)
 .debug_str     0x0000273f       0xec ../lib\libcoreArduinoUno161.a(wiring.c.o)
                                0x19d (size before relaxing)
 .debug_str     0x0000282b       0xaf ../lib\libcoreArduinoUno161.a(wiring_analog.c.o)
                                0x1aa (size before relaxing)
 .debug_str     0x000028da       0xe0 ../lib\libcoreArduinoUno161.a(wiring_digital.c.o)
                                0x20b (size before relaxing)
 .debug_str     0x000029ba      0x13e ../lib\libcoreArduinoUno161.a(main.cpp.o)
                                0x1f1 (size before relaxing)
 .debug_str     0x00002af8      0x344 ../lib\libcoreArduinoUno161.a(Print.cpp.o)
                                0xe22 (size before relaxing)
 .debug_str     0x00002e3c      0x3c9 ../lib\libcoreArduinoUno161.a(WString.cpp.o)
                                0xdf8 (size before relaxing)
 .debug_str     0x00003205       0x53 ../lib\libcoreArduinoUno161.a(hooks.c.o)
                                 0x9b (size before relaxing)

.debug_loc      0x00000000     0x9e97
 *(.debug_loc)
 .debug_loc     0x00000000      0x322 adc.o
 .debug_loc     0x00000322      0x189 analog_to_lux.o
 .debug_loc     0x000004ab      0x13a display.o
 .debug_loc     0x000005e5      0x14e funciones.o
 .debug_loc     0x00000733      0x17c keyboard.o
 .debug_loc     0x000008af     0x1a6e LiquidCrystal.o
 .debug_loc     0x0000231d      0x513 main.o
 .debug_loc     0x00002830      0x54a utility/twi.o
 .debug_loc     0x00002d7a      0xbfd Wire.o
 .debug_loc     0x00003977      0x22b ../lib\libcoreArduinoUno161.a(wiring.c.o)
 .debug_loc     0x00003ba2      0x127 ../lib\libcoreArduinoUno161.a(wiring_analog.c.o)
 .debug_loc     0x00003cc9      0x617 ../lib\libcoreArduinoUno161.a(wiring_digital.c.o)
 .debug_loc     0x000042e0       0x26 ../lib\libcoreArduinoUno161.a(main.cpp.o)
 .debug_loc     0x00004306     0x1eed ../lib\libcoreArduinoUno161.a(Print.cpp.o)
 .debug_loc     0x000061f3     0x3ca4 ../lib\libcoreArduinoUno161.a(WString.cpp.o)

.debug_macinfo
 *(.debug_macinfo)

.debug_weaknames
 *(.debug_weaknames)

.debug_funcnames
 *(.debug_funcnames)

.debug_typenames
 *(.debug_typenames)

.debug_varnames
 *(.debug_varnames)

.debug_pubtypes
 *(.debug_pubtypes)

.debug_ranges   0x00000000      0x958
 *(.debug_ranges)
 .debug_ranges  0x00000000       0x58 adc.o
 .debug_ranges  0x00000058       0x10 analog_to_lux.o
 .debug_ranges  0x00000068       0x28 display.o
 .debug_ranges  0x00000090       0x20 funciones.o
 .debug_ranges  0x000000b0       0x48 keyboard.o
 .debug_ranges  0x000000f8      0x178 LiquidCrystal.o
 .debug_ranges  0x00000270       0x90 main.o
 .debug_ranges  0x00000300       0x70 utility/twi.o
 .debug_ranges  0x00000370       0xe8 Wire.o
 .debug_ranges  0x00000458       0x38 ../lib\libcoreArduinoUno161.a(wiring.c.o)
 .debug_ranges  0x00000490       0x20 ../lib\libcoreArduinoUno161.a(wiring_analog.c.o)
 .debug_ranges  0x000004b0       0x40 ../lib\libcoreArduinoUno161.a(wiring_digital.c.o)
 .debug_ranges  0x000004f0       0x20 ../lib\libcoreArduinoUno161.a(main.cpp.o)
 .debug_ranges  0x00000510      0x140 ../lib\libcoreArduinoUno161.a(Print.cpp.o)
 .debug_ranges  0x00000650      0x2f8 ../lib\libcoreArduinoUno161.a(WString.cpp.o)
 .debug_ranges  0x00000948       0x10 ../lib\libcoreArduinoUno161.a(hooks.c.o)

.debug_macro
 *(.debug_macro)
OUTPUT(Actividad1.elf elf32-avr)
LOAD linker stubs
